:0200000490006A
:10000000E00C0024AD0200904F320090412A009095
:100010004D320090BB0300903D470090000000006F
:10002000000000000000000000000000CD41009032
:10003000390400900000000051320090CF41009040
:10004000C7020090C7020090C7020090C70200904C
:10005000C7020090C7020090C7020090C70200903C
:10006000C7020090C7020090C7020090C70200902C
:10007000C7020090C7020090C7020090C70200901C
:10008000C7020090C7020090C7020090C70200900C
:10009000C7020090C7020090C7020090C7020090FC
:1000A000C7020090C7020090C7020090C7020090EC
:1000B000C7020090C7020090C7020090C7020090DC
:1000C000C7020090C7020090C7020090C7020090CC
:1000D000C7020090C7020090C7020090C7020090BC
:1000E000C7020090C702009000000000C702009005
:1000F000C7020090C7020090C7020090C70200909C
:10010000C7020090C7020090C7020090C70200908B
:10011000C7020090C7020090C7020090C70200907B
:10012000C7020090C7020090C7020090C70200906B
:10013000C7020090C7020090C7020090C70200905B
:1001400000000000000000000000000000000000AF
:10015000C7020090C7020090C7020090C70200903B
:10016000C7020090C7020090C7020090C70200902B
:10017000C7020090C7020090C7020090C70200901B
:10018000C7020090C7020090C7020090C70200900B
:10019000C7020090C7020090C7020090C7020090FB
:1001A000C7020090C7020090C7020090C7020090EB
:1001B000C7020090C7020090C7020090C7020090DB
:1001C000C7020090C7020090C7020090C7020090CB
:1001D000C7020090C7020090C7020090C7020090BB
:1001E000C7020090C7020090C7020090C7020090AB
:1001F000C7020090C7020090C7020090C70200909B
:10020000C7020090C7020090C7020090C70200908A
:10021000C7020090C7020090C7020090C70200907A
:10022000C7020090C7020090C702009000000000C3
:10023000C7020090C702009000000000C7020090B3
:10024000C7020090C7020090C7020090C70200904A
:10025000C7020090C7020090C7020090C70200903A
:10026000C7020090C7020090C7020090C70200902A
:10027000C7020090C7020090C70200900000000073
:10028000C7020090C7020090C70200900000000063
:1002900000000000C7020090DFF80CD000F05CF80E
:1002A00000480047D94D0090E00C002406488047E4
:1002B00006480047FEE7FEE7FEE7FEE7FEE7FEE74B
:1002C000FEE7FEE7FEE7FEE7B142009099020090EC
:1002D000D2B201E000F8012B491EFBD27047002288
:1002E000F6E710B513460A4604461946FFF7F0FF35
:1002F000204610BD2DE9F05F0546002092469B4642
:1003000088460646814640241BE02846414647462B
:10031000224600F042F853465A46C01A914110D383
:1003200011461846224600F029F82D1A67EB0108FD
:100330004F4622460120002100F020F817EB00096B
:100340004E41201EA4F10104DFDC484631462A4616
:100350004346BDE8F09F0000064C074D06E0E0680C
:1003600040F0010394E8070098471034AC42F6D3FC
:10037000FFF796FF20BE009040BE0090202A04DBCD
:10038000203A00FA02F1002070479140C2F12003A8
:1003900020FA03F3194390407047202A04DB203AE7
:1003A00021FA02F00021704721FA02F3D040C2F195
:1003B00020029140084319467047FEE7F0B5BFF3AD
:1003C0004F8FBFF36F8F1A4900200860BFF34F8F24
:1003D000BFF36F8F174A116841F400311160BFF30A
:1003E0004F8FBFF36F8F134970310860BFF34F8F8A
:1003F000081F43F6FF7400680D4D1035C0F34E31F1
:10040000C0F3C90304EA4116184600BF46EA8077E4
:100410002F60401EFAD2491EF4D2BFF34F8F1068EE
:1004200040F480301060BFF34F8FBFF36F8FF0BD8B
:1004300050EF00E014ED00E070474FF4FA70014611
:1004400002F042BD70B5044600F03EF90546601C5E
:1004500002D004480078044400F036F9401BA04262
:10046000FAD370BD940000242DE9FC4F01257E4C89
:1004700000234FF0030A4FF0B04E4FF00F0BEBE0AC
:1004800005FA03F637403A0077D04F68012F05D0C0
:10049000022F03D0112F01D0122F1AD187684FEAF3
:1004A0004308D1F80CC00AFA08F927EA09070CFA40
:1004B00008FC4CEA070CC0F808C0476891F804C073
:1004C000B743CCF3001C0CFA03FC4CEA070CC0F851
:1004D00004C0C6684FEA430CD1F80880E1460AFA26
:1004E0000CF7BE43019708FA09F848EA0608C0F875
:1004F0000C804E68022E01D0122E12D1DE084FEA77
:10050000437C00EB860600960F69366A4FEADC6C86
:100510000BFA0CF807FA0CF726EA08063743009E98
:1005200037620E790768DDF804C006F0030606FAA4
:1005300009F627EA0C073E4306604E68F6001CD514
:100540004A4E376847F00207376036689F0706F063
:100550000206009623F0030606F1B046B1463F0FAF
:10056000D6F80864DFF808810BFA07FC404526EA54
:100570000C0603D14FF0000C41E06CE0DFF8F4C052
:10058000604502D14FF0010C39E0DFF8ECC0604566
:1005900002D14FF0020C32E0DFF8E0C0604502D13A
:1005A0004FF0030C2BE0DFF8D8C0604502D14FF0CC
:1005B000040C24E0DFF8CCC0604502D14FF0050CFC
:1005C0001DE0DFF8C4C0604502D14FF0060C16E014
:1005D000DFF8B8C0604502D14FF0070C0FE0DFF83C
:1005E000B0C0604502D14FF0080C08E0DFF8A4C0AD
:1005F000604502D14FF0090C01E04FF00A0C0CFAF3
:1006000007FC4CEA060CC9F808C426684F6826EABD
:100610000206FF0300D51643266066684F6826EA87
:100620000206BF0300D516436660D1F804C07646C3
:10063000DEF800705FEACC2C27EA020700D51743EA
:100640003760D1F804C077685FEA8C2C27EA02078C
:1006500000D5174377605B1C0A681746DA407FF4C1
:100660000FAFBDE8FC8F000080000058F444025832
:10067000000002580004025800080258000C0258FA
:10068000001002580014025800180258001C0258AA
:1006900000200258002402580069084000D00120C0
:1006A00070470AB1816170470904FBE7024800689E
:1006B000C0F30B00704700000010005C01480068A8
:1006C000000C70470010005C014880687047000013
:1006D00094000024024881680278114481607047C8
:1006E00094000024032010B500F0C6F800F084FE4A
:1006F0000F4A104914681368C4F3032203F00F0370
:100700008A5CC95C02F01F0201F01F01D0400A4A56
:1007100020FA01F1116009490860002000F010F88A
:1007200008B1012010BD00F079F8002010BD0000D4
:10073000184402580DBE0090A4000024A00000241C
:1007400070B50D4D04462878A0B14FF47A71B1FB15
:10075000F0F00A490968B1FBF0F001F0B8FF48B9C0
:10076000102C07D200222146501E00F065F8002010
:100770006C6070BD012070BD94000024A0000024B6
:10078000F0B5154C4378211D0A1D23600378F3B1A1
:1007900043680B60057BC67A817A437B2D07847B97
:1007A00045EA0665C77B90F809C0067A90F800E034
:1007B00045EAC14040EA834040EA444040EA0740FD
:1007C00040EA0C2040EA460040EA0E0001E000202A
:1007D00008601060F0BD000098ED00E0BFF35F8F8F
:1007E000044800210368034A23F480330360703215
:1007F0001160704724ED00E0074A40F0010006490F
:1008000070321060086840F480300860BFF34F8F8A
:10081000BFF36F8F7047000024ED00E0054808B576
:10082000016841F002010160006800F002000090E0
:1008300008BD0000F44402580E4BF0B41B680D468E
:10084000C3F30223C3F10706042E00D90426191DA1
:10085000072901D2002300E0DB1E012404FA06F17F
:100860009C40491E2940641E994014402143F0BC1D
:1008700003F07ABF0CED00E0064900F0070210B566
:100880004FF6FF040868044B204040EA022018435A
:10089000086010BD0CED00E00000FA05134970B5CA
:1008A0000A68D243520705D5096801F00701814261
:1008B00013D118E00A6822F0070202430A60FFF72A
:1008C00003FF0A4D4FF47A760446083D07E000BF67
:1008D000FFF7FAFE001BB04201D9012070BD286865
:1008E000C0438004F4D4002070BD00000C480258BE
:1008F0000248016841F48071016070470048025865
:100900002DE9FC5F044650F8241B002500902E467C
:100910000801FE4FDFF8F8831DD5606E50B1B0F5C9
:10092000801F0CD0B0F5001F0ED0B0F5401F1DD0B9
:1009300001250FE0386840F40030386016E00221ED
:10094000201D02F087FC03E00098022102F012FD56
:1009500005000BD02E462088C00523D5606D0528E4
:100960001ED2DFE800F00C11161B1B00626ED8F8D7
:10097000001021F440111143C8F80010EBE738686B
:1009800040F40030386009E00021201D02F062FCD4
:1009900003E00098002102F0EDFC05466DB100E097
:1009A00001252E462088800528D5A06D80281ED0E0
:1009B0000CDC90B140280ED114E0626DD8F8001024
:1009C00021F007011143C8F80010EBE7C02813D04D
:1009D000B0F5807F10D001250FE0386840F400307A
:1009E000386009E00021201D02F034FC03E000988B
:1009F000002102F0BFFC054695B12E462088DFF8A5
:100A00001093400509F108092CD5D4F8A400B0F5DD
:100A1000800F20D00DDCA0B1B0F5001F0FD115E084
:100A2000A26DD8F8001021F4E0711143C8F800104D
:100A3000E4E7B0F5C00F13D0B0F5000F10D00125DA
:100A40000FE0386840F40030386009E00021201DD4
:100A500002F000FC03E00098002102F08BFC054648
:100A600075B12E46208800052DD5D4F8A800B0F128
:100A7000007F21D00EDCA8B1B0F1807F10D116E04C
:100A8000D4F8A420D9F8001021F460011143C9F86A
:100A90000010E7E7B0F1407F13D0B0F1806F10D0C5
:100AA00001250FE0386840F40030386009E000218B
:100AB000201D02F0CFFB03E00098002102F05AFC59
:100AC00005468DB12E462068DFF844B28001ABF1B7
:100AD000040B1FD5A06CD8B110280FD0202812D03D
:100AE000302815D0012514E0D4F8A820D9F800103A
:100AF00021F0E0611143C9F80010E4E7386840F4E0
:100B00000030386004E00221201D02F0A3FB0546FE
:100B10006DB12E462088C0042BD5E06DB0F5005F86
:100B200020D00DDCA0B1B0F5805F0FD115E0A26C34
:100B3000DBF8001021F030011143CBF80010E9E799
:100B4000B0F5405F13D0B0F5804F10D001250FE015
:100B5000386840F40030386009E00021201D02F0C0
:100B600079FB03E00098002102F004FC054685B102
:100B70002E462088800429D5206EB0F5403F23D032
:100B800010DC08B3B0F5803F14D0B0F5003F0FD1B2
:100B900015E0E26DD8F8001021F4E0411143C8F8E7
:100BA0000010E6E7B0F5802F0ED0B0F5A02F0BD0E7
:100BB00001250AE00121201D02F04CFB03E0009812
:100BC000012102F0D7FB05468DB12E462088400456
:100BD0002AD5D4F8AC00B0F1405F23D010DC08B3C4
:100BE000B0F1805F14D0B0F1005F0FD115E0226E3C
:100BF000D8F8001021F4E0211143C8F80010E5E70F
:100C0000B0F1804F0ED0B0F1A04F0BD001250AE01B
:100C10000121201D02F01EFB03E00098012102F0DB
:100C2000A9FB05466DB12E46208800041FD5E06E55
:100C3000D8B1B0F1805F0ED0B0F1005F10D00125C7
:100C400014E0D4F8AC20D9F8001021F0E0411143B1
:100C5000C9F80010E8E7386840F40030386004E074
:100C60000121201D02F0F6FA05466DB12E462068DE
:100C7000C0011ED5606CD0B101280ED0022811D061
:100C8000032814D0012513E0E26ED8F8001021F0FB
:100C900040511143C8F80010E9E7386840F40030CB
:100CA000386004E00221201D02F0D4FA054665B147
:100CB0002E462068400257D51648016841F48071DD
:100CC0000160FFF701FD82460EE0626CDBF8001068
:100CD00021F003011143CBF80010EAE7FFF7F4FC21
:100CE000A0EB0A0064283DD80A480068C005F5D585
:100CF0007DBBDFF81CA0B4F8B0100AF1200ADAF8C6
:100D0000000001F4407100F4407005E02C440258EA
:100D10005044025800480258884211D0DAF80010B6
:100D2000DAF8002021F4407142F48032CAF8002041
:100D3000DAF8002022F48032CAF80020CAF8001045
:100D4000D4F8B000B0F5807F21D1FFF7BDFC019051
:100D500019E008E0FFF7B8FC0199411A41F2883028
:100D6000814210D903252E462078DFF80CA4C00755
:100D70003DD0A06F182838D026DC80B3082829D0B1
:100D8000102825D12CE0DAF800008007E2D5D4F84D
:100D9000B010C1F301200328F8480DD0016821F4F8
:100DA0007C510160B4F8B020DAF80010C2F30B02F5
:100DB0001143CAF80010D7E7F14A036802EA11129A
:100DC00023F47C511143ECE720280ED028280CD0C6
:100DD00001250BE00121201D02F03CFA04E004E0B3
:100DE0000098012102F0C6FA05465DB12E46207832
:100DF00080071ED5606F062819D2DFE800F0160CB8
:100E000011161616A26FDAF8001021F038011143FE
:100E1000CAF80010EBE70121201D02F01BFA03E0E5
:100E20000098012102F0A6FA054675B100E00125FF
:100E30002E46207840071FD5D4F89000062819D2F6
:100E4000DFE800F0160C11161616626FDAF80010C3
:100E500021F007011143CAF80010EAE70121201D23
:100E600002F0F8F903E00098012102F083FA054648
:100E70009DB100E001252E46207880062BD5D4F8C0
:100E80008C00B0F1405F24D011DC10B3B0F1805F72
:100E900015D0B0F1005F10D116E0D4F89020D9F849
:100EA000001021F007011143C9F80010E4E7B0F188
:100EB000804F0ED0B0F1A04F0BD001250AE00021E9
:100EC000201D02F0C7F903E00098022102F052FA57
:100ED00005468DB12E46207840062BD5D4F89800D3
:100EE000B0F5406F24D011DC10B3B0F5806F15D091
:100EF000B0F5006F10D116E0D4F88C20DAF80010AD
:100F000021F0E0411143CAF80010E4E7B0F5805F3A
:100F10000ED0B0F5A05F0BD001250AE00021201D06
:100F200002F098F903E00098022102F023FA054646
:100F30008DB12E46207800062BD5D4F89C00B0F554
:100F4000C04F24D011DC10B3B0F5005F15D0B0F560
:100F5000804F10D116E0D4F89820D9F8001021F471
:100F6000E0511143C9F80010E4E7B0F5004F0ED08E
:100F7000B0F5204F0BD001250AE00021201D02F022
:100F800069F903E00098022102F0F4F905464DB139
:100F90002E46207800071ED5D4F88000B0F5805F7B
:100FA0000AD00FE0D4F89C20D9F8001021F4604159
:100FB0001143C9F80010ECE70098022102F0DAF9B9
:100FC00000B10126D4F88020DAF8001021F4405155
:100FD0001143CAF800102078C00613D5D4F8940045
:100FE000B0F5807F05D10098022102F0C3F900B16D
:100FF0000126D4F89420D9F8001021F4407111434F
:10100000C9F800102068000316D5D4F8A00038B144
:10101000B0F5803F09D0B0F5003F0BD001250AE0C4
:101020000021201D02F016F903E00098022102F0D1
:10103000A1F9054685B12E462068400322D5D4F893
:101040008400B0F5801F11D0B0F5001F13D0B0F5AB
:10105000401F15D0012514E0D4F8A020D9F80010C5
:1010600021F440311143C9F80010E5E7386840F435
:101070000030386004E00098012102F07BF9054659
:1010800055B12E462068C0031CD5E06C70B1B0F598
:10109000803F10D0012514E0D4F88420DAF8001045
:1010A00021F440111143CAF80010EBE7386840F40E
:1010B0000030386004E00221201D02F0CBF8054624
:1010C000CDB12E462068800005D50098022102F09F
:1010D00051F900B10126206880031BD5E06FB8B13B
:1010E000B0F5807F10D0B0F5007F11D0B0F5407F13
:1010F0000ED001250DE0E26CDBF8001021F4803108
:101100001143CBF80010DDE7386840F40030386058
:10111000C5B32E462068C00207D5226FD8F800104C
:1011200021F000411143C8F800102068800207D563
:10113000A26ED8F8001021F080711143C8F8001099
:101140002068400009D50D48016821F40041016084
:101150000168D4F8B820114301602068002807DA3C
:10116000226DDBF8001021F040511143CBF8001044
:1011700096B10120BDE8FC9F544402581044025827
:10118000CFFFFF00FFE7E26FDAF8001021F44071B3
:101190001143CAF80010BDE70020EBE72DE9F05F2E
:1011A00004000F467ED0DFF83882D8F8000000F047
:1011B0000F00B8420CD2D8F8001021F00F013943CB
:1011C000C8F80010D8F8000000F00F00B84269D14C
:1011D0002078844D40070AD52069296801F0700104
:1011E000884204D9296821F07001014329602078E0
:1011F0007C4E361D00070AD56069316801F0700128
:10120000884204D9316821F07001014331602078AF
:10121000C0060AD5A069316801F4E061884204D9AA
:10122000316821F4E061014331602078DFF8B4B126
:1012300080060BF1080B0CD5E1695846DBF800205D
:1012400002F07002914204D9026822F070020A434F
:101250000260207880070AD5E068296801F00F0154
:10126000884204D9296821F00F01014329602078C0
:10127000C0073ED05B49A2682868183920F4706026
:10128000104328606068022818D0032819D0096824
:10129000012819D0490700294ADADFF848A1AAF144
:1012A000080A00E044E0DAF8002022F007020243D6
:1012B000CAF80020FFF708FA814612E0096889039E
:1012C000E9E709688901E6E7C905E4E7FFF7FCF902
:1012D000A0EB090141F28830814202D90320BDE828
:1012E000F09F6168DAF8000000F03800B0EBC10F41
:1012F000ECD1207880070AD5E068296801F00F0159
:10130000884204D2296821F00F0101432960D8F8EE
:101310000010404601F00F01B9420BD9016821F0DD
:101320000F0139430160006800F00F00B84201D09E
:101330000120D4E7207840070AD52069296801F008
:101340007001884204D2296821F0700101432960AC
:10135000207800070AD56069316801F07001884281
:1013600004D2316821F07001014331602078C00659
:101370000AD5A069316801F4E061884204D231687D
:1013800021F4E06101433160207880060CD5E169E9
:101390005846DBF8002002F07002914204D2026845
:1013A00022F070020A43026000F026F80E492A6813
:1013B0002B68C2F3032203F00F038A5CC95C02F0BE
:1013C0001F0201F01F01D040084A20FA01F111600C
:1013D0000749086007480068BDE8F05FFFF7B0B94B
:1013E00000200052184402580DBE0090A4000024B2
:1013F000A000002498000024454970B545480968BC
:10140000434B103B11F0380208D00111082A03D0D9
:10141000102A0BD0182A0BD0084670BD196889060F
:10142000FBD51968C1F3C101C84070BD3A4870BD11
:101430003749374D18310C1D24350A68096826686C
:101440002D6802F0030406F00102C1F30511C5F393
:10145000CC0515FB02F200EE102AB8EE400AE9B303
:101460002F4ADFED2E0AB7EE001A6CB1DFED2D1A10
:10147000012C01D0022C43D002EE101A1068F8EEB5
:10148000422A81EEA22A1EE01C68A40611D51B6820
:1014900001EE901A1168C3F3C103F8EE612AD84037
:1014A00001EE900AC1F30800F8EE611A81EEA22A5B
:1014B0000BE001EE901ADFED1C2A00BFF8EE611A76
:1014C000106882EEA12AC0F3080001EE900AF8EE3F
:1014D000611A40EE201A31EE810A00E015E022EE9A
:1014E000000A1068C0F34620401C00EE900AF8EE97
:1014F000600A80EE201ABCEEC10A10EE100A70BD20
:1015000001EE901ADFED092AD8E7002070BD000037
:10151000104402580090D00340787D01000000394B
:10152000304402580024744A0024744C20BCBE4B42
:101530002DE9F05F04007CD0FF4F2078FE4D183776
:10154000DFF8F493103DC00748D0D9F8000039689F
:1015500000F03800102815D0182803D101F003003E
:1015600002280FD06068B0F5803F12D010B1B0F5FE
:10157000A02F18D0286820F480302860286820F434
:10158000802009E02868800328D560680028D2D030
:1015900024E0286840F480302860606888B1FFF754
:1015A00093F8064609E0286840F480202860F0E7B8
:1015B000FFF78AF8801B64287ED828688003F7D557
:1015C0000CE0FFF781F8064605E000BFFFF77CF866
:1015D000801B6428F0D828688003F7D4207841F273
:1015E0000308D54E0C3E80074BD5D9F8000039686A
:1015F00010F038000ED0182801D188070AD0E06812
:1016000068B3296821F0190101432960FFF75CF8EC
:10161000824619E02868400702D5E06800288AD091
:10162000FFF74CF8404513D82069316821F47C312C
:1016300000E0BEE041EA0030306022E0FFF744F80D
:10164000A0EB0A000228B7D828684007F6D5E7E7DC
:10165000207C316821F0FE4141EA0060ECE7286817
:1016600020F001002860FFF72FF8824606E000BF57
:10167000FFF72AF8A0EB0A0002289DD82868400747
:10168000F6D42078C00659D5D9F80000DFF8A8B202
:10169000396800F03800ABF1040B082812D0182884
:1016A00003D101F0030001280CD0E069002828686C
:1016B00034D040F0800000E0DCE02860FFF704F860
:1016C000824623E02868C00523D5E069802870D1D0
:1016D0001FE000BF94F82000316821F0F84141EA92
:1016E000806030602AE000BF94F82010DBF8002012
:1016F00022F07C5242EA0161CBF800101EE000BFEC
:10170000FEF7E2FFA0EB0A0002289CD82868C0057B
:10171000F6D5FEF7D3FF4045E6D8DBE720F08000A2
:101720002860FEF7D1FF064605E000BFFEF7CCFFBC
:10173000801B022887D82868C005F7D420780007C6
:1017400029D57D486169643000298046016811D03F
:1017500041F001010160FEF7B7FF064605E000BF5A
:10176000FEF7B2FF801B022887D8D8F80000800758
:10177000F6D510E021F001010160FEF7A5FF064655
:1017800005E000BFFEF7A0FF801B022872D8D8F842
:1017900000008007F6D42078800623D5A0690028B1
:1017A000286810D040F480502860FEF78DFF064670
:1017B00005E02EE1FEF788FF801B02285AD8286832
:1017C0008004F7D50EE020F480502860FEF77CFFFF
:1017D000064604E0FEF778FF801B02284AD82868F6
:1017E0008004F7D4207840074FD5DFF85081D8F82F
:1017F000001041F48071C8F80010FEF765FF06463E
:1018000005E000BFFEF760FF801B642832D8D8F8DF
:101810000000C005F6D5484EA068603601280AD001
:1018200008B1052813D0306820F00100306030681E
:1018300020F0040002E0306840F001003060A06851
:1018400041F2883A90B1FEF73FFF80460AE03068E7
:1018500040F004003060EEE7FEF736FFA0EB080131
:10186000514507D830688007F6D50EE0FEF72CFF0B
:10187000804607E084E000BFFEF726FFA0EB0801EA
:1018800051457DD830688007F6D4606AF0B3DFF840
:10189000A880D9F8001008F12008C1F3C20103297B
:1018A0006FD00228286820F08070286003D0FEF7EF
:1018B0000BFF044682E0FEF707FF064605E000BF87
:1018C000FEF702FF801B022875D828688001F7D434
:1018D000E26A40F2F331386854F8283F884340EA1E
:1018E000021018433860217B4FF4FE0C22894FF020
:1018F000FE47208A4902267D521E401EA1F5007136
:1019000089B20CEA0040C2F3080200E083E0114310
:10191000761E0143084807EA06621143064A1C3056
:10192000C8F800102432016821F00101016011683B
:101930004FF6F876B14303E01044025800480258CD
:10194000236A41EAC30111600168A26921F00C0118
:10195000114301600168E26921F002011143016055
:10196000016841F480310160016841F40031016097
:10197000016841F480210160016841F0010101E04A
:1019800019E01FE00160286840F080702860FEF7D1
:101990009BFE044605E000BFFEF796FE001B0228F2
:1019A00009D828688001F7D535E000BFFEF78CFE26
:1019B000001B022802D90320BDE8F09F286880019F
:1019C000F4D428E039680128D8F8000021D0A26AB0
:1019D00001F0030393421CD1E26AC1F305118A426C
:1019E00017D1216BC0F30802491E8A4211D1616BE5
:1019F000C0F34622491E91420BD1A16BC0F30642AF
:101A0000491E914205D1E16BC0F30660491E814237
:101A100001D00120D0E70020CEE70068503050F818
:101A2000210070470068503040F8212070470000C6
:101A300010B50B4601680F48002A496801EA000109
:101A400001F03F044FEA1140D870C1F304225A70EC
:101A50009C70C1F3423119700AD101F01BFDD8709E
:101A6000587801F017FD5870987801F013FD9870C0
:101A7000002010BD3FFFFF0010B50B460168134C5E
:101A8000002A896A596001680969C1F30E019960E9
:101A90000068016801EA040101F07F04C1F3054018
:101AA0001870C1F306225A709C704FEA9151D97098
:101AB0000AD101F0EFFC1870587801F0EBFC587077
:101AC000987801F0E7FC9870002010BD7F7F7F00C0
:101AD0002DE9F04104004FF0010554D094F82100A5
:101AE000002528B9002084F82000204600F050F896
:101AF000022184F82110CA202268532150622068F4
:101B00004162204601F0DCFC4FF0FF064FF0040775
:101B100010BB20681D4A816811408160D4E9001320
:101B2000D4F818C02269886842EA0C0218431043AE
:101B3000886022682189E06840EA014010612068DD
:101B4000C16821F08001C16020688068800609D4E6
:101B5000204600F011F928B120680125466284F87A
:101B6000217010E020680122C16C21F00301C164E2
:101B700021686369E069CF6C18433843C864206802
:101B8000466284F821202846BDE8F081BFFF8FFF20
:101B900000680449884204D10348016841F40041C7
:101BA0000160704700400058704402582DE9F0472A
:101BB000044690F820000B46012822D04FF001097E
:101BC00084F82090022184F82110EAB1597898789D
:101BD000DA781B78090240EA024541EA43300543BE
:101BE0002268CA215320516221684862204601F0D0
:101BF00067FC4FF000064FF0FF074FF0040860BB92
:101C00001AE00220BDE8F0875878C10603D500F03D
:101C1000EF000A305870D87801F045FC020458787B
:101C200001F041FC42EA0022987801F03CFC19786E
:101C3000024342EA4135D3E72168104805404D6030
:101C40002068C16821F08001C1602068806880063A
:101C50000BD4204600F090F838B121684F6284F828
:101C60002180012084F82060CCE721684F6284F84D
:101C70002190002084F82060C4E700003FFFFF00AF
:101C80002DE9F047044690F8200092460D460128C1
:101C900017D002224FF0010984F82090CA2184F85D
:101CA000212053202268516221684862204601F0B9
:101CB00007FC4FF0FF074FF004084FF00006A8BBE9
:101CC00002E00220BDE8F0872068BAF1000F8068CA
:101CD0004FEA406032D0002800DBEE7068782A7846
:101CE000A978EB784FEA002C41EA02404CEA835194
:101CF000084322681F49084010602068816821F469
:101D0000802181602168D5E903028B681043184364
:101D100088602068C16821F08001C1602068806807
:101D200080061FD4204600F027F8D8B121684F6202
:101D300084F82180012084F82060C3E7002800DBBC
:101D4000EE70287801F0AFFB0204687801F0ABFB7D
:101D500042EA0022A87801F0A6FBE978024342EAB1
:101D60008150C6E721684F6284F82190002084F8F2
:101D70002060A7E77F7F7F0070B504460068C168D8
:101D800021F0A001C160FEF79FFC4FF47A76054672
:101D900007E000BFFEF798FC401BB04201D90320CA
:101DA00070BD2068C0688006F4D5002070BD0000BA
:101DB0002DE9F047040029D04A4A4FF00009206875
:101DC000494B4A4D9042C4F8289006D0984204D01E
:101DD000A84202D0E1680F2918D8E1684FF0010A43
:101DE000E76B0831C9080AEB57167143904205D0DA
:101DF000984203D0A84201D0082907D8904203D0C6
:101E0000984201D0A84204D1102902D90120BDE88E
:101E1000F08794F8810020B9204684F8809000F083
:101E200067F8022084F881002068016821F0010130
:101E30000160A069B0F1806F0AD16068B0F5800FD1
:101E400006D1A06B20B92068016841F4805101607F
:101E5000A56AE0692368E16B2843E2680843104300
:101E60009860D4E90D02D4E905C1636A2569184375
:101E7000D4F820800A43266810432843A56DD4E98E
:101E80000172D4E9123140EA0C0040EA08003843FC
:101E90000843104318432843F060606868B920681D
:101EA000816821F4C05141F400618160206881683B
:101EB00021F4C06141F4806181602068016D21F0EE
:101EC000010101656068400206D52068626DC16845
:101ED00021F000411143C160C4F8849084F881A0CE
:101EE000002094E70030014000380040003C0040F2
:101EF00010B586B0044614216846FEF7F0F9134980
:101F00002068884220D11248016841F400510160E4
:101F1000006800F4005005900D481038016841F049
:101F200010010160006800224FF4A04100F0100091
:101F30000590022005230493CDE90010CDE902208D
:101F400004486946FEF790FA06B010BD003401401F
:101F5000F0440258001002582DE9F84F0F4641682E
:101F600004461D4600201646B1F5800F4FF0040BC5
:101F7000009001D1A06888B194F88000012818D0A1
:101F80004FF0010984F88090FEF79EFB94F88110D1
:101F90008246002001290ED0022125E084F881B07C
:101FA0002046009313463A46114600F0FFF9BDE87B
:101FB000F88F0220FBE7B7B1AEB1A2688046676632
:101FC000A4F8686084F881B0C4F88400A4F86A605A
:101FD000E065A4F86000A4F86200B2F5C02F2067A5
:101FE000606705D009E0012184F880000846DEE73B
:101FF0002068016821F400610160206841686FF386
:102000000F01314341602068016841F00101016026
:102010006068B0F5800F04D12068016841F4007158
:102020000160E0680F282ED948F20806B4F86A006B
:10203000002858D02068416931420BD0006B616E96
:102040000860606E001D6066B4F86A00401EA4F867
:102050006A00EBE7FEF738FBA0EB0A00A84202D3C8
:10206000681CE3D001E0002DE0D1204601F045FAE4
:10207000D4F8842084F8808042F48071C4F88410FD
:1020800084F8819078E0072829D867E020684169C2
:1020900011F4604F18D04169090409D5006B616ED5
:1020A0000860606E001D6066B4F86A00801E08E07B
:1020B000008E616E0880606E801C6066B4F86A00F5
:1020C000401EA4F86A000AE0FEF7FEFAA0EB0A0040
:1020D000A84202D3681C02D0C7E7002DC5D0B4F8CF
:1020E0006A000028D2D13DE02068416911F4604FB8
:1020F00029D04169090409D5006B616E0860606EE2
:10210000001D6066B4F86A00001F19E0416901F41F
:10211000C041B1F5005F09D9008E616E0880606E24
:10212000801C6066B4F86A00801E09E090F83000F8
:10213000616E0870606E401C6066B4F86A00401EF4
:10214000A4F86A000AE0FEF7BFFAA0EB0A00A84272
:1021500002D3681C02D088E7002D86D0B4F86A004C
:102160000028C1D1204601F0C8F984F88190D4F844
:10217000841084F8808009B1012018E7009816E7E0
:102180002DE9F84F8A4690F880101D461746012920
:1021900004464FF0000B0DD04FF0010884F880800A
:1021A000FEF792FA814694F881000026012804D0B7
:1021B00002201EE00220BDE8F88FBAF1000F17D010
:1021C000B7B1A1680320C4F85CA0A4F8607084F8DB
:1021D0008100C4F88460A4F862706666A4F8686040
:1021E000A4F86A60B1F5C02F6667266704D008E0DE
:1021F000012084F88060DEE72068016841F4006116
:102200000160206841686FF30F0139434160206825
:10221000016841F0010101606068B0F5800F04D1F0
:102220002068016841F400710160E0680F281AD845
:102230002CE02068416989070BD5E16D09680162CE
:10224000E06D001DE065B4F86200401EA4F8620075
:1022500009E0FEF739FAA0EB0900A84202D3681C96
:1022600001D005E025B1B4F862000028E1D181E099
:10227000204601F042F9D4F8841084F8806041F4DB
:102280008071C4F8841084F881808BE007282BD8F3
:102290006CE02068416989071BD5B4F862100129F8
:1022A0000BD9E16B49B1E16D09680162E06D001D78
:1022B000E065B4F86200801E08E0E16D09880184E1
:1022C000E06D801CE065B4F86200401EA4F8620076
:1022D0000AE0FEF7F9F9A0EB0900A84202D3681C56
:1022E00002D0C5E7002DC3D0B4F862000028D0D1D9
:1022F00040E02068416989072DD5B4F862100329B0
:102300000CD9E16B402909D9E16D09680162E06DE2
:10231000001DE065B4F86200001F19E0B4F8621017
:1023200001290BD9E16B49B1E16D09880184E06DA8
:10233000801CE065B4F86200801E09E0E16D097858
:1023400080F82010E06D401CE065B4F86200401E8B
:10235000A4F862000AE0FEF7B7F9A0EB0900A84272
:1023600002D3681C02D083E7002D81D0B4F862004C
:102370000028BED100224B4608212046009501F0DE
:102380001AF928B1D4F8840040F02000C4F8840081
:10239000204601F0B2F884F88180D4F8840084F8F3
:1023A000806008B1012006E7584604E72DE9FF4F99
:1023B00083B090F8801004461D4600209346109F7D
:1023C0000129019014D04FF0010A84F880A0FEF793
:1023D0007BF9804694F881006368002101282E462D
:1023E0004FF480020CD0934208D1A36833B903E0C4
:1023F000022007B0BDE8F08F042801D0022037E0AA
:10240000049898B3BBF1000F31D07DB394F88100EC
:10241000042802D0052084F8810089460846C4F8C3
:102420008410C4F864B0A4F86A50A4F86850049901
:10243000E165A4F86250A4F86050206760672068E6
:1024400041686FF30F01294341602068016841F042
:10245000010101606068904204D12068016841F484
:1024600000710160E0680F282BD846E0FFE70120EB
:1024700084F88010BDE72068416989070DD565B1F2
:10248000E16D09680162E06D001DE065B4F862006D
:10249000401EA4F86200B4F8625048F208022068B6
:1024A000416911420DD066B1006B616E0860606ECB
:1024B000001D6066B4F86A00401EA4F86A00B4F813
:1024C0006A6055EA0600D6D1FEF7FEF8A0EB0800D8
:1024D000B84202D3781C02D1DDE0002F5DD1204646
:1024E00001F00BF8D4F8842084F8809042F48070D6
:1024F000C4F8840084F881A0E5E007284AD8C7E042
:102500002068416989071BD5D5B1012D0BD9E16B35
:1025100049B1E16D09680162E06D001DE065B4F844
:102520006200801E08E0E16D09880184E06D801C76
:10253000E065B4F86200401EA4F86200B4F862508E
:102540002068416911F4604F1AD0CEB14169090485
:1025500009D5006B616E0860606E001D6066B4F89E
:102560006A00801E08E0008E616E0880606E801C2C
:102570006066B4F86A00401EA4F86A00B4F86A60A5
:10258000FEF7A2F8A0EB0800B84202D3781C01D0F5
:1025900004E01FB155EA0600B2D17CE0204600F00D
:1025A000ACFFD4F8842084F8809042F48071C4F8A1
:1025B000841084F881A086E02068416989072BD5C2
:1025C00055B3032D0CD9E16B40290BD9E16D096896
:1025D0000162E06D001DE065B4F86200001F17E0C5
:1025E000012D0BD9E16B49B1E16D09880184E06DE2
:1025F000801CE065B4F86200801E09E0E16D097896
:1026000080F82010E06D401CE065B4F86200401EC8
:10261000A4F86200B4F862502068416911F4604F78
:102620002BD056B34169090409D5006B616E08606F
:10263000606E001D6066B4F86A00001F19E0416911
:1026400001F4C041B1F5005F09D9008E616E0880C8
:10265000606E801C6066B4F86A00801E09E090F825
:102660003000616E0870606E401C6066B4F86A00ED
:10267000401EA4F86A00B4F86A60FEF725F8A0EBE3
:102680000800B84202D3781C02D028E7002FFCD003
:1026900055EA060090D100224346082120460097C3
:1026A00000F089FF28B1D4F8840040F02000C4F87D
:1026B0008400204600F021FF84F881A0D4F8840033
:1026C00084F8809008B1012093E6019891E6401EBD
:1026D000B0F1807F10B501D3012010BD4FF0E02490
:1026E00060610F21601702F03FF80020A061072110
:1026F000216110BD2DE9F04390F83C20012A42D021
:10270000012280F83C2051F80C4BDFF880804FF01C
:10271000000991E8680051E9022723F44073B1F8F9
:102720000CC03B43CF6923F480631343026823F456
:102730000063234323F4805343EA050323F4005347
:1027400043EA060323F4804343EA07030C3923F4E6
:102750007023424543EA0C4302D00D4CA2420CD1F7
:102760008D8C23F47006D1E9073446EA055121F037
:102770008071194321F000732343536480F83C9027
:102780000020BDE8F0830220FBE7000000000140CC
:1027900000040140F0B590F83C20012A38D01D4ECD
:1027A000012480F83C40022280F83D2002681A4D46
:1027B0005368B242D2F808C001D0AA4203D14F6890
:1027C00023F470033B430F6823F070031F435760EB
:1027D0000268B24210D0B2F1804F0DD00F4B9A4236
:1027E0000AD00F4B9A4207D00E4B9A4204D0AA420D
:1027F00002D00D4B9A4204D189682CF08003194312
:102800009160002180F83D4080F83C100846F0BD02
:102810000220F0BD0000014000040140000400401F
:1028200000080040000C00400018004010B50422D1
:102830000446006801F0ECFD2068094A416C41F44F
:1028400000414164206881681140062906D0B1F535
:10285000803F03D0016841F001010160002010BDFC
:102860000700010010B586B0044614216846FDF744
:1028700036FD0E492068884216D10D48016841F0A6
:102880001001016000680123022200F01000059091
:1028900000204FF4806100916946CDE90120CDE927
:1028A00003030448FDF7E0FD06B010BD0000014041
:1028B000E04402580010025870B5044690F83C00FD
:1028C0000D4601280ED0012684F83C60022084F8D1
:1028D0003D000C2A45D007DC5AB1042A1BD0082A37
:1028E00078D12CE0022070BD102A4ED0142A71D16C
:1028F0005DE0206801F09AFD2068816941F00801DF
:1029000081612068816921F00401816120682A6960
:102910008169114311E0206801F0DCFD20688169C4
:1029200041F4006181612068816921F480618161E5
:1029300020682969826942EA012181614AE02068B0
:1029400001F014FE2068C16941F00801C1612068EE
:10295000C16921F00401C16120682A69C16911437C
:1029600011E0206801F048FE2068C16941F400616F
:10297000C1612068C16921F48061C1612068296951
:10298000C26942EA0121C16124E0206801F06AFEC7
:102990002068416D41F0080141652068416D21F0DA
:1029A0000401416520682A69416D114311E02068E6
:1029B00001F08EFE2068416D41F4006141652068A0
:1029C000416D21F48061416520682969426D42EAC8
:1029D00001214165002084F83D6084F83C0070BD11
:1029E00010B5040003D094F83D0010B107E00120B9
:1029F00010BD002084F83C00204600F00DF80220B5
:102A000084F83D002068211D01F0A0FC012084F81D
:102A10003D00002010BD000008B50068064988424E
:102A200008D10648016841F001010160006800F02A
:102A30000100009008BD000000000140F044025871
:102A4000FEE7000001480068806B7047A006002484
:102A50002DE9F0410D4601462DED028BFFF7F2FF07
:102A60008842044631D0002D2FD001EE904A01EE6D
:102A7000101A00EE905AF8EE611AB8EE411AB8EE4C
:102A8000602A9FED140A71EEC10A30EE420A80EE10
:102A9000808AFDF719FE104F06460120FDF7D2FC93
:102AA000FDF712FE801B3A6800EE904A00EE100A15
:102AB000F8EE600AB8EE400A40EE080ABCEEE00A02
:102AC00010EE101A9163A842E7D3BDEC028BBDE86B
:102AD000F081000000000000A00600242DE9FF4F57
:102AE00085B01D460C2B90460C46894605980490EF
:102AF0006348DDF848B0068819D0082715FB07F0B1
:102B0000400002F0DBF903A982465E4800F06CFF4A
:102B10005C4802A900F070FFA8F120014FF000000E
:102B2000C9B20791BBF1000F014602D097E006271A
:102B3000E4E7DFF84CE149E00C2D0ED0079B524A48
:102B400002EB0312002321F0010B525C00931306E9
:102B50000AD573BAAEF800300CE0079A02EB4203D4
:102B60004A4A02EB8302EDE7BEF802C09CFA9CFCE5
:102B7000AEF800C007FB00F3401CBEF800C080B2F6
:102B80000AEB4303A84223F80BC000D30020029BAA
:102B90005206641CA4B2120E9C4202D3AEF800602E
:102BA00047E0A4EB0903AB4208D1059A4C46039BCE
:102BB000521C92B205929A42F0D205E0009B5B1C37
:102BC000DBB20093082BC2D3491CC9B2A942B3D3CC
:102BD00047E00C2D33D0079B2B4A02EB03124FF03A
:102BE000000B21F0010E525C130608D5244B07FBA5
:102BF00000FC1B880AEB4C0C5BBA2CF80E30401C16
:102C000080B2A84200D30020029B5206641CA4B2EA
:102C1000120E9C420BD2A4EB0903AB4216D1059ACB
:102C20004C46039B521C92B205929A4215D314480B
:102C30000680504601F0EEFF09B0BDE8F08F079A1C
:102C400002EB4203114A02EB8302C8E70BF10103D6
:102C500003F0FF0BBBF1080FC6D3491CC9B2A94250
:102C6000B7D30C2D09D008200499CDE900050548FB
:102C700053464A4600F020FED9E70620F4E700005C
:102C800000000024B0000024D4530090604F009056
:102C90002DE9F84F0D46044658194FF0000A111956
:102CA00087B21FFA81F8DDE90AB604F0FF0912E0E5
:102CB000444503D305EB0B004C4685B2BD420FD211
:102CC0005B4629462046CDF800A0FFF707FF04EB3E
:102CD0005B0084B2761C3278A2F120005E28E7D92E
:102CE000BDE8F88F2DE9F04F634987B0634801F0E4
:102CF0001FF9634D0322052160482B6898475E4900
:102D0000AA68091F5D489047DFF878810020D8F84D
:102D1000001088630246AC6A01465B4B5748A047E7
:102D2000FDF7D2FC594F4FF400564FF47A7B04461E
:102D30000DF108094FF0100A4CE00A20FDF782FB64
:102D4000FDF7C2FC001B58450AD8FDF7BDFC011B6E
:102D5000D8F8003064204143B1FBFBF0986339E0C0
:102D6000FDF7B2FC011B40F6B83081422BD8FDF7CD
:102D7000ABFC001B0A21A0F57A70B0FBF1F244A174
:102D800002A801F0DDFC1023A02201218220CDE960
:102D900000A9FFF77DFFFDF797FC001B4FF6FF71C1
:102DA000A0F57A704FF4FA6200EB800303205B0118
:102DB000B3FBF2F3CDE90001D5F838C04D22002174
:102DC0002E48E04706E0FDF77FFC011B40F6B830D7
:102DD000814209D831463846FDF75EFC0128ACD166
:102DE00002E00A20FDF72EFB31463846FDF754FC81
:102DF0000128F6D000204FF49671FFF729FE00213C
:102E000050200A46A023CDE90001AC6B1B48A04727
:102E100021A102A801F094FC04214C461023554640
:102E2000A0220846CDE900A9FFF732FFFDF73EFCDE
:102E30001DA1024602A801F083FC1023A022162146
:102E40000420CDE90054FFF723FF0B481AA10838EE
:102E5000426802A801F074FC1023A022282104205B
:102E6000CDE90054FFF714FFC8216420FFF7F0FDFF
:102E700007B0BDE8F08F000008000024B000002477
:102E800028000024A0060024C4590090000802581D
:102E9000253033640000000057654163742053748B
:102EA0007564696F0000000053544D333248377821
:102EB00078203078255800004C43442049443A207B
:102EC000307825580000000070B50A4E01220C46EB
:102ED000054608213046FDF7E4FB681EFDF7B2FA0F
:102EE000002230460821FDF7DCFB601EBDE8704083
:102EF000FDF7A8BA001002587FB50025009501958E
:102F000002950395FDF76AFC01248DF800401B2013
:102F10008DF808008DF80B504FF010468DF80A40E0
:102F200068468DF80150019603948DF80950FDF71D
:102F300027FC16208DF808008DF80F4005218DF82C
:102F40000B1068468DF80E408DF800408DF80D503E
:102F50008DF80A408DF8014001968DF80C508DF8DF
:102F60000950FDF70DFC0420FDF746FC7FBD000075
:102F7000F0B587B014216846FDF7B1F9264801681D
:102F800041F010010160016801F010010591016834
:102F900041F004010160016801F00401059101683C
:102FA00041F080010160016801F080010591016834
:102FB00041F00101016000680022184F082100F073
:102FC000010005903846FDF76CFB4FF4205638465B
:102FD00001223146FDF765FB0024694601250820E2
:102FE0000090CDE9015438460394FDF73DFA0221E3
:102FF000680300900A48CDE901416946FDF734FABB
:1030000003206946CDE90065CDE902403846FDF769
:103010002BFA07B0F0BD0000E0440258001002583F
:103020000008025830B587B014216846FDF757F9FB
:103030003F4800243D497F220594FF23E0E8021425
:1030400080E81C0004614461C4603948FEF740FD1B
:1030500008B1FDF7F2F936480121FEF7DEFC43F234
:10306000F22290422AD032480121FEF7DBFC1220E6
:103070008DF800008DF8014001222D4869468DF839
:10308000024003940494FEF7FBFD08B1FDF7D5F967
:1030900001208DF8140006218DF815108DF816000A
:1030A00020228DF8172005A902462148FEF77EFD53
:1030B000002801D0FDF7C1F907B030BD1D4C1E4DF1
:1030C000206800020CD5012228460821FDF7E9FA04
:1030D0000920FDF7B7F9002228460821FDF7E1FA9B
:1030E000206840021CD5012228460821FDF7D9FAA4
:1030F0000920FDF7A7F9002228460821FDF7D1FA9B
:103100006320FDF79FF9012228460821FDF7C9FA3F
:103110000920FDF797F9002228460821FDF7C1FA9A
:10312000206840F480302060C6E70000004000586E
:10313000F4050024D0440258001002582DE9F04153
:1031400015484FF480060021124D34010722C0E9D2
:103150000321E300C0E90514C0E9073141625A00C8
:1031600081624FF4C027C162C0E90D21C1630164CF
:1031700041648164C16401654165816580E8E00066
:10318000FEF716FE002803D0BDE8F041FDF755B963
:10319000BDE8F081003401401806002410B596B057
:1031A00000241C210BA8129413941494FDF797F893
:1031B0002C216846FDF793F823480B22214940F261
:1031C000E73380E81600C0E9033444618461FFF707
:1031D00007FC08B1FDF731F91B4812A912941394AA
:1031E0001494FFF7D7FA08B1FDF727F960200821FA
:1031F000CDE90B0414480422CDE90D410BA90F942D
:1032000010941194FFF758FB08B1FDF716F94FF42D
:1032100000500094019401030294CDE9044003940A
:103220000694CDE907410848694609940A94FFF7D6
:1032300061FA08B1FDF701F90348FFF713FB16B077
:1032400010BD000000000140A0060024FEE770470A
:10325000704700002DE9F047454D044689464FF080
:10326000000A2868C04380070AD0414E283E3068D3
:1032700020F080603060FDF727FA0746B04608E08E
:103280000120BDE8F08700BFFDF71EFAC01B022831
:1032900067D8D8F800000001F6D4206829684FF4F8
:1032A000FE0721F47C313E0241EA00302860207A9A
:1032B000A389B4F804C040022D4D2D495B1E227C29
:1032C000ACF1010C1035091DA0F5007080B2521E42
:1032D000CCF3080C07EA034340EA0C00184306EA63
:1032E0000262104328600868626920F0C000104341
:1032F00008600A68A06922F0200202430A60281DC3
:103300000A6822F010020A6002684FF6F873E46956
:103310009A4342EAC40202600868B9F1000F40F023
:1033200010020A6011D00868B9F1010F11D040F401
:1033300000100860D8F80000444640F08060C8F8EB
:103340000000FDF7C1F905460DE0086840F40020D3
:10335000EFE740F48010ECE7FDF7B6F9401B0228D8
:1033600001D903208DE720680001F5D5504688E794
:10337000284402582DE9F047454D044689464FF050
:10338000000A2868C04380070AD0414E283E3068B2
:1033900020F080503060FDF797F90746B04608E00E
:1033A0000120BDE8F08700BFFDF78EF9C01B0228A1
:1033B00067D8D8F800008000F6D4208829684FF438
:1033C000FE0721F07C713E0241EA00502860207A1D
:1033D000A389B4F804C040022D4D2D495B1E227C08
:1033E000ACF1010C1835091DA0F5007080B2521E19
:1033F000CCF3080C07EA034340EA0C00184306EA42
:103400000262104328600868626920F4406010433B
:1034100008600A68A06922F4007202430A60281D4D
:103420000A6822F480720A6002684FF6F873E46951
:103430009A4342EAC40202600868B9F1000F40F4FE
:1034400080720A6011D00868B9F1010F11D040F004
:1034500080700860D8F80000444640F08050C8F8FA
:103460000000FDF731F905460DE0086840F48000E2
:10347000EFE740F40000ECE7FDF726F9401B0228D7
:1034800001D903208DE720688000F5D5504688E7F4
:1034900028440258020900F00F0102EB820001EB00
:1034A0004000C0B270470146002002E00A39401CCB
:1034B000C9B20A29FAD2000741EA10607047000039
:1034C00070B504460068C168490614D44FF0FF3156
:1034D000C160FDF7F9F84FF47A76054607E000BFC2
:1034E000FDF7F2F8401BB04201D9032070BD2068FF
:1034F000C0684006F4D5002070BD10B5026840F2E7
:103500006F335169946944F00804946102689469C6
:1035100044F0100494610268146824F001041460FB
:10352000026814699C4314610268936823F4404361
:10353000936090F88120042A0CD08A060AD5D0F82E
:10354000842042F08002C0F884200268936943F02E
:103550002003936190F88120032A0CD04A060AD5F3
:10356000D0F8842042F00402C0F8842002689369F5
:1035700043F0400393618A050AD5D0F8842042F0D5
:103580000102C0F884200268936943F400739361D8
:10359000C9050AD5D0F8841041F00801C0F884109C
:1035A00001688A6942F480728A610021A0F8621081
:1035B000A0F86A1010BD2DE9F041984616460D4658
:1035C0000746069C09E0FDF77FF8A0EB0800A04243
:1035D00002D3601C01D00BE054B13868406935EA71
:1035E000000007D00020B042EDD00020BDE8F081FF
:1035F0000320FBE70120F6E700207047F8B50446FA
:103600006A46002003468DF8000004F120001321D3
:10361000064601F09EFC0A210546204600F0F4F91A
:1036200000236A462821304601F093FC05442046D9
:103630000A2100F0E9F900236A463621304601F0FC
:1036400088FC0949441909480122896800EBC10036
:10365000694600798DF80000304601F073FC0019CE
:1036600001D04FF0FF30F8BDE805002474000024BD
:10367000F8B504466A46002003468DF8000004F1C0
:1036800020001321064601F064FC0A21054620466D
:1036900000F0BAF900236A462921304601F059FCAE
:1036A000054420460A2100F0AFF900236A4636217E
:1036B000304601F04EFC0949441909480122896845
:1036C00000EBC100694600798DF80000304601F03A
:1036D00039FC001901D04FF0FF30F8BDE805002497
:1036E000740000242DE9FF4F93F8038096469C78E0
:1036F00085B0DF7A4FF0000993F80CC004EB082482
:10370000997ACA4693F80D80DD7C01EB07211F7D75
:103710004FEA0C4C9A7C0CEB086893F815C088446F
:10372000DE7D3F0402EB05221D7E987D07EB0C6CCD
:103730005F7E62442D04DFF8D0B000EB06201E79D6
:1037400005EB07655F792844360406EB0766DBF86E
:10375000047003EB08051346A7EB0E070090391A17
:10376000039134440A46DDE90501A4EB080600F0A4
:103770005FFC4FF0FF34E8BBDFF890800123DBF8FB
:10378000081001AA5F4618F8310036218DF80400B0
:1037900005982030834601F0DCFB58BBDDE90501CC
:1037A000039A00F0FBFB28BB687802228DF8080022
:1037B00002A928788DF80900584601F0C3FB08B12A
:1037C000A14604E0AD1C0AF1020AB245ECD3B96887
:1037D000012301AA08EBC100362100798DF804000D
:1037E000584601F0B6FB28B97868002200901146CF
:1037F0003B6800E003E0059800F01AFC00B1A14628
:1038000009B04846BDE8F08FE805002474000024A4
:103810002DE9F0411D46144B00248046069F4819AF
:103820004FF0FF361B68984219D8404600F0B6FBAF
:10383000A8B90E490020C7F30722FBB206E000BF7B
:1038400001EB400701F81020401C7B70A842F7D321
:1038500006496A0008F1200001F074FB00B134460B
:103860002046BDE8F0810000E8050024680300243C
:103870002DE9F05F8A460F491E468346DDF8289001
:1038800090190025174649684FF0FF38884208D83C
:10389000002409E03A194B465146584600F068FCAE
:1038A00008B1454602E0641CB442F3D32846BDE8A3
:1038B000F09F0000E80500242DE9FF5F1D481C462D
:1038C00091468B46DDE90E674FF0FF3A4FF0000856
:1038D00003688A199A4204D8416809EB07008842B4
:1038E00001D9D04622E000251EE000BF009809EB78
:1038F0000502594600F052FBA0B90F49002008E02C
:10390000227801F8102001EB40026378401CA41CCF
:103910005370B042F4D3009872000749203001F090
:1039200011FB00B1D0466D1CBD42DFD304B0404650
:10393000BDE8F09FE8050024E80000242DE9F84FD9
:10394000002699468A468346DDE90A7814463546BC
:103950000DE04B46224651465846CDF80080FFF711
:1039600057FF10B14FF0FF3603E0641C6D1CBD42E1
:10397000EFD33046BDE8F88F4FF0FF3070470000BE
:10398000024880680860002070470000E8050024B5
:10399000FEB51C46054600F001FB064605F1200079
:1039A0002E21054602AA01F0BFFA0644284601224C
:1039B00002A901F0C0FA064469460122284601F036
:1039C000BAFA06442846012201A901F0B4FA9DF88A
:1039D000042080199DF8001001EB0221216001D024
:1039E0004FF0FF30FEBD0000024800680860002074
:1039F00070470000E8050024024840680860002085
:103A000070470000E805002470B50546C0690E4601
:103A100080470446E8698047001BB042FAD3002083
:103A200070BD2DE9F74F5FEA000884B07DD0002417
:103A30008DF804400121234601AA08F120000290DC
:103A400001F087FA782105464046FFF7DDFF02982E
:103A5000012311218DF8044001AA01F07AFA002314
:103A6000B1210544029801AA01F073FA01268DF8EC
:103A700004600544029801A9324601F063FA2C273C
:103A80008DF80470012200EB0509029801A901F0EC
:103A900059FA2D258DF8045001228144029801A97C
:103AA00001F050FA01238DF80460B221814402989C
:103AB00001AA01F04EFA01228DF8047081440298A7
:103AC00001A901F03FFA01228DF8045081440298C7
:103AD00001A901F037FA01238DF80460B321814474
:103AE000029801AA01F035FA01228DF80470814490
:103AF000029801A901F026FA01228DF804508144B0
:103B0000029801A901F01EFA01228DF80460814497
:103B1000029801A901F016FA01228DF8047081447F
:103B2000029801A901F00EFA00E0C8E101228DF827
:103B3000045000EB090A029801A901F003FA0123DD
:103B40004FF00709B4218DF804908244029801AA2D
:103B500001F0FFF9A2228DF804200123C021824444
:103B6000029801AA01F0F5F901224FF0020B8244FC
:103B7000029801A98DF804B001F0E4F98244842090
:103B80008DF804000298012201A901F0DBF98244BA
:103B9000C5208DF8040002980123C12101AA01F07B
:103BA000D8F982440A208DF8040002980123C2212A
:103BB00001AA01F0CEF901228DF804408244029856
:103BC00001A901F0BFF982448A208DF8040002980F
:103BD0000123C32101AA01F0BCF982442A208DF8F7
:103BE00004000298012201A901F0ACF982448A2064
:103BF0008DF8040002980123C42101AA01F0A9F95B
:103C00008244EE208DF804000298012201A901F0FF
:103C100099F982440E208DF8040002980123C521F1
:103C200001AA01F096F9002321218244029801AAF9
:103C300001F08FF901233A218244029805AA01F08C
:103C400088F901238DF804B0E0218244029801AA8A
:103C500001F07FF982441C208DF8040002980122B3
:103C600001A901F06FF901228DF8049082440298B5
:103C700001A901F067F9824412208DF8040002982E
:103C8000012201A901F05EF9824437208DF8040079
:103C90000298012201A901F055F9824432208DF8E1
:103CA00004000298012201A901F04CF900EB0A017D
:103CB000029801224FF0290A009101A98DF804A071
:103CC00001F040F9009901228DF804500144029856
:103CD000009101A901F036F9009901228DF804A0A4
:103CE00001440298009101A901F02CF900990122E8
:103CF0000144009125208DF80400029801A901F0EB
:103D000021F900990122014400912B208DF8040033
:103D1000029801A901F016F90099012201440091CD
:103D200039208DF80400029801A901F00BF90099DF
:103D300001228DF8044001440298009101A901F08C
:103D400001F9009901228DF8046001440298009164
:103D500001A901F0F7F800990122461803208DF817
:103D60000400029801A901F0EDF8064410208DF836
:103D700004000298012201A901F0E4F8064403209E
:103D80008DF8040002980123E12101AA01F0E1F875
:103D900006441D208DF804000298012201A901F0BB
:103DA000D1F801228DF804900644029801A901F08F
:103DB000C9F8064406208DF804000298012201A9E2
:103DC00001F0C0F800EB060902982E268DF8046079
:103DD000012201A901F0B6F801228DF80470814496
:103DE000029801A901F0AEF801228DF804A000EBC1
:103DF0000907029801A901F0A5F801228DF80450E5
:103E00000744029801A901F09DF8C5190298012202
:103E10008DF8046001A901F095F801228DF8046085
:103E20000544029801A901F08DF837218DF804109E
:103E300001220544029801A901F084F83F218DF880
:103E4000041001220544029801A901F07BF8012227
:103E50008DF804400544029801A901F073F801228D
:103E60008DF804400544029801A901F06BF8012285
:103E70008DF804B00544029801A901F063F81021FF
:103E80008DF8041001220544029801A901F05AF8A6
:103E900001238DF8044013210544029801AA01F082
:103EA00058F8441902980123292101AA01F051F878
:103EB00004440699404600F02BF9001901D04FF058
:103EC000FF3007B0BDE8F08FF8B520300E46DA219C
:103ED0006A46074601F028F84FF0FF3408B1204643
:103EE000F8BD6D463846DB216A1C01F01DF800283C
:103EF000F5D1AA1C3846DC2101F016F80028EED1D5
:103F0000BDF801109DF8002049BA62F31F413160ED
:103F1000F8BD30B40C4603692046114630BC184742
:103F200030B40C4683692046114630BC1847000067
:103F30004FF0FF3210B5E0B10B6803604C68002B06
:103F400044600C890481CC68C4600C6904614C69CC
:103F500044618C698461C969C1610749416207494B
:103F60000162074981620749C0E90B1001D09847F7
:103F70000246104610BD0000133F0090B94100906A
:103F8000893F0090213F009030B40C4643692046A1
:103F9000114630BC18474FF0FF307047F8B5234B3F
:103FA0009B68012B03D8521C01F11A0501E04D1C3E
:103FB0001A322030144600236A462A21064600F0B1
:103FC000C8FF07466946280A8DF8000001223046DE
:103FD00000F0B8FF07446946012230468DF80050D2
:103FE00000F0B0FFC5196A46002330462B2100F0CF
:103FF000B0FF210A8DF800100544694601223046C1
:1040000000F0A0FF05446946012230468DF80040CB
:1040100000F098FF44196A46002330462C2100F036
:1040200098FF001901D04FF0FF30F8BDE8050024DB
:104030002DE9F8431E46354BDDF820909B68012B97
:1040400003D8551C01F11A0402E04C1C02F11A05B8
:104050006A462030002380462A2100F07AFF074676
:104060006946200A8DF800000122404600F06AFFF0
:1040700007446946012240468DF8004000F062FF87
:1040800034446946641EC619200A8DF800000122D6
:10409000404600F057FF06446946012240468DF82D
:1040A000004000F04FFF84196A46002340462B2150
:1040B00000F04FFF290A8DF80010044469460122E0
:1040C000404600F03FFF06196946012240468DF840
:1040D000005000F037FF05EB09046946641E85199E
:1040E000200A8DF800000122404600F02BFF054415
:1040F0006946012240468DF8004000F023FF401938
:1041000001D04FF0FF30BDE8F8830000E80500243F
:104110007CB5154A0C0005464FF050004FF0A00149
:104120001FD0012C1DD0C2E900109460506800908F
:104130002846136800221146FFF77AFF0B49012336
:1041400001AA01EBC4010446087936218DF8040068
:1041500005F1200000F0FDFE001901D04FF0FF3006
:104160007CBDC2E90001E0E7E805002474000024FA
:10417000F8B506460F481F0A4FF6FF7404EA0323FA
:104180004FF0FF353B43ADF80030036800248B420D
:104190000DD9406890420AD93046FFF7FFFE30B98A
:1041A0000222694606F1200000F0CCFE00B12C4648
:1041B0002046F8BDE8050024F0B4C66814460D4654
:1041C00021462846B446F0BC1A4660477047FCF7C3
:1041D00081BA0000F0B5CBB04C212FA8FCF77FF8D6
:1041E000202142A8FCF77BF8BC216846FCF777F851
:1041F0000220FCF753FB2A492A480A6822F00102F0
:104200000A6009680168002421F4404141F400413A
:104210000160016801F440414A9101688904FCD5BC
:10422000FCF766FBFCF74AFA1F4905220B680220DF
:104230000825C603012723F018030B602FAB389025
:10424000602183E8C400CDE93902CDE93B103D90FF
:104250003E902FA8CDE93F544194FDF769F908B18C
:10426000FCF7EBF842AA3F20032182E8330001214A
:10427000469442A8479448944994FCF78FFF08B1AC
:10428000FCF7DBF8094818940090811368462C91DC
:10429000FCF736FB002801D0FCF7CFF84BB0F0BD9F
:1042A0002C0400581848025870440258002040005E
:1042B000214A30B5214914680020204B44F4700491
:1042C000146010330A681E4D42F001020A60186043
:1042D0000A681A4B2A400A6018331C1D251D174A0C
:1042E000186028322060131D28601C1D251D1060D9
:1042F0002A1D1860131D20601C1D2860251D1060DC
:104300001860206028600A680C4B0E4C22F4802252
:1043100060330A60186020686FF30F00B0F1005F2F
:1043200003D209490120C1F808014FF00060024999
:104330008039086030BD000088ED00E0004402587C
:104340007FEDF6EA0010005C008000512DE9F04797
:10435000274B4FF0804A274D02689842264E274F40
:10436000274C09D0504507D0A84205D0B04203D011
:10437000B84201D0A04205D1D1F804C022F07002A9
:104380004CEA0202DFF87CC0DFF87C809842DFF85C
:104390007C900FD050450DD0A8420BD0B04209D030
:1043A000B84207D0A04205D0604503D0404501D0B7
:1043B000484503D1CD6822F440722A434D6922F06A
:1043C00080022A43026098428A68C2620A68826256
:1043D00007D0A04205D0604503D0404501D04845F4
:1043E00001D10969016301214161BDE8F087000045
:1043F000000001400004004000080040000C0040A4
:1044000000040140004001400044014000480140D8
:1044100010B5046A042301F01F018B409C43046221
:104420008A40016A1143016210BD00002DE9F04F7E
:10443000026ADFF88880DFF8889022F00102DFF856
:1044400084A0DFF884B0214F0262DFF884C0066ADE
:104450004268836926F002060D68B8428C6803EA58
:104460000C0323F0030344EA060445EA030507D0DE
:10447000404505D0484503D0504501D0584505D1A9
:10448000CB6824F00804234323F00404B84207D087
:10449000404505D0484503D0504501D0584505D189
:1044A00022F44076D1E9053233431A4342608561F4
:1044B000496841630462BDE8F08F000000040140D8
:1044C000004001400044014000480140000001401C
:1044D0008FFFFEFFF0B5026A1E4E1F4C22F0100245
:1044E000DFF878E00262056A4368826925F02005FA
:1044F000D1F808C0A0420F6802EA060222F4407216
:1045000045EA0C1542EA072201D0704506D1CE6873
:1045100025F0800545EA061525F04005A0420AD0A1
:10452000704508D00E4CA04205D00E4CA04202D0DF
:104530000D4CA04207D1D1E9054623F4406343EA7C
:10454000840343EA860343608261496881630562AC
:10455000F0BD0000FF8FFFFE00000140000401409D
:10456000004001400044014000480140F0B5026AAB
:104570001C4D1D4E22F48072A8420262026A4368FA
:10458000C76922F40072D1F808C00C6827F07307DD
:1045900042EA0C2244EA070401D0B04206D1CF68B7
:1045A00022F4006242EA072222F48062A8420AD082
:1045B000B04208D00D4DA84205D00D4DA84202D002
:1045C0000C4DA84207D1D1E9055623F4405343EAE4
:1045D000051343EA06134360C4614968C16302627C
:1045E000F0BD000000000140000401400040014017
:1045F000004401400048014070B5026A144B22F4A7
:10460000805202629842036A4268C46923F40053EC
:104610008E680D6824F4E64443EA063344EA052430
:104620000BD00C4DA84208D00B4DA84205D00B4D25
:10463000A84202D00A4DA84204D14D6922F480421A
:1046400042EA85124260C46149680164036270BD38
:1046500000000140000401400040014000440140CE
:1046600000480140F0B5026A22F480320262134F22
:10467000056A4268446D25F400350E89B8420B681E
:1046800024F0700445EA064543EA04030BD00C4CC1
:10469000A04208D00B4CA04205D00B4CA04202D047
:1046A0000A4CA04204D14C6922F4803242EA04222E
:1046B00042604365496881650562F0BD00000140C4
:1046C0000004014000400140004401400048014016
:1046D000F0B5026A22F480120262134F046A426843
:1046E000436D24F400140E89B8420D6823F4E043AE
:1046F00044EA065443EA05230BD00C4DA84208D0E7
:104700000B4DA84205D00B4DA84202D00A4DA8423D
:1047100004D14D6922F4003242EA852242604365A9
:104720004968C1650462F0BD000001400004014019
:10473000004001400044014000480140FEE7000005
:104740000FB4084B10B504A902AA039800F02CF886
:10475000044602A9002000F058FA204610BC5DF87B
:1047600014FB00000B4C0090090700284FEA116170
:1047700004DB00F1E02080F80014704700F00F0027
:1047800000F1E02080F8141D704702E008C8121FF5
:1047900008C1002AFAD170477047002001E001C12A
:1047A000121F002AFBD170472DE9FF4F8DB00F4635
:1047B0000546002606E025280BD0DDE90F129047BC
:1047C0006D1C761C28780028F5D111B03046BDE864
:1047D000F08F0024A246A1460122EC4900E00443E8
:1047E00015F8013F203B02FA03F00842F7D1287880
:1047F0002A2810D06FF02F022878A0F13001092963
:1048000014D80AEB8A0102EB410144F0020400EBE8
:10481000010A6D1CF0E701CF5FEA000A03D544F4FA
:104820000054CAF1000A44F002046D1C28782E28B6
:1048300017D115F8010F44F004042A280ED06FF0A8
:104840002F022878A0F1300109290AD809EB890143
:1048500002EB410100EB01096D1CF2E757F8049BE4
:104860006D1C28786C280FD006DC4C2817D06828DF
:104870000DD06A2814D104E0742810D07A280FD102
:104880000DE044F400140AE044F4801401E044F420
:1048900040146978814202D104F580146D1C6D1CAE
:1048A0002A786E2A1FD00CDC632A31D004DC002A5F
:1048B0008BD0582A11D1A3E0642A68D0692A0CD180
:1048C00065E0732A2ED004DC6F2A73D0702A04D1DD
:1048D0009BE0752A6FD0782A6ED01046DDE90F1262
:1048E0009047761C50E1C4F30250022806D00328FA
:1048F00009D0042801CF09D0066045E101CFF117A6
:10490000C0E9006140E101CF06803DE106703BE176
:1049100017F8040B8DF8000000208DF80100EB461D
:10492000012003E057F804BB4FF0FF3061074FF060
:10493000000102D40DE008F10101884649450FDA73
:104940008045F8DB1BF808100029F4D108E008F1D5
:10495000010188468142FADB1BF808100029F6D1D4
:10496000DDE90F23AAEB08008146214600F036F965
:10497000304400EB080604E0DDE90F121BF8010BE0
:104980009047B8F10108F7D221464846F7E00A21DE
:10499000C4F302534FF0000B0891022B04D001CF57
:1049A000C117032B09D00AE0FF1D27F00707F7E81E
:1049B000020108E032E01FE020E000B2C117042B42
:1049C00001D140B2C117031E71F1000307DA4FF0A5
:1049D000000CD0EB0C006CEB01012D2302E0230551
:1049E00004D52B238DF82430012303E0E30701D005
:1049F0002023F7E7984658E00A2110E010210EE046
:104A000010204FF0000B08900CE010214FF0000B2D
:104A100044F004044FF00809089103E008214FF026
:104A2000000B0891C4F30253022B04D001CF0021E4
:104A3000032B06D006E0FF1D27F00707F7E8020169
:104A400003E080B2042B00D1C0B24FF0000823076E
:104A50002BD5702A07D0DDF820C08CF0100C5CEA52
:104A60000B0C05D00EE040238DF82430012308E024
:104A700050EA010306D030238DF824308DF825202C
:104A800002239846DDF820C08CF0080C5CEA0B0C81
:104A90000BD150EA010301D1630706D530238DF80D
:104AA00024304FF00108A9F10109582A04D038A296
:104AB0000B9208AA0A920BE03AA2F9E75B46089A21
:104AC000FBF718FC0B9B9B5C0A9A521E0A92137010
:104AD00050EA0102F2D10A98ADEB000000F1200B80
:104AE000600702D524F4803401E04FF00109D94574
:104AF00002DDA9EB0B0000E0002000EB0B014144BC
:104B00000890AAEB010AE00306D4DDE90F23214651
:104B1000504600F063F806444FF0000908E009A988
:104B200011F80900DDE90F12904709F10109761C1F
:104B3000C145F4DBE0030CD5DDE90F2321465046E7
:104B400000F04CF8064404E0DDE90F1230209047F5
:104B5000761C0899481E08900029F5DC08E00A98A0
:104B60000A990078491C0A91DDE90F129047761CDA
:104B7000BBF10001ABF1010BF1DC21465046DDE950
:104B80000F2300F019F806446D1C1BE609280100EC
:104B900030313233343536373839616263646566B3
:104BA0000000000030313233343536373839414275
:104BB00043444546000000002DE9F041044600252D
:104BC0001E461746880404D405E039462020B04725
:104BD0006D1C641EF9D52846BDE8F0812DE9F04131
:104BE000044600251E469046C80301D5302700E044
:104BF0002027880404D505E041463846B0476D1C9F
:104C0000641EF9D52846BDE8F0810A68531C0B6084
:104C10001070704710B5002821D0114B0022001FE2
:104C2000196803E0814203D80A4649680029F9D18E
:104C300052B11368841A9C4204D100681844106071
:104C4000104602E0506000E0186039B102680B1AAB
:104C5000934203D10B681A4402604968416010BD59
:104C6000A8000024FBF730BD10B503480024042140
:104C7000FDF7DCFD204610BDA00600242DE9F34120
:104C8000164E4FF400650022884629463046FBF751
:104C900008FDAC00304600222146FBF702FD10481B
:104CA000642301226946FDF76BFA0122074621467B
:104CB0003046FBF7F6FC0A4801224FF4FA734146EE
:104CC000FDF74AF9C419294601223046FBF7E9FCF1
:104CD000604294FBF0F0BDE8FC8100000010025837
:104CE000180600242DE9F0410D4E4FF40065002216
:104CF0000C46074629463046FBF7D3FCA2B20948CA
:104D00004FF4FA733946FDF727F901220446294684
:104D10003046FBF7C6FC604294FBF0F0BDE8F08142
:104D200000100258180600242DE9F0410D4E4FF4F2
:104D3000006500220C46074629463046FBF7B1FCC9
:104D4000A2B2094864233946FDF71AFA0122044643
:104D500029463046FBF7A5FC604294FBF0F0BDE825
:104D6000F081000000100258180600242DE9F743D6
:104D7000174E4FF4006815468946002241463046DA
:104D8000FBF78FFC4FF40057304600223946FBF703
:104D900088FC1048642301226946FDF7F1F90122DD
:104DA000044639463046FBF77CFC3DB1AAB20948BF
:104DB0004FF4FA734946FDF7E3F9044441460122F2
:104DC0003046FBF76EFC604294FBF0F0BDE8FE83DA
:104DD00000100258180600248EB027494FF01040EA
:104DE0000860FEF789F8FBF7E9FAFBF77BFCFFF7B1
:104DF000F1F9FEF7BDF8FEF715F9FEF79FF9FEF79A
:104E0000CDF9FDF76FFF102502AC4FF4FA761B4881
:104E100000220CAF07A9FCF72FFE184800223946E4
:104E2000FCF706FE9DF81E009DF81D309DF81C2025
:104E3000C00701D012A100E017A102A8FFF780FC73
:104E4000042110230846A022CDE90054FDF720FFDD
:104E5000FBF73AFC16A1024602A8FFF771FC1023EB
:104E6000A0223A210420CDE90054FDF711FF0320D0
:104E70003146FEF729F8CAE708ED00E0F405002402
:104E800057654163742053747564696F202530320F
:104E9000643A2530326400005765416374205374CE
:104EA0007564696F2025303264202530326400003B
:104EB0005469636B3A202564206D7300F0B50B30A4
:104EC000154D20F007010024144A0FE003688B42BF
:104ED0000BD38B4205D95E1A43184768C3E90067B4
:104EE00000E04368136002C004E0021D106800285F
:104EF000ECD12046002802D1286808B10020F0BD7E
:104F0000064A07481060074A121A22F00702C0E951
:104F1000002401202860D7E7AC000024A80000246A
:104F2000E4060024E008002430B444680369A44681
:104F300030BC1846604730B4D0E90343A44630BCC7
:104F40001846604730B484680369A44630BC1846EC
:104F5000604730B4046905682046AC4630BC604701
:104F60000000000000000000000000000000000041
:104F70003F40000000000000000030004000300012
:104F80004000000009000BC03D000BC03D000900BF
:104F900018C024407FE0224031800000180024C067
:104FA0001B000D803240018003801C4027401C8084
:104FB00007400040100060000000000000000000FA
:104FC0000000000000001F80204040200000402022
:104FD00020401F8000000000090006001F8006001E
:104FE00009000000040004003F80040004000000E9
:104FF0000010006000000000000000000400040039
:105000000400040004000000000000400000000054
:1050100000000000002001C0060038004000000031
:105020001F802040204020401F80000000001040D2
:105030003FC000400000000018C021402240244032
:105040001840000010802040244024401B800000B5
:1050500002000D0011003FC0014000003C802440D0
:1050600024402440238000001F80244024403440FA
:10507000038000003000200027C03800200000001E
:105080001B802440244024401B8000001C0022C0C0
:10509000224022401F800000000000000840000065
:1050A000000000000000000004600000000000009C
:1050B000000004000A00110020804040090009009F
:1050C0000900090009000000000040402080110094
:1050D0000A000400180020002340240018000000EB
:1050E0001F802040274029401F400000004007C08B
:1050F00039000F0001C0004020403FC02440244040
:105100001B8000001F802040204020403080000095
:1051100020403FC0204020401F80000020403FC072
:1051200024402E4030C0000020403FC024402E00CC
:10513000300000000F001080204022403380020029
:1051400020403FC0040004003FC0204020402040D9
:105150003FC02040204000000060202020203FC0B1
:105160002000200020403FC024400B0030C02040E1
:1051700020403FC020400040004000C03FC03C00F5
:1051800003C03C003FC0000020403FC00C40230053
:105190003FC020001F802040204020401F80000092
:1051A00020403FC024402400180000001F80214000
:1051B000214020E01FA0000020403FC024402600E6
:1051C00019C0004018C02440244022403180000013
:1051D000300020403FC020403000000020003F80D1
:1051E000004000403F80200020003E0001C007003A
:1051F00038002000380007C03C0007C0380000001D
:10520000204039C0060039C020400000200038404E
:1052100007C0384020000000304021C02640384000
:1052200020C00000000000007FE04020402000007F
:10523000000070000C0003800040000000004020CF
:1052400040207FE00000000000002000400020001F
:1052500000000000001000100010001000100010EE
:10526000000000004000000000000000000002807C
:105270000540054003C0004020003FC004400440FA
:10528000038000000000038004400440064000004A
:1052900000000380044024403FC000400000038021
:1052A0000540054003400000000004401FC02440AA
:1052B00024402000000002E0055005500650042064
:1052C00020403FC00440040003C0004000000440F0
:1052D00027C000400000000000100010041027E06C
:1052E0000000000020403FC00140070004C004400F
:1052F000204020403FC000400040000007C00400A4
:1053000007C0040003C00000044007C004400400BC
:1053100003C00040000003800440044003800000FC
:10532000041007F0045004400380000000000380D4
:105330000440045007F00010044007C0024004007D
:1053400004000000000006400540054004C00000C5
:10535000000004001F80044000400000040007809B
:105360000040044007C000400400070004C0018062
:1053700006000400060001C0070001C0060000008E
:10538000044006C0010006C00440000004100710DD
:1053900004E00180060004000000044005C006404F
:1053A000044000000000000004007BE040200000FA
:1053B000000000000000FFF000000000000040209E
:1053C0007BE004000000000040008000400020005E
:1053D000200040000000000000000000000000006D
:1053E000000000000000000000001FCC000C0000C6
:1053F00000000000000008003000600008003000DD
:1054000060000000022003FC1E20022003FC1E207E
:105410000220000000000E1811043FFF10840C78D9
:10542000000000000F0010840F3800C007781884B7
:105430000078000000780F8410C411240E9800E456
:1054400000840008080068007000000000000000F0
:105450000000000000000000000007E01818200411
:1054600040020000000040022004181807E000007D
:10547000000000000240024001800FF00180024065
:10548000024000000080008000800FF80080008053
:10549000008000000001000D000E00000000000070
:1054A000000000000000008000800080008000807C
:1054B000008000800000000C000C000000000000D4
:1054C00000000000000000060018006001800600D7
:1054D00018002000000007F0080810041004080855
:1054E00007F000000000080408041FFC000400048A
:1054F0000000000000000E0C101410241044118451
:105500000E0C000000000C18100411041104128885
:105510000C700000000000E00320042408241FFC9D
:105520000024000000001F9810841104110410884A
:1055300010700000000007F008881104110418889A
:105540000070000000001C00100010FC13001C0084
:105550001000000000000E38114410841084114423
:105560000E38000000000700088C10441044088822
:1055700007F00000000000000000030C030C000016
:105580000000000000000000000101060000000013
:105590000000000000000080014002200410080804
:1055A000100400000220022002200220022002201B
:1055B000022000000000100408080410022001402E
:1055C0000080000000000E001200100C106C108013
:1055D0000F00000003E00C1813E4142417C408287B
:1055E00007D000000004003C03C41C40074000E456
:1055F000001C000410041FFC1104110411040E8887
:105600000070000003E00C181004100410041008CF
:105610001C10000010041FFC1004100410040808E3
:1056200007F0000010041FFC1104110417C410043B
:105630000818000010041FFC1104110017C010000E
:105640000800000003E00C181004100410441C783B
:105650000040000010041FFC1084008000801084B3
:105660001FFC10040000100410041FFC10041004A0
:105670000000000000030001100110011FFE1000D7
:105680001000000010041FFC110403801464181C97
:105690001004000010041FFC1004000400040004A7
:1056A000000C000010041FFC1F0000FC1F001FFC6A
:1056B0001004000010041FFC0C04030000E010188C
:1056C0001FFC100007F0080810041004100408085C
:1056D00007F0000010041FFC108410801080108060
:1056E0000F00000007F0081810241024101C080AEE
:1056F00007F2000010041FFC1104110011C011304A
:105700000E0C000400000E1C1104108410841044C0
:105710001C3800001800100010041FFC10041000BA
:105720001800000010001FF810040004000410040A
:105730001FF8100010001E0011E0001C0070138004
:105740001C0010001FC0103C00E01F0000E0103CD7
:105750001FC000001004180C163401C001C016341C
:10576000180C100410001C00130400FC13041C008F
:10577000100000000804101C1064108413041C04A2
:10578000101800000000000000007FFE40024002F0
:1057900040020000000030000C0003800060001C8C
:1057A0000003000000004002400240027FFE0000B3
:1057B0000000000000000000200040004000400009
:1057C00020000000000100010001000100010001B3
:1057D0000001000100004000400020000000000027
:1057E000000000000000009801240144014401442D
:1057F00000FC000410001FFC008801040104008864
:105800000070000000000070008801040104010421
:1058100000880000000000700088010401041108E5
:105820001FFC0004000000F801440144014401444D
:1058300000C800000000010401040FFC1104110461
:1058400011001800000000D601290129012901C911
:105850000106000010041FFC008401000100010487
:1058600000FC000400000104190419FC00040004F9
:10587000000000000000000300010101190119FEF1
:105880000000000010041FFC0024004001B4010CC3
:10589000010400000000100410041FFC00040004B8
:1058A00000000000010401FC0104010001FC0104EE
:1058B000010000FC010401FC00840100010001045E
:1058C00000FC0004000000F80104010401040104CC
:1058D00000F80000010101FF0085010401040088B7
:1058E0000070000000000070008801040104010540
:1058F00001FF00010104010401FC00840104010016
:1059000001800000000000CC0124012401240124B6
:105910000198000000000100010007F801040104E3
:1059200000000000010001F8000400040004010868
:1059300001FC0004010001800170000C00100160F6
:105940000180010001F0010C003001C00030010CA9
:1059500001F0010000000104018C00740170018C51
:1059600001040000010101810171000E00180160B5
:105970000180010000000184010C01340144018414
:10598000010C0000000000000000000001003EFCCF
:10599000400240020000000000000000FFFF000085
:1059A000000000000000400240023EFC0100000038
:1059B0000000000000006000800080004000400007
:1059C00020002000424D4864000000000000460016
:1059D000000038000000A00000005000000001009E
:1059E00010000300000002640000120B0000120B04
:1059F0000000000000000000000000F80000E007C8
:105A000000001F0000000000000000000000000077
:105A10000000000000000000000000000000000086
:105A20000000000000000000000000000000000076
:105A30000000000000000000000000000000000066
:105A40000000000000000000000000000000000056
:1069700000000000000008422D6B2D6B2D6B2421C0
:106980000000000000000000000000000000000007
:1069900000000000000000000000000000000000F7
:1069A00000000000000000000000000000000000E7
:1069B00000000000000000000000000000000000D7
:1069C00000000000000000000000000000000000C7
:1069D00000000000000000000000000000000000B7
:1069E00000000000000000000000000000000000A7
:1069F0000000000000000000000000000000000097
:106A00000000000000000000000000000000000086
:106A10000000000000000000000000000000000076
:106A20000000000000000000000000000000000066
:106A30000000000000000000000000000000000056
:106A40000000000000000000000000000000000046
:106A50000000000000000000000000000000000036
:106A60000000000000000000000000000000000026
:106A70000000000000000000000000000000000016
:106A80000000000000000000000000000000000006
:106A900000000000000000000000000000000000F6
:106AA00000000000000000000000000000000000E6
:106AB0000842D7BDBEF7BEF79AD69AD6BEF7FFFFFB
:106AC0005CE7D7BDAA5200000000000000000000F3
:106AD0000000000000003084FBDEFFFFFFFFBEF778
:106AE000D7BD2D6B00000000000000000000084230
:106AF000D7BD5CE7FFFFFFFFBEF738C63084242117
:106B00000000AA529AD69AD69AD69AD69AD69AD6E9
:106B10009AD60000000000000000000000002421C0
:106B200014A5FBDEFFFFFFFF5CE714A52421000096
:106B300075AD9AD69AD69AD69AD69AD69AD63084DF
:106B40000000000030849AD69AD69AD69AD69AD661
:106B50009AD675AD000000000000000000000000A3
:106B60000000CF7B38C65CE7FFFFFFFFFBDED7BD31
:106B7000AA52000000000000000000000000000019
:106B80000000000000000000000000000000000005
:106B900000000000000000000000000000000000F5
:106BA00000000000000000000000000000000000E5
:106BB00000000000000000000000000000000000D5
:106BC00000000000000000000000000000000000C5
:106BD00000000000000000000000000000000000B5
:106BE000000000000000000000000000242175AD3E
:106BF000FFFFD7BDAA520000000000002421FFFFC4
:106C0000FFFFFFFFFFFF38C6242100000000000047
:106C100000000000D7BDFFFFFFFFFFFFFFFFFFFFEA
:106C2000FFFFFFFF75AD000000000000CF7BFFFFFE
:106C3000FFFFFFFFFFFFFFFFFFFFFFFFFFFFBEF7AD
:106C400014A52D6BFFFFFFFFFFFFFFFFFFFFFFFFFF
:106C5000FFFF000000000000000000003084BEF7CD
:106C6000FFFFFFFFFFFFFBDE14A5FBDE5CE7AA5280
:106C70009AD6FFFFFFFFFFFFFFFFFFFFFFFF14A5F7
:106C80000000000014A5FFFFFFFFFFFFFFFFFFFF55
:106C9000FFFF9AD60000000000000000000008423C
:106CA0009AD6FFFFFFFFFFFF14A500000842B29431
:106CB0005CE738C62421000000000000000000004E
:106CC00000000000000000000000000000000000C4
:106CD00000000000000000000000000000000000B4
:106CE00000000000000000000000000000000000A4
:106CF0000000000000000000000000000000000094
:106D00000000000000000000000000000000000083
:106D10000000000000000000000000000000000073
:106D2000000000000000000000002421FBDEFBDE6C
:106D3000AA52000000000000000000002D6BFFFFC1
:106D4000FFFFFFFFFFFFFFFFFBDE00000000000072
:106D500000003084FFFFFFFFFFFFFFFFFFFFFFFF8B
:106D6000B2940842FBDEB29400002421BEF7FFFF7C
:106D7000FFFFFFFFFFFFFFFFBEF72421000030846D
:106D80005CE7BEF7FFFFFFFFFFFFFFFFFFFFFFFF17
:106D9000FFFF00000000000000003084FFFFFFFF45
:106DA000FFFFFFFFFFFF2D6B00000000B294BEF756
:106DB0005CE7FFFFFFFFFFFFFFFFFFFFFFFF14A5E3
:106DC0000000000014A5FFFFFFFFFFFFFFFFFFFF14
:106DD000FFFF9AD60000000000000000AA52BEF794
:106DE000FFFFFFFFFFFFFFFF14A5000000000000F2
:106DF000000014A5FBDE24210000000000000000BC
:106E00000000000000000000000000000000000082
:106E10000000000000000000000000000000000072
:106E20000000000000000000000000000000000062
:106E30000000000000000000000000000000000052
:106E40000000000000000000000000000000000042
:106E50000000000000000000000000000000000032
:106E600000000000000000000000084238C6242195
:106E7000000000000000000000000842BEF7FFFF15
:106E8000FFFFFFFFFFFFFFFFFFFF14A50000000053
:106E900000009AD6FFFFFFFFFFFFFFFFFFFFFFFF8E
:106EA0002D6B000008425CE72421CF7BFFFFFFFF32
:106EB000FFFFFFFFFFFFFFFF9AD60000000000006A
:106EC000000075ADFFFFFFFFFFFFFFFFFFFFFFFFAC
:106ED000FFFF0000000000002D6BFFFFFFFFFFFF22
:106EE000FFFFFFFFFFFF2D6B00000000000030845C
:106EF000FFFFFFFFFFFFFFFFFFFFFFFFFFFF14A5E7
:106F00000000000014A5FFFFFFFFFFFFFFFFFFFFD2
:106F1000FFFF9AD60000000000002421BEF7FFFF0B
:106F2000FFFFFFFFFFFFFFFF14A5000000000000B0
:106F300000000000B2949AD600000000000000009B
:106F40000000000000000000000000000000000041
:106F50000000000000000000000000000000000031
:106F60000000000000000000000000000000000021
:106F70000000000000000000000000000000000011
:106F80000000000000000000000000000000000001
:106F900000000000000000000000000000000000F1
:106FA00000000000000000000000000000000000E1
:106FB00000000000000000002421FBDEFFFFFFFFB7
:106FC000FFFFFFFFFFFFFFFFFFFF5CE70000000088
:106FD0000000FFFFFFFFFFFFFFFFFFFFFFFFFFFFBF
:106FE0002D6B00000000D7BD2D6B14A5FFFFFFFF28
:106FF000FFFFFFFFFFFFFFFF9AD600000000000029
:1070000000002D6BFFFFFFFFFFFFFFFFFFFFFFFFF4
:10701000FFFF0000000000005CE7FFFFFFFFFFFF35
:10702000FFFFFFFFFFFF2D6B0000000000000000CE
:107030009AD6FFFFFFFFFFFFFFFFFFFFFFFF14A533
:107040000000000014A5FFFFFFFFFFFFFFFFFFFF91
:10705000FFFF9AD6000000000000D7BDFFFFFFFF32
:10706000FFFFFFFFFFFFFFFF14A50000000000006F
:107070000000000000009AD63084000000000000EC
:107080000000000000000000000000000000000000
:1070900000000000000000000000000000000000F0
:1070A00000000000000000000000000000000000E0
:1070B00000000000000000000000000000000000D0
:1070C00000000000000000000000000000000000C0
:1070D00000000000000000000000000000000000B0
:1070E00000000000000000000000000000000000A0
:1070F0000000000000002421FBDEFFFFFFFFFFFF78
:10710000FFFFFFFFFFFFFFFFFFFFFFFF000000008B
:107110000000FFFFFFFFFFFFFFFFFFFFFFFFFFFF7D
:107120002D6B000000000000000014A5FFFFFFFF12
:10713000FFFFFFFFFFFFFFFF9AD6000000000000E7
:1071400000002D6BFFFFFFFFFFFFFFFFFFFFFFFFB3
:10715000FFFF00000000CF7BFFFFFFFFFFFFFFFFEF
:10716000FFFFFFFFFFFF2D6B00000000000000008D
:107170009AD6FFFFFFFFFFFFFFFFFFFFFFFF14A5F2
:107180000000000014A5FFFFFFFFFFFFFFFFFFFF50
:10719000FFFF9AD6000000002421FFFFFFFFFFFF42
:1071A000FFFFFFFFFFFFFFFF14A50000000000002E
:1071B0000000000000002D6B9AD6000000000000C7
:1071C00000000000000000000000000000000000BF
:1071D00000000000000000000000000000000000AF
:1071E000000000000000000000000000000000009F
:1071F000000000000000000000000000000000008F
:10720000000000000000000000000000000000007E
:10721000000000000000000000000000000000006E
:10722000000000000000000000000000000000005E
:10723000000000002421FBDEFFFFFFFFFFFFFFFF38
:10724000FFFFFFFFFFFFFFFFFFFFBEF70000000093
:107250000000FFFFFFFFFFFFFFFFFFFFFFFFFFFF3C
:107260002D6B000000000000000014A5FFFFFFFFD1
:10727000FFFFFFFFFFFFFFFF9AD6000000000000A6
:1072800000002D6BFFFFFFFFFFFFFFFFFFFFFFFF72
:10729000FFFF0000000075ADFFFFFFFFFFFFFFFFD6
:1072A000FFFFFFFFFFFF2D6B00000000000000004C
:1072B0009AD6FFFFFFFFFFFFFFFFFFFFFFFF14A5B1
:1072C0000000000014A5FFFFFFFFFFFFFFFFFFFF0F
:1072D000FFFF9AD600000000CF7BFFFFFFFFFFFFFC
:1072E000FFFFFFFFFFFFFFFF14A5000000000000ED
:1072F0000000000000000000BEF724210000000094
:10730000000000000000000000000000000000007D
:10731000000000000000000000000000000000006D
:10732000000000000000000000000000000000005D
:10733000000000000000000000000000000000004D
:10734000000000000000000000000000000000003D
:10735000000000000000000000000000000000002D
:10736000000000000000000000000000000000001D
:1073700000002421FBDEFFFFFFFFFFFFFFFFFFFFF9
:10738000FFFFFFFFFFFFFFFFFFFFD7BD0000000073
:107390000000FFFFFFFFFFFFFFFFFFFFFFFFFFFFFB
:1073A0002D6B000000000000000014A5FFFFFFFF90
:1073B000FFFFFFFFFFFFFFFF9AD600000000000065
:1073C00000002D6BFFFFFFFFFFFFFFFFFFFFFFFF31
:1073D000FFFF000000009AD6FFFFFFFFFFFFFFFF47
:1073E000FFFFFFFFFFFF2D6B00000000000000000B
:1073F0009AD6FFFFFFFFFFFFFFFFFFFFFFFF14A570
:107400000000000014A5FFFFFFFFFFFFFFFFFFFFCD
:10741000FFFF9AD60000000014A5FFFFFFFFFFFF4B
:10742000FFFFFFFFFFFFFFFF14A5000000000000AB
:1074300000000000000000009AD62D6B0000000044
:10744000000000000000000000000000000000003C
:10745000000000000000000000000000000000002C
:10746000000000000000000000000000000000001C
:10747000000000000000000000000000000000000C
:1074800000000000000000000000000000000000FC
:1074900000000000000000000000000000000000EC
:1074A00000000000000000000000000000000000DC
:1074B0000000D7BDFFFFFFFFFFFFFFFFFFFFFFFF44
:1074C000FFFFFFFFFFFFFFFFFFFF0842000000007C
:1074D0000000FFFFFFFFFFFFFFFFFFFFFFFFFFFFBA
:1074E0002D6B000000000000000014A5FFFFFFFF4F
:1074F000FFFFFFFFFFFFFFFF9AD600000000000024
:1075000000002D6BFFFFFFFFFFFFFFFFFFFFFFFFEF
:10751000FFFF000000009AD6FFFFFFFFFFFFFFFF05
:10752000FFFFFFFFFFFF2D6B0000000000000000C9
:107530009AD6FFFFFFFFFFFFFFFFFFFFFFFF14A52E
:107540000000000014A5FFFFFFFFFFFFFFFFFFFF8C
:10755000FFFF9AD60000000014A5FFFFFFFFFFFF0A
:10756000FFFFFFFFFFFFFFFF14A50000000000006A
:1075700000000000000000009AD62D6B0000000003
:1075800000000000000000000000000000000000FB
:1075900000000000000000000000000000000000EB
:1075A00000000000000000000000000000000000DB
:1075B00000000000000000000000000000000000CB
:1075C00000000000000000000000000000000000BB
:1075D00000000000000000000000000000000000AB
:1075E000000000000000000000000000000000009B
:1075F00075ADFFFFFFFFFFFFFFFFFFFFFFFFFFFF77
:10760000FFFFFFFFFFFFFFFF14A5000000000000C9
:107610000000FFFFFFFFFFFFFFFFFFFFFFFFFFFF78
:107620002D6B000000000000000014A5FFFFFFFF0D
:10763000FFFFFFFFFFFFFFFF9AD6000000000000E2
:1076400000002D6BFFFFFFFFFFFFFFFFFFFFFFFFAE
:10765000FFFF000000009AD6FFFFFFFFFFFFFFFFC4
:10766000FFFFFFFFFFFF2D6B000000000000000088
:107670009AD6FFFFFFFFFFFFFFFFFFFFFFFF14A5ED
:107680000000000014A5FFFFFFFFFFFFFFFFFFFF4B
:10769000FFFF9AD600000000B294FFFFFFFFFFFF3C
:1076A000FFFFFFFFFFFFFFFF14A500000000000029
:1076B00000000000000000005CE70842000000003D
:1076C00000000000000000000000000000000000BA
:1076D00000000000000000000000000000000000AA
:1076E000000000000000000000000000000000009A
:1076F000000000000000000000000000000000008A
:107700000000000000000000000000000000000079
:107710000000000000000000000000000000000069
:107720000000000000000000000000000000CF7B0F
:10773000FFFFFFFFFFFFFFFFFFFFFFFFFFFFFFFF59
:10774000FFFFFFFFFFFF38C6000000000000000041
:107750000000FFFFFFFFFFFFFFFFFFFFFFFFFFFF37
:107760002D6B000000000000000014A5FFFFFFFFCC
:10777000FFFFFFFFFFFFFFFF9AD6000000000000A1
:1077800000002D6BFFFFFFFFFFFFFFFFFFFFFFFF6D
:10779000FFFF0000000014A5FFFFFFFFFFFFFFFF3A
:1077A000FFFFFFFFFFFF2D6B000000000000000047
:1077B0009AD6FFFFFFFFFFFFFFFFFFFFFFFF14A5AC
:1077C0000000000014A5FFFFFFFFFFFFFFFFFFFF0A
:1077D000FFFF9AD600000000AA52FFFFFFFFFFFF45
:1077E000FFFFFFFFFFFFFFFF14A5000000000000E8
:1077F0000000000000000842BEF70000000000008A
:107800000000000000000000000000000000000078
:107810000000000000000000000000000000000068
:107820000000000000000000000000000000000058
:107830000000000000000000000000000000000048
:107840000000000000000000000000000000000038
:107850000000000000000000000000000000000028
:107860000000000000000000000000002421BEF71E
:10787000FFFFFFFFFFFFFFFFFFFFFFFFFFFFFFFF18
:10788000FFFFFFFFFBDE24210000000000000000DE
:107890000000FFFFFFFFFFFFFFFFFFFFFFFFFFFFF6
:1078A0002D6B000000000000000014A5FFFFFFFF8B
:1078B000FFFFFFFFFFFFFFFF9AD600000000000060
:1078C00000002D6BFFFFFFFFFFFFFFFFFFFFFFFF2C
:1078D000FFFF00000000AA52FFFFFFFFFFFFFFFFB6
:1078E000FFFFFFFFFFFF2D6B000000000000000006
:1078F0009AD6FFFFFFFFFFFFFFFFFFFFFFFF14A56B
:107900000000000014A5FFFFFFFFFFFFFFFFFFFFC8
:10791000FFFF9AD60000000000005CE7FFFFFFFFBA
:10792000FFFFFFFFFFFFFFFF14A5000000000000A6
:1079300000000000000014A575AD0000000000006C
:107940000000000000000000000000000000000037
:107950000000000000000000000000000000000027
:107960000000000000000000000000000000000017
:107970000000000000000000000000000000000007
:1079800000000000000000000000000000000000F7
:1079900000000000000000000000000000000000E7
:1079A00000000000000000000000000014A5FFFF20
:1079B000FFFFFFFFFFFFFFFFFFFFFFFFFFFFFFFFD7
:1079C000FFFF5CE724210000000000000000000031
:1079D0000000FFFFFFFFFFFFFFFFFFFFFFFFFFFFB5
:1079E0002D6B000000000000000014A5FFFFFFFF4A
:1079F000FFFFFFFFFFFFFFFF9AD60000000000001F
:107A000000002D6BFFFFFFFFFFFFFFFFFFFFFFFFEA
:107A1000FFFF00000000000038C6FFFFFFFFFFFF70
:107A2000FFFFFFFFFFFF2D6B0000000000000000C4
:107A30009AD6FFFFFFFFFFFFFFFFFFFFFFFF14A529
:107A40000000000014A5FFFFFFFFFFFFFFFFFFFF87
:107A5000FFFF9AD6000000000000CF7BFFFFFFFF72
:107A6000FFFFFFFFFFFFFFFF14A500000000000065
:107A700000000000AA525CE7242100000000000082
:107A800000000000000000000000000000000000F6
:107A900000000000000000000000000000000000E6
:107AA00000000000000000000000000000000000D6
:107AB00000000000000000000000000000000000C6
:107AC00000000000000000000000000000000000B6
:107AD00000000000000000000000000000000000A6
:107AE0000000000000000000000000005CE7FFFF55
:107AF000FFFFFFFFFFFFFFFFFFFFFFFFFFFFFFFF96
:107B0000BEF7AA52000000000000000000000000C4
:107B10000000FFFFFFFFFFFFFFFFFFFFFFFFFFFF73
:107B20002D6B000000000000000014A5FFFFFFFF08
:107B3000FFFFFFFFFFFFFFFF9AD6000000000000DD
:107B400000002D6BFFFFFFFFFFFFFFFFFFFFFFFFA9
:107B5000FFFF00000000000024215CE7FFFFFFFFA3
:107B6000FFFFFFFFFFFF2D6B00000000000024213E
:107B70005CE7FFFFFFFFFFFFFFFFFFFFFFFF14A515
:107B80000000000014A5FFFFFFFFFFFFFFFFFFFF46
:107B9000FFFF9AD60000000000000000D7BDFFFFE5
:107BA000FFFFFFFFFFFFFFFF14A500000000000024
:107BB0000000AA52BEF73084000000000000000060
:107BC00000000000000000000000000000000000B5
:107BD00000000000000000000000000000000000A5
:107BE0000000000000000000000000000000000095
:107BF0000000000000000000000000000000000085
:107C00000000000000000000000000000000000074
:107C10000000000000000000000000000000000064
:107C2000000000000000000000000000FFFFFFFF58
:107C3000FFFFFFFFFFFFFFFFFFFFFFFFFFFFBEF79D
:107C4000AA52000000000000000000000000000038
:107C50000000FFFFFFFFFFFFFFFFFFFFFFFFFFFF32
:107C60002D6B000000000000000014A5FFFFFFFFC7
:107C7000FFFFFFFFFFFFFFFF9AD60000000000009C
:107C800000002D6BFFFFFFFFFFFFFFFFFFFFFFFF68
:107C9000FFFF0000000000000000AA52FBDEFFFF13
:107CA000FFFFFFFFFFFF2D6B000000002D6BFBDED1
:107CB0005CE7FFFFFFFFFFFFFFFFFFFFFFFF14A5D4
:107CC0000000000014A5FFFFFFFFFFFFFFFFFFFF05
:107CD000FFFF9AD60000000000000000000075AD14
:107CE000FFFFFFFFFFFFFFFF14A5000000000000E3
:107CF000B2945CE730840000000000000000000047
:107D00000000000000000000000000000000000073
:107D10000000000000000000000000000000000063
:107D20000000000000000000000000000000000053
:107D30000000000000000000000000000000000043
:107D40000000000000000000000000000000000033
:107D50000000000000000000000000000000000023
:107D6000000000000000000000000000FFFFFFFF17
:107D7000FFFFFFFFFFFFFFFFFFFFFFFFFFFFAA5215
:107D800000000000000000000000000008429AD639
:107D90009AD6FFFFFFFFFFFFFFFFFFFFFFFFFFFF81
:107DA000FBDE9AD69AD63084000014A5FFFFFFFFB1
:107DB000FFFFFFFFFFFFFFFF9AD60000000000005B
:107DC00000002D6BFFFFFFFFFFFFFFFFFFFFFFFF27
:107DD000FFFF00000000000000000000242114A5A7
:107DE000BEF7FFFFFFFFFBDE14A5FBDE9AD60842BD
:107DF0009AD6FFFFFFFFFFFFFFFFFFFFFFFF14A566
:107E00000000000014A5FFFFFFFFFFFFFFFFFFFFC3
:107E1000FFFF9AD6000000000000000000000000F4
:107E20002D6B9AD6FFFFFFFF9AD614A5D7BDBEF7DC
:107E3000D7BD084200000000000000000000000064
:107E40000000000000000000000000000000000032
:107E50000000000000000000000000000000000022
:107E60000000000000000000000000000000000012
:107E70000000000000000000000000000000000002
:107E800000000000000000000000000000000000F2
:107E900000000000000000000000000000000000E2
:107EA00000000000000000000000000038C6FFFFD6
:107EB000FFFFFFFFFFFFFFFFFFFFFFFF308400001A
:107EC00000000000000000000000000024212D6BD5
:107ED0002D6BFFFFFFFFFFFFFFFFFFFFFFFFFFFF18
:107EE0002D6B2D6B2D6B0842000008422D6B2D6B06
:107EF0002D6B2D6B2D6B2D6BAA5200000000000026
:107F0000000024212D6B2D6B2D6B2D6B2D6B2D6B9C
:107F10002D6B0000000000000000000000000000C9
:107F200000002D6B14A514A5308408420000000049
:107F30009AD6FFFFFFFFFFFFFFFFFFFFFFFF14A524
:107F40000000000008422D6B2D6B2D6B2D6B2D6BEF
:107F50002D6BAA520000000000000000000000008D
:107F6000000000000842308414A514A5CF7B242112
:107F70000000000000000000000000000000000001
:107F800000000000000000000000000000000000F1
:107F900000000000000000000000000000000000E1
:107FA00000000000000000000000000000000000D1
:107FB00000000000000000000000000000000000C1
:107FC00000000000000000000000000000000000B1
:107FD00000000000000000000000000000000000A1
:107FE000000000000000000000000000AA52FFFF97
:107FF000FFFFFFFFFFFFFFFFFFFF14A500000000D2
:10800000000000000000AA52AA5200000000000078
:108010000000FFFFFFFFFFFFFFFFFFFFFFFFFFFF6E
:10802000242100000000000000000000000000000B
:108030000000000000000000000000000000000040
:108040000000000000000000000000000000000030
:108050000000000000000000000000000000000020
:108060000000000000000000000000000000000010
:108070009AD6FFFFFFFFFFFFFFFFFFFFFFFF14A5E3
:108080000000000000002421308414A514A53084D1
:108090000842000000000000000000000000000096
:1080A00000000000000000000000000000000000D0
:1080B00000000000000000000000000000000000C0
:1080C00000000000000000000000000000000000B0
:1080D00000000000000000000000000000000000A0
:1080E0000000000000000000000000000000000090
:1080F0000000000000000000000000000000000080
:10810000000000000000000000000000000000006F
:10811000000000000000000000000000000000005F
:10812000000000000000000000000000000030849B
:10813000FFFFFFFFFFFFFFFFFFFF24210000000004
:1081400000000000B294FFFF2D6B00000000000053
:108150000000084214A55CE7FFFFFFFFFFFFFFFFE1
:108160002D6B000000000000000000000000000077
:1081700000000000000000000000000000000000FF
:1081800000000000000000000000000000000000EF
:1081900000000000000000000000000000000000DF
:1081A00000000000000000000000000000000000CF
:1081B0009AD6FFFFFFFFFFFFFFFFFFFFFFFF14A5A2
:1081C000000000000842BEF7FFFFFFFFFFFFFFFFB8
:1081D000BEF7CF7B000000000000000000000000A0
:1081E000000000000000000000000000000000008F
:1081F000000000000000000000000000000000007F
:10820000000000000000000000000000000000006E
:10821000000000000000000000000000000000005E
:10822000000000000000000000000000000000004E
:10823000000000000000000000000000000000003E
:10824000000000000000000000000000000000002E
:10825000000000000000000000000000000000001E
:10826000000000000000000000000000000000000E
:10827000AA529AD6FFFFFFFFFFFF14A52D6B2D6BAF
:1082800075AD5CE79AD6AA5200000000000000001D
:10829000000000000000000030845CE7FFFFFFFFEB
:1082A0002D6B000000000000000000000000000036
:1082B00000000000000000000000000000000000BE
:1082C00000000000000000000000000000000000AE
:1082D000000000000000000000000000000000009E
:1082E000000000000000000000000000000000008E
:1082F0009AD6FFFFFFFFFFFFFFFFFFFFFFFF14A561
:108300000000000014A5FFFFFFFFFFFFFFFFFFFFBE
:10831000FFFF9AD6000000000000000000000000EF
:10832000000000000000000000000000000000004D
:10833000000000000000000000000000000000003D
:10834000000000000000000000000000000000002D
:10835000000000000000000000000000000000001D
:10836000000000000000000000000000000000000D
:1083700000000000000000000000000000000000FD
:1083800000000000000000000000000000000000ED
:1083900000000000000000000000000000000000DD
:1083A00000000000000000000000000000000000CD
:1083B000000000000842B294D7BD9AD69AD638C6BB
:1083C00014A5AA52000000000000000000000000F8
:1083D00000000000000000000000000030845CE7A6
:1083E0002D6B0000000000000000000000000000F5
:1083F000000000000000000000000000000000007D
:10840000000000000000000000000000000000006C
:10841000000000000000000000000000000000005C
:10842000000000000000000000000000000000004C
:10843000AA522D6B2D6B2D6B2D6B2D6B2D6B084266
:10844000000000002D6BFFFFFFFFFFFFFFFFFFFF9E
:10845000FFFF14A500000000000000000000000065
:10846000000000000000000000000000000000000C
:1084700000000000000000000000000000000000FC
:1084800000000000000000000000000000000000EC
:1084900000000000000000000000000000000000DC
:1084A00000000000000000000000000000000000CC
:1084B00000000000000000000000000000000000BC
:1084C00000000000000000000000000000000000AC
:1084D000000000000000000000000000000000009C
:1084E000000000000000000000000000000000008C
:1084F000000000000000000000000000000000007C
:10850000000000000000000000000000000000006B
:108510000000000000000000000000000000242116
:108520002421000000000000000000000000000006
:10853000000000000000000000000000000000003B
:10854000000000000000000000000000000000002B
:10855000000000000000000000000000000000001B
:10856000000000000000000000000000000000000B
:1085700000000000000000000000000000000000FB
:108580000000000000002D6BD7BD9AD69AD638C6E1
:108590003084000000000000000000000000000027
:1085A00000000000000000000000000000000000CB
:1085B00000000000000000000000000000000000BB
:1085C00000000000000000000000000000000000AB
:1085D000000000000000000000000000000000009B
:108AE0000000000024210000000000000000000041
:108AF0000000000000000000000000000000242131
:108B00000000000000000000000000000000000065
:108B10000000000000000000000000000000000055
:108B20000000000000000000000000000000000045
:108B30000000000000000000000000000000000035
:108B40000000000000000000000000000000000025
:108B50000000000000000000000000000000000015
:108B60000000000000000000000000000000000005
:108B700000000000000000000000000000000000F5
:108B800000000000000000000000000000000000E5
:108B900000000000000000000000000000000000D5
:108BA00000000000000000000000000000000000C5
:108BB00000000000000000000000000000000000B5
:108BC00000000000000000000000000000000000A5
:108BD0000000000000000000000000000000000095
:108BE0000000000000000000000000000000000085
:108BF0000000000000000000000000000000000075
:108C00000000000000000000000000000000000064
:108C10000000000000000000000000000000000054
:108C200000000000D7BD00000000000000000000B0
:108C3000000000000000000000000000242138C6F1
:108C40000000000000000000000000000000000024
:108C50000000000000000000000000000000000014
:108C60000000000000000000000000000000000004
:108C700000000000AA5200000000000000000000F8
:108C800000000000000000000000000000000000E4
:108C900000000000000000000000000000000000D4
:108CA00000000000000000000000000000000000C4
:108CB00000000000000000000000000000000000B4
:108CC00000000000000000000000000000000000A4
:108CD0000000000000000000000000000000000094
:108CE0000000000000000000000000000000000084
:108CF0000000000000000000000000000000000074
:108D00000000000000000000000000000000000063
:108D10000000000000000000000000000000000053
:108D20000000000000000000000000000000000043
:108D30000000000000000000000000000000000033
:108D40000000000000000000000000000000000023
:108D50000000000000000000000000000000000013
:108D60000000CF7BFFFF2D6B000000000000000023
:108D700000000000000000000000000014A5FFFF3C
:108D80000842000000000000000000000000000099
:108D900000000000000000000000084275ADFBDE8E
:108DA000FFFFFFFFBEF738C630842421000000001B
:108DB000000000005CE7CF7B000000000000000026
:108DC0000000000000000000000000000000084259
:108DD0009AD69AD69AD69AD69AD69AD69AD69AD613
:108DE0009AD69AD6242100000000000000003084AA
:108DF00038C65CE7FFFFFFFF5CE7D7BD2D6B0000C7
:108E0000000000000000000000000000242114A564
:108E10005CE7FFFFFFFF5CE775AD08420000000064
:108E20000000000000000000000000000000000042
:108E30000000000000000000000000000000000032
:108E40000000000000000000000000000000000022
:108E50000000000000000000000000000000000012
:108E60000000000000000000000000000000000002
:108E700000000000000000000000000000000000F2
:108E800000000000000000000000000000000000E2
:108E900000000000000000000000000000000000D2
:108EA000000038C6FFFF5CE7000000000000000083
:108EB000000000000000000000000842FFFFFFFF6C
:108EC000D7BD00000000000000000000000000000E
:108ED000000000000000000014A5FFFFFFFFBEF728
:108EE000AA5200002421CF7B9AD6BEF7B29400008C
:108EF0000000000030845CE7242100000000000036
:108F00000000000000000000000000000000D7BDCD
:108F1000FFFFFFFFFFFFFFFFFFFFFFFFFFFFFFFF61
:108F2000FFFF14A5000000000000AA52FBDEFFFFB7
:108F3000FFFFFFFF38C600002421CF7B9AD69AD6C8
:108F4000084200000000000000002421FBDEFFFFBB
:108F5000FFFFFFFFFFFFFFFFFFFFBEF730840000B2
:108F60000000000000000000000000000000000001
:108F700000000000000000000000000000000000F1
:108F800000000000000000000000000000000000E1
:108F900000000000000000000000000000000000D1
:108FA00000000000000000000000000000000000C1
:108FB00000000000000000000000000000000000B1
:108FC00000000000000000000000000000000000A1
:108FD0000000000000000000000000000000000091
:108FE0000842FFFFFFFFFFFF308400000000000089
:108FF00000000000000000000000D7BDFFFFFFFFE1
:10900000FFFF24210000000000000000000000001D
:10901000000000000000D7BDFFFFFFFFFFFF9AD652
:10902000000000000000000000002D6BBEF738C6F5
:109030002421000000009AD6D7BD2D6B2D6B2D6B1F
:109040002D6B2D6B2D6B2D6B2D6B2D6B3084FFFFDE
:10905000FFFFFFFFFFFFFFFFFFFFFFFFFFFFFFFF20
:10906000BEF7242100000000AA52BEF7FFFFFFFF59
:10907000FFFFFFFF14A50000000000000000CF7BF1
:109080005CE7AA52000000000000D7BDFFFFFFFF11
:10909000FFFFFFFFFFFFFFFFAA522D6BBEF7AA5293
:1090A00000000000000000000000000000000000C0
:1090B00000000000000000000000000000000000B0
:1090C00000000000000000000000000000000000A0
:1090D0000000000000000000000000000000000090
:1090E0000000000000000000000000000000000080
:1090F0000000000000000000000000000000000070
:10910000000000000000000000000000000000005F
:10911000000000000000000000000000000000004F
:1091200014A5FFFFFFFFFFFFBEF724210000000092
:1091300000000000000000000842FFFFFFFFFFFFEB
:10914000FFFF14A500000000000000000000000068
:109150000000000014A5FFFFFFFFFFFFFFFF9AD6EE
:109160000000000000000000000000002421FBDEE1
:109170009AD6000000002D6BFFFFFBDE9AD69AD630
:109180009AD69AD69AD69AD69AD69AD6BEF7FFFF8C
:10919000FFFFFFFFFFFFFFFFFFFFFFFFFFFFFFFFDF
:1091A000B294000000002421BEF7FFFFFFFFFFFF85
:1091B000FFFFFFFF14A500000000000000000000FA
:1091C000AA525CE7AA5200000000FFFFFFFFFFFF6A
:1091D000FFFFFFFFFFFFFFFF00000000CF7B9AD6DD
:1091E000000000000000000000000000000000007F
:1091F000000000000000000000000000000000006F
:10920000000000000000000000000000000000005E
:10921000000000000000000000000000000000004E
:10922000000000000000000000000000000000003E
:10923000000000000000000000000000000000002E
:10924000000000000000000000000000000000001E
:10925000000000000000000000000000000000000E
:109260005CE7FFFFFFFFFFFFFFFF14A5000000000A
:109270000000000000000000D7BDFFFFFFFFFFFF60
:10928000FFFFBEF70000000000000000000000002B
:1092900000000842FFFFFFFFFFFFFFFFFFFF9AD61E
:1092A0000000000000000000000000000000AA52C2
:1092B000BEF7AA5200000000D7BDD7BD00000000D5
:1092C00000000000000000000000AA52FFFFFFFFA6
:1092D000FFFFFFFFFFFFFFFFFFFFFFFFFFFF5CE759
:1092E000000000000000D7BDFFFFFFFFFFFFFFFFF2
:1092F000FFFFFFFF14A500000000000000000000B9
:109300000000B29438C600002D6BFFFFFFFFFFFF87
:10931000FFFFFFFFFFFFFFFF0000000000005CE712
:10932000000000000000000000000000000000003D
:10933000000000000000000000000000000000002D
:10934000000000000000000000000000000000001D
:10935000000000000000000000000000000000000D
:1093600000000000000000000000000000000000FD
:1093700000000000000000000000000000000000ED
:1093800000000000000000000000000000000000DD
:109390000000000000000000000000000000CF7B83
:1093A000FFFFFFFFFFFFFFFFFFFFBEF724210000CD
:1093B0000000000000002D6BFFFFFFFFFFFFFFFF1D
:1093C000FFFFFFFF308400000000000000000000ED
:1093D000000014A5FFFFFFFFFFFFFFFFFFFF9AD66E
:1093E000000000000000000000000000000000007D
:1093F00008420000000000002421BEF7AA5200002D
:10940000000000000000000000009AD6FFFFFFFFF0
:10941000FFFFFFFFFFFFFFFFFFFFFFFFFFFFCF7B10
:10942000000000002421FFFFFFFFFFFFFFFFFFFF01
:10943000FFFFFFFF14A50000000000000000000077
:1094400000000000084200002D6BFFFFFFFFFFFF40
:10945000FFFFFFFFFFFFFFFF000000000000000014
:1094600000000000000000000000000000000000FC
:1094700000000000000000000000000000000000EC
:1094800000000000000000000000000000000000DC
:1094900000000000000000000000000000000000CC
:1094A00000000000000000000000000000000000BC
:1094B00000000000000000000000000000000000AC
:1094C000000000000000000000000000000000009C
:1094D00000000000000000000000000000009AD61C
:1094E000FFFFFFFFFFFFFFFFFFFFFFFFD7BD0000F4
:1094F0000000000000009AD6FFFFFFFFFFFFFFFF04
:10950000FFFFFFFF5CE7000000000000000000001C
:109510000000FBDEFFFFFFFFFFFFFFFFFFFF9AD60C
:10952000000000000000000000000000000000003B
:1095300000000000000000000000B2949AD6000075
:1095400000000000000000002D6BFFFFFFFFFFFF89
:10955000FFFFFFFFFFFFFFFFFFFFFFFF9AD60000A7
:1095600000000000CF7BFFFFFFFFFFFFFFFFFFFFBB
:10957000FFFFFFFF14A50000000000000000000036
:1095800000000000000000002D6BFFFFFFFFFFFF49
:10959000FFFFFFFFFFFFFFFF0000000000000000D3
:1095A00000000000000000000000000000000000BB
:1095B00000000000000000000000000000000000AB
:1095C000000000000000000000000000000000009B
:1095D000000000000000000000000000000000008B
:1095E000000000000000000000000000000000007B
:1095F000000000000000000000000000000000006B
:10960000000000000000000000000000000000005A
:109610000000000000000000000000000842FFFF02
:10962000FFFFFFFFFFFFFFFFFFFFFFFFFFFF0842FE
:10963000000000002D6BFFFFFFFFFFFFFFFFFFFF9C
:10964000FFFFFFFFFFFF2D6B000000000000000088
:109650000000FFFFFFFFFFFFFFFFFFFFFFFFFBDE3D
:109660002D6B2D6B2D6B2D6B2D6B2D6B2D6B2D6B3A
:109670002D6BAA5200000000000000005CE7CF7BC9
:1096800000000000000000009AD6FFFFFFFFFFFF70
:10969000FFFFFFFFFFFFFFFFFFFFFFFF2D6B00003E
:1096A0000000000014A5FFFFFFFFFFFFFFFFFFFF0B
:1096B000FFFFFFFF14A500000000000000000000F5
:1096C00000000000000000002D6BFFFFFFFFFFFF08
:1096D000FFFFFFFFFFFFFFFF000000000000000092
:1096E000000000000000000000000000000000007A
:1096F000000000000000000000000000000000006A
:109700000000000000000000000000000000000059
:109710000000000000000000000000000000000049
:109720000000000000000000000000000000000039
:109730000000000000000000000000000000000029
:109740000000000000000000000000000000000019
:1097500000000000000000000000000075ADFFFFE9
:10976000FFFFFFFFFFFFFFFFFFFFFFFFFFFF9AD697
:10977000000000005CE7FFFFFFFFFFFFFFFFFFFFB0
:10978000FFFFFFFFFFFF9AD600000000000000006F
:109790000000FFFFFFFFFFFFFFFFFFFFFFFFBEF720
:1097A0009AD69AD69AD6FBDEFFFFFFFFFFFFFFFF98
:1097B000FFFF9AD600000000000000002D6B5CE760
:1097C0002421000000003084FFFFFFFFFFFFFFFFA8
:1097D000FFFFFFFFFFFFFFFFFFFFD7BD00000000FF
:1097E0000000000014A5FFFFFFFFFFFFFFFFFFFFCA
:1097F000FFFFFFFF14A500000000000000000000B4
:1098000000000000000000002D6BFFFFFFFFFFFFC6
:10981000FFFFFFFFFFFFFFFF000000000000000050
:109820000000000000000000000000000000000038
:109830000000000000000000000000000000000028
:109840000000000000000000000000000000000018
:109850000000000000000000000000000000000008
:1098600000000000000000000000000000000000F8
:1098700000000000000000000000000000000000E8
:1098800000000000000000000000000000000000D8
:10989000000000000000000000000000BEF7FFFF15
:1098A000FFFFFFFFFFFFFFFFFFFFFFFFFFFFFFFFC8
:1098B0002D6BB294FFFFFFFFFFFFFFFFFFFFFFFFD6
:1098C000FFFFFFFFFFFFBEF7AA52000000000000ED
:1098D00000005CE7FFFFFFFFFFFFFFFFFFFF9AD6DF
:1098E0000000000000002D6BFFFFFFFFFFFFFFFFE8
:1098F000FFFFD7BD0000000000000000000038C6D8
:1099000014A5000000005CE7FFFFFFFFFFFFFFFF63
:10991000FFFFFFFFFFFFFFFFBEF708420000000050
:1099200000000000B294FFFFFFFFFFFFFFFFFFFFFB
:10993000FFFFFFFF14A50000000000000000000072
:1099400000000000000000002D6BFFFFFFFFFFFF85
:10995000FFFFFFFFFFFFFFFF00000000000000000F
:1099600000000000000000000000000000000000F7
:1099700000000000000000000000000000000000E7
:1099800000000000000000000000000000000000D7
:1099900000000000000000000000000000000000C7
:1099A00000000000000000000000000000000000B7
:1099B00000000000000000000000000000000000A7
:1099C0000000000000000000000000000000000097
:1099D000000000000000000000003084FFFFFFFFD7
:1099E000FFFFFFFFFFFFFFFFFFFFFFFFD7BD14A536
:1099F0005CE7BEF7FFFFFFFFFFFFFFFFFFFFFFFF7B
:109A0000FFFFFFFFD7BDD7BDD7BD0000000000009E
:109A10000000D7BDFFFFFFFFFFFFFFFFFFFF9AD64C
:109A20000000000000002D6BFFFFFFFFFFFFFFFFA6
:109A3000FFFFB29400000000000000000000084298
:109A40005CE708423084FFFFFFFFFFFFFFFFFFFFDF
:109A5000FFFFFFFFFFFFFFFF14A500000000000055
:109A600000000000AA52FFFFFFFFFFFFFFFFFFFF04
:109A7000FFFFFFFF14A50000000000000000000031
:109A800000000000000000002D6BFFFFFFFFFFFF44
:109A9000FFFFFFFFFFFFFFFF0000000000000000CE
:109AA00000000000000000000000000000000000B6
:109AB00000000000000000000000000000000000A6
:109AC0000000000000000000000000000000000096
:109AD0000000000000000000000000000000000086
:109AE0000000000000000000000000000000000076
:109AF0000000000000000000000000000000000066
:109B00000000000000000000000000000000000055
:109B1000000000000000000000009AD6FFFFFFFFD9
:109B2000FFFFFFFFFFFFFFFFFFFFFFFFAA52242100
:109B3000BEF7FFFFFFFFFFFFFFFFFFFFFFFFFFFF7E
:109B4000FFFFBEF724210842FFFF0842000000008B
:109B500000002D6BFFFFFFFFFFFFFFFFFFFF9AD607
:109B60000000000000002D6BFFFFFFFFFFFFFFFF65
:109B7000FFFF08420000000000000000000000009D
:109B800014A538C65CE7FFFFFFFFFFFFFFFFFFFFE5
:109B9000FFFFFFFFFFFFBEF72421000000000000D1
:109BA0000000000000005CE7FFFFFFFFFFFFFFFF7A
:109BB000FFFFFFFF14A500000000000000000000F0
:109BC00000000000000000002D6BFFFFFFFFFFFF03
:109BD000FFFFFFFFFFFFFFFF00000000000000008D
:109BE0000000000000000000000000000000000075
:109BF0000000000000000000000000000000000065
:109C00000000000000000000000000000000000054
:109C10000000000000000000000000000000000044
:109C20000000000000000000000000000000000034
:109C30000000000000000000000000000000000024
:109C40000000000000000000000000000000000014
:109C500000000000000000000842FFFFFFFFFFFFC0
:109C6000FFFFFFFFFFFFFFFFFFFF9AD6000000008E
:109C70003084FFFFFFFFFFFFFFFFFFFFFFFFFFFF3E
:109C8000FFFF14A50000000038C614A50000000066
:109C9000000000009AD6FFFFFFFFFFFFFFFF9AD6EC
:109CA0000000000000002D6BFFFFFFFFFFFFFFFF24
:109CB00075AD000000000000000000000000000082
:109CC00024215CE7FFFFFFFFFFFFFFFFFFFFFFFF18
:109CD000FFFFFFFFFFFF30840000000000000000D6
:109CE000000000000000CF7BFFFFFFFFFFFFFFFF32
:109CF000FFFFFFFF14A500000000000000000000AF
:109D00002421D7BD000000002D6BFFFFFFFFFFFFE8
:109D1000FFFFFFFFFFFFFFFF00000000000000004B
:109D20000000000000000000000000000000000033
:109D30000000000000000000000000000000000023
:109D40000000000000000000000000000000000013
:109D50000000000000000000000000000000000003
:109D600000000000000000000000000000000000F3
:109D700000000000000000000000000000000000E3
:109D800000000000000000000000000000000000D3
:109D9000000000000000000075ADFFFFFFFFFFFFA7
:109DA000FFFFFFFFFFFFFFFFFFFF30840000000009
:109DB00000005CE7FFFFFFFFFFFFFFFFFFFFFFFF6C
:109DC0005CE72421000000002D6BBEF72421000079
:109DD000000000000842BEF7FFFFFFFFFFFF9AD61A
:109DE0000000000000002D6BFFFFFFFFFFFFFBDE08
:109DF000242100000000000000000000000000001E
:109E00000000CF7BFFFFFFFFFFFFFFFFFFFFFFFF14
:109E1000FFFFFFFF5CE70000000000000000000003
:109E20000000000000000000D7BDFFFFFFFFFFFFA4
:109E3000FFFFFFFF14A5000000000000000000006D
:109E4000D7BD9AD6000000002D6BFFFFFFFFFFFF7C
:109E5000FFFFFFFFFFFFFFFF00000000000000000A
:109E600000000000000000000000000000000000F2
:109E700000000000000000000000000000000000E2
:109E800000000000000000000000000000000000D2
:109E900000000000000000000000000000000000C2
:109EA00000000000000000000000000000000000B2
:109EB00000000000000000000000000000000000A2
:109EC0000000000000000000000000000000000092
:109ED0000000000000002421BEF7FFFFFFFFFFFF8E
:109EE000FFFFFFFFFFFFFFFFBEF7000000000000C5
:109EF00000002D6BFFFFFFFFFFFFFFFFFFFFFFFFD6
:109F0000308400000000000000005CE730840000A6
:109F1000000000000000AA525CE7FFFFFFFF5CE7C3
:109F2000000000000000CF7BFFFFFFFFFBDE2421CD
:109F30000000000000000000000000000000000021
:109F4000000000009AD6FFFFFFFFFFFFFFFFFFFFAB
:109F5000FFFFFFFF2D6B000000000000000000006D
:109F60000000000000000000000075ADFFFFFFFFD3
:109F7000FFFFFFFF75AD0000000000002D6B9AD6BB
:109F8000FBDE2421000000002D6BFFFFFFFFFFFF21
:109F9000FFFFFFFFFFFFFFFF0000000000000000C9
:109FA00000000000000000000000000000000000B1
:109FB00000000000000000000000000000000000A1
:109FC0000000000000000000000000000000000091
:109FD0000000000000000000000000000000000081
:109FE0000000000000000000000000000000000071
:109FF0000000000000000000000000000000000061
:10A000000000000000000000000000000000000050
:10A010000000000000003084FFFFFFFFFFFFFFFF94
:10A02000FFFFFFFFFFFFFFFF14A50000000000007F
:10A03000000000009AD6FFFFFFFFFFFFFFFF5CE775
:10A0400000000000000000000000B2945CE7000087
:10A050000000000000000000242114A5BEF7FFFF4F
:10A060009AD614A575ADBEF75CE714A500000000F4
:10A0700000000000000000000000000000000000E0
:10A08000000000000842FFFFFFFFFFFFFFFFFFFF90
:10A09000FFFF9AD600000000000000000000000052
:10A0A0000000000000000000000000002D6B9AD6A8
:10A0B000FFFFFFFFBEF775AD14A5FBDE5CE714A53F
:10A0C00000000000CF7B9AD6FBDEFFFFFFFFFFFF03
:10A0D000FFFFFFFFFFFFFFFF9AD69AD69AD6AA523C
:10A0E0000000000000000000000000000000000070
:10A0F0000000000000000000000000000000000060
:10A10000000000000000000000000000000000004F
:10A11000000000000000000000000000000000003F
:10A12000000000000000000000000000000000002F
:10A13000000000000000000000000000000000001F
:10A14000000000000000000000000000000000000F
:10A150000000000000005CE7FFFFFFFFFFFFFFFFC4
:10A16000FFFFFFFFFFFFFFFF0842000000000000AD
:10A17000000000002D6BFFFFFFFFFFFFFFFF2D6BB7
:10A18000000000000000000000002421BEF7308421
:10A1900000000000000000000000000000002D6B27
:10A1A00014A514A514A52D6B0000000000000000EC
:10A1B000000000000000000000000000000000009F
:10A1C00000000000000014A5FFFFFFFFFFFFFFFFDE
:10A1D000FFFFAA5200000000000000000000000085
:10A1E000000000000000000000000000000000006F
:10A1F0000842308414A514A5B2942D6B0000000011
:10A200000000000008422D6BB294FFFFFFFFFFFF2C
:10A21000FFFFFFFFFFFFFBDE2D6B2D6B2D6B24215E
:10A22000000000000000000000000000000000002E
:10A23000000000000000000000000000000000001E
:10A24000000000000000000000000000000000000E
:10A2500000000000000000000000000000000000FE
:10A2600000000000000000000000000000000000EE
:10A2700000000000000000000000000000000000DE
:10A2800000000000000000000000000000000000CE
:10A29000000000002D6BFFFFFFFFFFFFFFFFFFFF30
:10A2A000FFFFFFFFFFFF38C60000000000000000B6
:10A2B000000000000000D7BDFFFFFFFF9AD600009E
:10A2C000000000000000000000000000D7BD9AD68A
:10A2D000000000000000000000000000000000007E
:10A2E000000000000000000000000000000000006E
:10A2F000000000000000000000000000000000005E
:10A300000000000000002421BEF7FFFFFFFFFFFF59
:10A31000D7BD0000000000000000000000000000A9
:10A32000000000000000000000000000000000002D
:10A33000000000000000000000000000000000001D
:10A3400000000000000000002D6BFFFFFFFFFFFF7B
:10A35000FFFFFFFFFFFFFBDE00000000000000002A
:10A3600000000000000000000000000000000000ED
:10A3700000000000000000000000000000000000DD
:10A3800000000000000000000000000000000000CD
:10A3900000000000000000000000000000000000BD
:10A3A00000000000000000000000000000000000AD
:10A3B000000000000000000000000000000000009D
:10A3C000000000000000000000000000000000008D
:10A3D0000000000038C6FFFFFFFFFFFFFFFFFFFF89
:10A3E000FFFFFFFFFFFF30840000000000000000BF
:10A3F0000000000000000842FFFFFFFF2D6B00007F
:10A40000000000000000000000000000AA52FFFF52
:10A410002D6B0000000000000000000000000000A4
:10A42000000000000000000000000000000000002C
:10A43000000000000000000000000000000000001C
:10A4400000000000000000003084FFFFFFFFBEF7A7
:10A4500024210000000000000000000000000000B7
:10A4600000000000000000000000000000000000EC
:10A4700000000000000000000000000000000000DC
:10A4800000000000000000000000AA52D7BDBEF787
:10A49000FFFFFFFFFFFFFFFF0000000000000000C4
:10A4A00000000000000000000000000000000000AC
:10A4B000000000000000000000000000000000009C
:10A4C000000000000000000000000000000000008C
:10A4D000000000000000000000000000000000007C
:10A4E000000000000000000000000000000000006C
:10A4F000000000000000000000000000000000005C
:10A50000000000000000000000000000000000004B
:10A5100000000842FFFFFFFFFFFFFFFFFFFFFFFFFD
:10A52000FFFFFFFFBEF7000000000000000000007A
:10A53000000000000000000075AD9AD60000000089
:10A540000000000000000000000000000000FBDE32
:10A55000D7BD000000000000000000000000000067
:10A5600000000000000000000000000000000000EB
:10A5700000000000000000000000000000000000DB
:10A58000000000000000000000009AD6FFFF14A5A4
:10A5900000000000000000000000000000000000BB
:10A5A00000000000000000000000000000000000AB
:10A5B000000000000000000000000000000000009B
:10A5C0000000000000000000000000000000242146
:10A5D00014A5BEF7FFFFFFFF000000000000000011
:10A5E000000000000000000000000000000000006B
:10A5F000000000000000000000000000000000005B
:10A60000000000000000000000000000000000004A
:10A61000000000000000000000000000000000003A
:10A62000000000000000000000000000000000002A
:10A63000000000000000000000000000000000001A
:10A64000000000000000000000000000000000000A
:10A65000000008422D6B2D6B2D6B2D6B2D6B2D6B20
:10A660002D6B2D6BAA5200000000000000000000BE
:10A67000000000000000000024212D6B00000000FD
:10A680000000000000000000000000000000084280
:10A690000842000000000000000000000000000070
:10A6A00000000000000000000000000000000000AA
:10A6B000000000000000000000000000000000009A
:10A6C000000000000000000000002D6B5CE724216A
:10A6D000000000000000000000000000000000007A
:10A6E000000000000000000000000000000000006A
:10A6F000000000000000000000000000000000005A
:10A700000000000000000000000000000000000049
:10A710000000242114A5BEF7000000000000000086
:10A720000000000000000000000000000000000029
:10A730000000000000000000000000000000000019
:10A740000000000000000000000000000000000009
:10A7500000000000000000000000000000000000F9
:10A7600000000000000000000000000000000000E9
:10A7700000000000000000000000000000000000D9
:10A7800000000000000000000000000000000000C9
:10A7900000000000000000000000000000000000B9
:10A7A00000000000000000000000000000000000A9
:10A7B0000000000000000000000000000000000099
:10A7C0000000000000000000000000000000000089
:10A7D0000000000000000000000000000000000079
:10A7E0000000000000000000000000000000000069
:10A7F0000000000000000000000000000000000059
:10A8000000000000000000000000000008420000FE
:10A810000000000000000000000000000000000038
:10A820000000000000000000000000000000000028
:10A830000000000000000000000000000000000018
:10A840000000000000000000000000000000000008
:10A8500000000000000008420000000000000000AE
:10A8600000000000000000000000000000000000E8
:10A8700000000000000000000000000000000000D8
:10A8800000000000000000000000000000000000C8
:10A8900000000000000000000000000000000000B8
:10B540000000000000000000000000F800F800F813
:10B5500000F800F800F800F800F800F800F800F82B
:10B5600000F800F800F800F800F800F800F8000013
:10B57000000000000000E007E007E007E007E00748
:10B58000E007E007E007E007E007E007E007E00783
:10B59000E007E007E007E007E00700000000000028
:10B5A00000001F001F001F001F001F001F001F00C2
:10B5B0001F001F001F001F001F001F001F001F0093
:10B5C0001F001F001F00000000000000000000001E
:10B5D000000000000000000000000000000000006B
:10B5E000000000000000000000000000000000005B
:10B5F000000000000000000000000000000000004B
:10B60000000000000000000000000000000000003A
:10B61000000000000000000000000000000000002A
:10B62000000000000000000000000000000000001A
:10B63000000000000000000000000000000000000A
:10B6400000000000000000000000000000000000FA
:10B6500000000000000000000000000000000000EA
:10B6600000000000000000000000000000000000DA
:10B6700000000000000000000000000000000000CA
:10B680000000000000000000000000F800F800F8D2
:10B6900000F800F800F800F800F800F800F800F8EA
:10B6A00000F800F800F800F800F800F800F80000D2
:10B6B000000000000000E007E007E007E007E00707
:10B6C000E007E007E007E007E007E007E007E00742
:10B6D000E007E007E007E007E007000000000000E7
:10B6E00000001F001F001F001F001F001F001F0081
:10B6F0001F001F001F001F001F001F001F001F0052
:10B700001F001F001F0000000000000000000000DC
:10B710000000000000000000000000000000000029
:10B720000000000000000000000000000000000019
:10B730000000000000000000000000000000000009
:10B7400000000000000000000000000000000000F9
:10B7500000000000000000000000000000000000E9
:10B7600000000000000000000000000000000000D9
:10B7700000000000000000000000000000000000C9
:10B7800000000000000000000000000000000000B9
:10B7900000000000000000000000000000000000A9
:10B7A0000000000000000000000000000000000099
:10B7B0000000000000000000000000000000000089
:10B7C0000000000000000000000000F800F800F891
:10B7D00000F800F800F800F800F800F800F800F8A9
:10B7E00000F800F800F800F800F800F800F8000091
:10B7F000000000000000E007E007E007E007E007C6
:10B80000E007E007E007E007E007E007E007E00700
:10B81000E007E007E007E007E007000000000000A5
:10B8200000001F001F001F001F001F001F001F003F
:10B830001F001F001F001F001F001F001F001F0010
:10B840001F001F001F00000000000000000000009B
:10B8500000000000000000000000000000000000E8
:10B8600000000000000000000000000000000000D8
:10B8700000000000000000000000000000000000C8
:10B8800000000000000000000000000000000000B8
:10B8900000000000000000000000000000000000A8
:10B8A0000000000000000000000000000000000098
:10B8B0000000000000000000000000000000000088
:10B8C0000000000000000000000000000000000078
:10B8D0000000000000000000000000000000000068
:10B8E0000000000000000000000000000000000058
:10B8F0000000000000000000000000000000000048
:10B900000000000000000000000000F800F800F84F
:10B9100000F800F800F800F800F800F800F800F867
:10B9200000F800F800F800F800F800F800F800004F
:10B93000000000000000E007E007E007E007E00784
:10B94000E007E007E007E007E007E007E007E007BF
:10B95000E007E007E007E007E00700000000000064
:10B9600000001F001F001F001F001F001F001F00FE
:10B970001F001F001F001F001F001F001F001F00CF
:10B980001F001F001F00000000000000000000005A
:10B9900000000000000000000000000000000000A7
:10B9A0000000000000000000000000000000000097
:10B9B0000000000000000000000000000000000087
:10B9C0000000000000000000000000000000000077
:10B9D0000000000000000000000000000000000067
:10B9E0000000000000000000000000000000000057
:10B9F0000000000000000000000000000000000047
:10BA00000000000000000000000000000000000036
:10BA10000000000000000000000000000000000026
:10BA20000000000000000000000000000000000016
:10BA30000000000000000000000000000000000006
:10BA40000000000000000000000000F800F800F80E
:10BA500000F800F800F800F800F800F800F800F826
:10BA600000F800F800F800F800F800F800F800000E
:10BA7000000000000000E007E007E007E007E00743
:10BA8000E007E007E007E007E007E007E007E0077E
:10BA9000E007E007E007E007E00700000000000023
:10BAA00000001F001F001F001F001F001F001F00BD
:10BAB0001F001F001F001F001F001F001F001F008E
:10BAC0001F001F001F000000000000000000000019
:10BAD0000000000000000000000000000000000066
:10BAE0000000000000000000000000000000000056
:10BAF0000000000000000000000000000000000046
:10BB00000000000000000000000000000000000035
:10BB10000000000000000000000000000000000025
:10BB20000000000000000000000000000000000015
:10BB30000000000000000000000000000000000005
:10BB400000000000000000000000000000000000F5
:10BB500000000000000000000000000000000000E5
:10BB600000000000000000000000000000000000D5
:10BB700000000000000000000000000000000000C5
:10BB80000000000000000000000000F800F800F8CD
:10BB900000F800F800F800F800F800F800F800F8E5
:10BBA00000F800F800F800F800F800F800F80000CD
:10BBB000000000000000E007E007E007E007E00702
:10BBC000E007E007E007E007E007E007E007E0073D
:10BBD000E007E007E007E007E007000000000000E2
:10BBE00000001F001F001F001F001F001F001F007C
:10BBF0001F001F001F001F001F001F001F001F004D
:10BC00001F001F001F0000000000000000000000D7
:10BC10000000000000000000000000000000000024
:10BC20000000000000000000000000000000000014
:10BC30000000000000000000000000000000000004
:10BC400000000000000000000000000000000000F4
:10BC500000000000000000000000000000000000E4
:10BC600000000000000000000000000000000000D4
:10BC700000000000000000000000000000000000C4
:10BC800000000000000000000000000000000000B4
:10BC900000000000000000000000000000000000A4
:10BCA0000000000000000000000000000000000094
:10BCB0000000000000000000000000000000000084
:10BCC0000000000000000000000000F800F800F88C
:10BCD00000F800F800F800F800F800F800F800F8A4
:10BCE00000F800F800F800F800F800F800F800008C
:10BCF000000000000000E007E007E007E007E007C1
:10BD0000E007E007E007E007E007E007E007E007FB
:10BD1000E007E007E007E007E007000000000000A0
:10BD200000001F001F001F001F001F001F001F003A
:10BD30001F001F001F001F001F001F001F001F000B
:10BD40001F001F001F000000000000000000000096
:10BD500000000000000000000000000000000000E3
:10BD600000000000000000000000000000000000D3
:10BD700000000000000000000000000000000000C3
:10BD800000000000000000000000000000000000B3
:10BD900000000000000000000000000000000000A3
:10BDA0000000000000000000000000000000000093
:10BDB0000000000000000000000000000000000083
:10BDC0000000000000000000000000000000000073
:10BDD0000000000000000000000000000000000063
:10BDE0000000000000000000000000000000000053
:10BDF0000000000000000000000000000000000043
:10BE00000000000000000000000000000000000032
:10BE100000010203040102030406070809000000F0
:10BE200040BE009000000024B00000008A4700904F
:10BE3000F0BE0090B0000024300C00009A47009043
:10BE4000FFFF000000000000694C009000000000AF
:10BE5000000000006D4D00907D4C0090294D009039
:10BE6000E54C0090654C0090233A0090F935009025
:10BE7000C93E009071360090FD350090973F0090CC
:10BE80007939009011410090813900909D3F0090D8
:10BE9000E5360090B9380090113800907138009064
:10BEA0003D3900909139009071410090E93900903E
:10BEB000F939009048000000C80000008800000028
:10BEC000080000002800000068000000E8000000F2
:10BED000A8000000010000001000000000000000A9
:10BEE0000090D0030090D00300000000000000008C
:0400000590000299CC
:00000001FF
