:020000040800F2
:1000000068040024AD0200088F1E0008911D00083E
:100010008D1E0008190300083526000800000000A6
:10002000000000000000000000000000E1240008C3
:100030009103000800000000911E0008E32400085E
:10004000C7020008C7020008C7020008C70200086C
:10005000C7020008C7020008C7020008C70200085C
:10006000C7020008C7020008C7020008C70200084C
:10007000C7020008C7020008C7020008C70200083C
:10008000C7020008C7020008C7020008C70200082C
:10009000C7020008C7020008C7020008C70200081C
:1000A000C7020008C7020008C7020008C70200080C
:1000B000C7020008C7020008C7020008C7020008FC
:1000C000C7020008C7020008C7020008C7020008EC
:1000D000C7020008C7020008C7020008C7020008DC
:1000E000C7020008C702000800000000C70200089D
:1000F000C7020008C7020008C7020008C7020008BC
:10010000C7020008C7020008C7020008C7020008AB
:10011000C7020008C7020008C7020008C70200089B
:10012000C7020008C7020008C7020008C70200088B
:10013000C7020008C7020008C7020008C70200087B
:1001400000000000000000000000000000000000AF
:10015000C7020008C7020008C7020008C70200085B
:10016000C7020008C7020008C7020008C70200084B
:10017000C7020008C7020008C7020008C70200083B
:10018000C7020008C7020008C7020008C70200082B
:10019000C7020008C7020008C7020008C70200081B
:1001A000C7020008C7020008C7020008C70200080B
:1001B000C7020008C7020008C7020008C7020008FB
:1001C000C7020008C7020008C7020008C7020008EB
:1001D000C7020008C7020008C7020008C7020008DB
:1001E000C7020008C7020008C7020008C7020008CB
:1001F000C7020008C7020008C7020008C7020008BB
:10020000C7020008C7020008C7020008C7020008AA
:10021000C7020008C7020008C7020008C70200089A
:10022000C7020008C7020008C7020008000000005B
:10023000C7020008C702000800000000C70200084B
:10024000C7020008C7020008C7020008C70200086A
:10025000C7020008C7020008C7020008C70200085A
:10026000C7020008C7020008C7020008C70200084A
:10027000C7020008C7020008C7020008000000000B
:10028000C7020008C7020008C702000800000000FB
:1002900000000000C7020008DFF80CD000F02AF8C8
:1002A00000480047B9260008680400240648804733
:1002B00006480047FEE7FEE7FEE7FEE7FEE7FEE74B
:1002C000FEE7FEE7FEE7FEE7992500089902000831
:1002D000D2B201E000F8012B491EFBD27047002288
:1002E000F6E710B513460A4604461946FFF7F0FF35
:1002F000204610BD064C074D06E0E06840F00103C3
:1003000094E8070098471034AC42F6D3FFF7C8FFD3
:10031000CC290008EC290008FEE7000070B5BFF307
:100320004F8FBFF36F8F184800210368174A23F4DB
:10033000003303601160BFF34F8FBFF36F8F124A1A
:1003400070321160BFF34F8F016821F4803101607A
:10035000BFF34F8F101F43F6FF7300680B4D24351A
:10036000C0F34E31C0F3C90203EA4114104600BF86
:1003700044EA80762E60401EFAD2491EF4D2BFF3C2
:100380004F8FBFF36F8F70BD14ED00E050EF00E0B2
:100390007047704770B5044600F038F90546601C98
:1003A00002D004480078044400F030F9401BA04219
:1003B000FAD370BD080000242DE9FC4F01257E4CC6
:1003C00000234FF0030A4FF0B04E4FF00F0BEBE05D
:1003D00005FA03F637403A0077D04F68012F05D071
:1003E000022F03D0112F01D0122F1AD187684FEAA4
:1003F0004308D1F80CC00AFA08F927EA09070CFAF1
:1004000008FC4CEA070CC0F808C0476891F804C023
:10041000B743CCF3001C0CFA03FC4CEA070CC0F801
:1004200004C0C6684FEA430CD1F80880E1460AFAD6
:100430000CF7BE43019708FA09F848EA0608C0F825
:100440000C804E68022E01D0122E12D1DE084FEA27
:10045000437C00EB860600960F69366A4FEADC6C37
:100460000BFA0CF807FA0CF726EA08063743009E49
:1004700037620E790768DDF804C006F0030606FA55
:1004800009F627EA0C073E4306604E68F6001CD5C5
:100490004A4E376847F00207376036689F0706F014
:1004A0000206009623F0030606F1B046B1463F0F60
:1004B000D6F80864DFF808810BFA07FC404526EA05
:1004C0000C0603D14FF0000C41E06CE0DFF8F4C003
:1004D000604502D14FF0010C39E0DFF8ECC0604517
:1004E00002D14FF0020C32E0DFF8E0C0604502D1EB
:1004F0004FF0030C2BE0DFF8D8C0604502D14FF07D
:10050000040C24E0DFF8CCC0604502D14FF0050CAC
:100510001DE0DFF8C4C0604502D14FF0060C16E0C4
:10052000DFF8B8C0604502D14FF0070C0FE0DFF8EC
:10053000B0C0604502D14FF0080C08E0DFF8A4C05D
:10054000604502D14FF0090C01E04FF00A0C0CFAA3
:1005500007FC4CEA060CC9F808C426684F6826EA6E
:100560000206FF0300D51643266066684F6826EA38
:100570000206BF0300D516436660D1F804C0764674
:10058000DEF800705FEACC2C27EA020700D517439B
:100590003760D1F804C077685FEA8C2C27EA02073D
:1005A00000D5174377605B1C0A681746DA407FF472
:1005B0000FAFBDE8FC8F000080000058F4440258E3
:1005C000000002580004025800080258000C0258AB
:1005D000001002580014025800180258001C02585B
:1005E0000020025800240258426931EA020200D178
:1005F0000904816170470AB1816170470904FBE712
:1006000001480068000C70470010005C01488068D9
:1006100070470000080000240248816802781144F5
:100620008160704708000024032010B500F078F8BE
:1006300001F08AF80F4A104914681368C4F30322C2
:1006400003F00F038A5CC95C02F01F0201F01F0176
:10065000D0400A4A20FA01F11160094908600020DF
:1006600000F010F808B1012010BD00F02BF80020B8
:1006700010BD000018440258BC29000818000024CE
:100680001400002470B50D4D04462878A0B14FF435
:100690007A71B1FBF0F00A490968B1FBF0F001F0A2
:1006A00064FB48B9102C07D200222146501E00F0EE
:1006B00017F800206C6070BD012070BD0800002498
:1006C00014000024054808B5016841F002010160EA
:1006D000006800F00200009008BD0000F4440258D9
:1006E0000E4BF0B41B680D46C3F30223C3F107069B
:1006F000042E00D90426191D072901D2002300E089
:10070000DB1E012404FA06F19C40491E2940641EA8
:10071000994014402143F0BC01F096BF0CED00E07D
:10072000064900F0070210B54FF6FF040868044BB5
:10073000204040EA02201843086010BD0CED00E0A4
:100740000000FA05134970B50A68D243520705D56F
:10075000096801F00701814213D118E00A6822F00C
:10076000070202430A60FFF751FF0A4D4FF47A7601
:100770000446083D07E000BFFFF748FF001BB042FA
:1007800001D9012070BD2868C0438004F4D4002042
:1007900070BD00000C4802582DE9F84F1E46154662
:1007A0008A460446FFF732FF814694F8400001284C
:1007B0000ED001274FF0000884F8407094F84100F3
:1007C000012807D05FF0020084F84080BDE8F88F70
:1007D0000220FBE74221C4F8448084F84110002243
:1007E00020214B462046009601F0F1FC0028EBD179
:1007F0002168286888622168686848622168A8685A
:10080000C86220682969026822F4400242F480022A
:1008100011430160E9684FF000622046CAF82810D1
:10082000514601F06DFB01224B46082120460096FF
:1008300001F0CDFC0028C7D122680821D16084F8DE
:100840004170C1E72DE9F84F17468B460446FFF784
:10085000DDFE824694F8400001280ED001264FF0BC
:10086000000884F8406094F84100012807D0022570
:1008700084F840802846BDE8F88F0220FBE74FF05F
:100880000209C4F8448084F8419000222021534694
:100890002046009701F09BFC0500E9D10022594653
:1008A000204601F02DFBDBF8240058B90122534605
:1008B00002212046009701F08AFC0500D8D121686A
:1008C000C1F80C9084F84160D2E70000F8B5044606
:1008D000FFF79CFE05461CB194F8410010B107E0FB
:1008E0000120F8BD204600F08DF841F28830A06468
:1008F00020686FF0FF02A168036802EB012223F475
:10090000706111430160A06C002220212B460090F1
:10091000204601F05CFC0028E3D12268D4E90735C9
:100920002679E168176845EA0665DFF844C019438F
:10093000104B29430025012607EA0C0739431160B3
:100940002268D4E90517B4F810C0D2F804E039439E
:100950000EEA030E4EEA0C431943516021680A68FF
:1009600042F001020A60656484F84160F8BD00004D
:100970002FFFFF00FEF8E0FF2DE9F84316468846FA
:100980000446FFF743FE034694F8400001280ED0CA
:10099000012084F84000002794F84100012808D085
:1009A0005FF0020584F840702846BDE8F883022015
:1009B000FBE7A06C8221676484F8411000222021AB
:1009C0000090204601F003FC0500EBD1206872681E
:1009D000016821F0080111430160706808280AD1FC
:1009E00022681021306810632068C16020680168A7
:1009F00041F4801101604FF040624146204601F011
:100A00007FFACFE72DE9F04186B00446142168460D
:100A1000FFF765FC2B49206888424FD12A480168BE
:100A200041F480410160006800F480400590264850
:100A30000C30016841F010010160016801F0100103
:100A40000591016841F002010160016801F00201B5
:100A50000591016841F0080101600068092701AAB9
:100A60004FF0040800F00800CDF800800224694629
:100A70000025CDE904700326144882E87000FFF7D2
:100A80009BFCCDE9008402AADFF844806946404619
:100A900082E8E000FFF790FC4FF4605069468DE873
:100AA000F1000C48FFF788FC0A214020CDE90361E2
:100AB0008DE8310069464046FFF77EFC06B0BDE890
:100AC000F081000000500052D44402580010025837
:100AD00000040258000C02582DE9F84F15460E4646
:100AE0000446FFF793FD82462068816994F8403000
:100AF00000F12009012B0DD001274FF0000884F8E8
:100B0000407094F84120012A06D0022084F84080E9
:100B1000BDE8F88F0220FBE7C4F84480A6B3222288
:100B200084F841200269521CA2630269521C62636C
:100B30002663426922F0406242F08062426120688E
:100B400081610EE00621204601F041FBC8B999F809
:100B50000000216B0870206B401C2063A06B401EBE
:100B6000A063A06B53464FF0010200950028E9D125
:100B70004FF00201204601F02AFB10B92268022141
:100B8000D16084F84170C1E7FFE7616C012041F05A
:100B900008016164BAE700002DE9F84F15460E46DA
:100BA0000446FFF733FD94F840108246206801297F
:100BB00000F120090ED001274FF0000884F84070A2
:100BC00094F84110012907D05FF0020084F84080BA
:100BD000BDE8F88F0220FBE7C4F8448086B31221F9
:100BE00084F841100169491CE1620169491CA16254
:100BF0006662416921F0406141610EE004212046B6
:100C000001F0E5FAC8B9606A017889F80010606AF5
:100C1000401C6062E06A401EE062E06A53464FF0AA
:100C2000010200950028E9D14FF00201204601F0B1
:100C3000CEFA10B922680221D16084F84170C5E76C
:100C4000FFE7616C012041F008016164BEE700002C
:100C50002DE9FC5F044650F8241B002500902E4629
:100C60000801FE4FDFF8F8831DD5606E50B1B0F576
:100C7000801F0CD0B0F5001F0ED0B0F5401F1DD066
:100C800001250FE0386840F40030386016E002219A
:100C9000201D01F005FB03E00098022101F090FB0C
:100CA00005000BD02E462088C00523D5606D052891
:100CB0001ED2DFE800F00C11161B1B00626ED8F884
:100CC000001021F440111143C8F80010EBE7386818
:100CD00040F40030386009E00021201D01F0E0FA06
:100CE00003E00098002101F06BFB05466DB100E0C8
:100CF00001252E462088800528D5A06D80281ED08D
:100D00000CDC90B140280ED114E0626DD8F80010D0
:100D100021F007011143C8F80010EBE7C02813D0F9
:100D2000B0F5807F10D001250FE0386840F4003026
:100D3000386009E00021201D01F0B2FA03E00098BC
:100D4000002101F03DFB054695B12E462088DFF8D5
:100D50001093400509F108092CD5D4F8A400B0F58A
:100D6000800F20D00DDCA0B1B0F5001F0FD115E031
:100D7000A26DD8F8001021F4E0711143C8F80010FA
:100D8000E4E7B0F5C00F13D0B0F5000F10D0012587
:100D90000FE0386840F40030386009E00021201D81
:100DA00001F07EFA03E00098002101F009FB0546FE
:100DB00075B12E46208800052DD5D4F8A800B0F1D5
:100DC000007F21D00EDCA8B1B0F1807F10D116E0F9
:100DD000D4F8A420D9F8001021F460011143C9F817
:100DE0000010E7E7B0F1407F13D0B0F1806F10D072
:100DF00001250FE0386840F40030386009E0002138
:100E0000201D01F04DFA03E00098002101F0D8FA0E
:100E100005468DB12E462068DFF844B28001ABF163
:100E2000040B1FD5A06CD8B110280FD0202812D0E9
:100E3000302815D0012514E0D4F8A820D9F80010E6
:100E400021F0E0611143C9F80010E4E7386840F48C
:100E50000030386004E00221201D01F021FA05462F
:100E60006DB12E462088C0042BD5E06DB0F5005F33
:100E700020D00DDCA0B1B0F5805F0FD115E0A26CE1
:100E8000DBF8001021F030011143CBF80010E9E746
:100E9000B0F5405F13D0B0F5804F10D001250FE0C2
:100EA000386840F40030386009E00021201D01F06E
:100EB000F7F903E00098002101F082FA054685B1B8
:100EC0002E462088800429D5206EB0F5403F23D0DF
:100ED00010DC08B3B0F5803F14D0B0F5003F0FD15F
:100EE00015E0E26DD8F8001021F4E0411143C8F894
:100EF0000010E6E7B0F5802F0ED0B0F5A02F0BD094
:100F000001250AE00121201D01F0CAF903E0009843
:100F1000012101F055FA05468DB12E462088400486
:100F20002AD5D4F8AC00B0F1405F23D010DC08B370
:100F3000B0F1805F14D0B0F1005F0FD115E0226EE8
:100F4000D8F8001021F4E0211143C8F80010E5E7BB
:100F5000B0F1804F0ED0B0F1A04F0BD001250AE0C8
:100F60000121201D01F09CF903E00098012101F00E
:100F700027FA05466DB12E46208800041FD5E06E85
:100F8000D8B1B0F1805F0ED0B0F1005F10D0012574
:100F900014E0D4F8AC20D9F8001021F0E04111435E
:100FA000C9F80010E8E7386840F40030386004E021
:100FB0000121201D01F074F905466DB12E4620680F
:100FC000C0011ED5606CD0B101280ED0022811D00E
:100FD000032814D0012513E0E26ED8F8001021F0A8
:100FE00040511143C8F80010E9E7386840F4003078
:100FF000386004E00221201D01F052F9054665B178
:101000002E462068400257D51648016841F4807189
:101010000160FFF7FBFA82460EE0626CDBF800101D
:1010200021F003011143CBF80010EAE7FFF7EEFAD5
:10103000A0EB0A0064283DD80A480068C005F5D531
:101040007DBBDFF81CA0B4F8B0100AF1200ADAF872
:10105000000001F4407100F4407005E02C44025897
:101060005044025800480258884211D0DAF8001063
:10107000DAF8002021F4407142F48032CAF80020EE
:10108000DAF8002022F48032CAF80020CAF80010F2
:10109000D4F8B000B0F5807F21D1FFF7B7FA019006
:1010A00019E008E0FFF7B2FA0199411A41F28830DD
:1010B000814210D903252E462078DFF80CA4C00702
:1010C0003DD0A06F182838D026DC80B3082829D05E
:1010D000102825D12CE0DAF800008007E2D5D4F8FA
:1010E000B010C1F301200328F8480DD0016821F4A5
:1010F0007C510160B4F8B020DAF80010C2F30B02A2
:101100001143CAF80010D7E7F14A036802EA111246
:1011100023F47C511143ECE720280ED028280CD072
:1011200001250BE00121201D01F0BAF804E004E0E4
:101130000098012101F044F905465DB12E46207862
:1011400080071ED5606F062819D2DFE800F0160C64
:1011500011161616A26FDAF8001021F038011143AB
:10116000CAF80010EBE70121201D01F099F803E017
:101170000098012101F024F9054675B100E0012530
:101180002E46207840071FD5D4F89000062819D2A3
:10119000DFE800F0160C11161616626FDAF8001070
:1011A00021F007011143CAF80010EAE70121201DD0
:1011B00001F076F803E00098012101F001F90546FD
:1011C0009DB100E001252E46207880062BD5D4F86D
:1011D0008C00B0F1405F24D011DC10B3B0F1805F1F
:1011E00015D0B0F1005F10D116E0D4F89020D9F8F6
:1011F000001021F007011143C9F80010E4E7B0F135
:10120000804F0ED0B0F1A04F0BD001250AE0002195
:10121000201D01F045F803E00098022101F0D0F80C
:1012200005468DB12E46207840062BD5D4F898007F
:10123000B0F5406F24D011DC10B3B0F5806F15D03D
:10124000B0F5006F10D116E0D4F88C20DAF8001059
:1012500021F0E0411143CAF80010E4E7B0F5805FE7
:101260000ED0B0F5A05F0BD001250AE00021201DB3
:1012700001F016F803E00098022101F0A1F80546FC
:101280008DB12E46207800062BD5D4F89C00B0F501
:10129000C04F24D011DC10B3B0F5005F15D0B0F50D
:1012A000804F10D116E0D4F89820D9F8001021F41E
:1012B000E0511143C9F80010E4E7B0F5004F0ED03B
:1012C000B0F5204F0BD001250AE00021201D00F0D1
:1012D000E7FF03E00098022101F072F805464DB1E6
:1012E0002E46207800071ED5D4F88000B0F5805F28
:1012F0000AD00FE0D4F89C20D9F8001021F4604106
:101300001143C9F80010ECE70098022101F058F8E9
:1013100000B10126D4F88020DAF8001021F4405101
:101320001143CAF800102078C00613D5D4F89400F1
:10133000B0F5807F05D10098022101F041F800B19D
:101340000126D4F89420D9F8001021F440711143FB
:10135000C9F800102068000316D5D4F8A00038B1F1
:10136000B0F5803F09D0B0F5003F0BD001250AE071
:101370000021201D00F094FF03E00098022101F0FD
:101380001FF8054685B12E462068400322D5D4F8C3
:101390008400B0F5801F11D0B0F5001F13D0B0F558
:1013A000401F15D0012514E0D4F8A020D9F8001072
:1013B00021F440311143C9F80010E5E7386840F4E2
:1013C0000030386004E00098012100F0F9FF054684
:1013D00055B12E462068C0031CD5E06C70B1B0F545
:1013E000803F10D0012514E0D4F88420DAF80010F2
:1013F00021F440111143CAF80010EBE7386840F4BB
:101400000030386004E00221201D00F049FF05464D
:10141000CDB12E462068800005D50098022100F04D
:10142000CFFF00B10126206880031BD5E06FB8B163
:10143000B0F5807F10D0B0F5007F11D0B0F5407FBF
:101440000ED001250DE0E26CDBF8001021F48031B4
:101450001143CBF80010DDE7386840F40030386005
:10146000C5B32E462068C00207D5226FD8F80010F9
:1014700021F000411143C8F800102068800207D510
:10148000A26ED8F8001021F080711143C8F8001046
:101490002068400009D50D48016821F40041016031
:1014A0000168D4F8B820114301602068002807DAE9
:1014B000226DDBF8001021F040511143CBF80010F1
:1014C00096B10120BDE8FC9F5444025810440258D4
:1014D000CFFFFF00FFE7E26FDAF8001021F4407160
:1014E0001143CAF80010BDE70020EBE72DE9F05FDB
:1014F00004000F467ED0DFF83882D8F8000000F0F4
:101500000F00B8420CD2D8F8001021F00F01394377
:10151000C8F80010D8F8000000F00F00B84269D1F8
:101520002078844D40070AD52069296801F07001B0
:10153000884204D9296821F070010143296020788C
:101540007C4E361D00070AD56069316801F07001D4
:10155000884204D9316821F070010143316020785C
:10156000C0060AD5A069316801F4E061884204D957
:10157000316821F4E061014331602078DFF8B4B1D3
:1015800080060BF1080B0CD5E1695846DBF800200A
:1015900002F07002914204D9026822F070020A43FC
:1015A0000260207880070AD5E068296801F00F0101
:1015B000884204D9296821F00F010143296020786D
:1015C000C0073ED05B49A2682868183920F47060D3
:1015D000104328606068022818D0032819D00968D1
:1015E000012819D0490700294ADADFF848A1AAF1F1
:1015F000080A00E044E0DAF8002022F00702024383
:10160000CAF80020FFF702F8814612E00968890352
:10161000E9E709688901E6E7C905E4E7FEF7F6FFAF
:10162000A0EB090141F28830814202D90320BDE8D4
:10163000F09F6168DAF8000000F03800B0EBC10FED
:10164000ECD1207880070AD5E068296801F00F0105
:10165000884204D2296821F00F0101432960D8F89B
:101660000010404601F00F01B9420BD9016821F08A
:101670000F0139430160006800F00F00B84201D04B
:101680000120D4E7207840070AD52069296801F0B5
:101690007001884204D2296821F070010143296059
:1016A000207800070AD56069316801F0700188422E
:1016B00004D2316821F07001014331602078C00606
:1016C0000AD5A069316801F4E061884204D231682A
:1016D00021F4E06101433160207880060CD5E16996
:1016E0005846DBF8002002F07002914204D20268F2
:1016F00022F070020A43026000F026F80E492A68C0
:101700002B68C2F3032203F00F038A5CC95C02F06A
:101710001F0201F01F01D040084A20FA01F11160B8
:101720000749086007480068BDE8F05FFEF7AABFF8
:101730000020005218440258BC2900081800002458
:10174000140000240C000024454970B54548096880
:10175000434B103B11F0380208D00111082A03D086
:10176000102A0BD0182A0BD0084670BD19688906BC
:10177000FBD51968C1F3C101C84070BD3A4870BDBE
:101780003749374D18310C1D24350A680968266819
:101790002D6802F0030406F00102C1F30511C5F340
:1017A000CC0515FB02F200EE102AB8EE400AE9B3B0
:1017B0002F4ADFED2E0AB7EE001A6CB1DFED2D1ABD
:1017C000012C01D0022C43D002EE101A1068F8EE62
:1017D000422A81EEA22A1EE01C68A40611D51B68CD
:1017E00001EE901A1168C3F3C103F8EE612AD840E4
:1017F00001EE900AC1F30800F8EE611A81EEA22A08
:101800000BE001EE901ADFED1C2A00BFF8EE611A22
:10181000106882EEA12AC0F3080001EE900AF8EEEB
:10182000611A40EE201A31EE810A00E015E022EE46
:10183000000A1068C0F34620401C00EE900AF8EE43
:10184000600A80EE201ABCEEC10A10EE100A70BDCC
:1018500001EE901ADFED092AD8E7002070BD0000E4
:10186000104402580090D00340787D0100000039F8
:10187000304402580024744A0024744C20BCBE4BEF
:101880002DE9F05F04007CD0FF4F2078FE4D183723
:10189000DFF8F493103DC00748D0D9F8000039684C
:1018A00000F03800102815D0182803D101F00300EB
:1018B00002280FD06068B0F5803F12D010B1B0F5AB
:1018C000A02F18D0286820F480302860286820F4E1
:1018D000802009E02868800328D560680028D2D0DD
:1018E00024E0286840F480302860606888B1FEF702
:1018F0008DFE064609E0286840F480202860F0E765
:10190000FEF784FE801B64287ED828688003F7D504
:101910000CE0FEF77BFE064605E000BFFEF776FE14
:10192000801B6428F0D828688003F7D4207841F21F
:101930000308D54E0C3E80074BD5D9F80000396816
:1019400010F038000ED0182801D188070AD0E068BE
:1019500068B3296821F0190101432960FEF756FE9A
:10196000824619E02868400702D5E06800288AD03E
:10197000FEF746FE404513D82069316821F47C31DA
:1019800000E0BEE041EA0030306022E0FEF73EFEBB
:10199000A0EB0A000228B7D828684007F6D5E7E789
:1019A000207C316821F0FE4141EA0060ECE72868C4
:1019B00020F001002860FEF729FE824606E000BF05
:1019C000FEF724FEA0EB0A0002289DD828684007F5
:1019D000F6D42078C00659D5D9F80000DFF8A8B2AF
:1019E000396800F03800ABF1040B082812D0182831
:1019F00003D101F0030001280CD0E0690028286819
:101A000034D040F0800000E0DCE02860FEF7FEFD0E
:101A1000824623E02868C00523D5E069802870D17C
:101A20001FE000BF94F82000316821F0F84141EA3E
:101A3000806030602AE000BF94F82010DBF80020BE
:101A400022F07C5242EA0161CBF800101EE000BF98
:101A5000FEF7DCFDA0EB0A0002289CD82868C00530
:101A6000F6D5FEF7CDFD4045E6D8DBE720F0800057
:101A70002860FEF7CBFD064605E000BFFEF7C6FD79
:101A8000801B022887D82868C005F7D42078000773
:101A900029D57D486169643000298046016811D0EC
:101AA00041F001010160FEF7B1FD064605E000BF0F
:101AB000FEF7ACFD801B022887D8D8F8000080070D
:101AC000F6D510E021F001010160FEF79FFD06460A
:101AD00005E000BFFEF79AFD801B022872D8D8F8F7
:101AE00000008007F6D42078800623D5A06900285E
:101AF000286810D040F480502860FEF787FD064625
:101B000005E02EE1FEF782FD801B02285AD82868E6
:101B10008004F7D50EE020F480502860FEF776FDB3
:101B2000064604E0FEF772FD801B02284AD82868AA
:101B30008004F7D4207840074FD5DFF85081D8F8DB
:101B4000001041F48071C8F80010FEF75FFD0646F2
:101B500005E000BFFEF75AFD801B642832D8D8F894
:101B60000000C005F6D5484EA068603601280AD0AE
:101B700008B1052813D0306820F0010030603068CB
:101B800020F0040002E0306840F001003060A068FE
:101B900041F2883A90B1FEF739FD80460AE030689C
:101BA00040F004003060EEE7FEF730FDA0EB0801E6
:101BB000514507D830688007F6D50EE0FEF726FDC0
:101BC000804607E084E000BFFEF720FDA0EB08019F
:101BD00051457DD830688007F6D4606AF0B3DFF8ED
:101BE000A880D9F8001008F12008C1F3C201032928
:101BF0006FD00228286820F08070286003D0FEF79C
:101C000005FD044682E0FEF701FD064605E000BF43
:101C1000FEF7FCFC801B022875D828688001F7D4E9
:101C2000E26A40F2F331386854F8283F884340EACA
:101C3000021018433860217B4FF4FE0C22894FF0CC
:101C4000FE47208A4902267D521E401EA1F50071E2
:101C500089B20CEA0040C2F3080200E083E01143BD
:101C6000761E0143084807EA06621143064A1C3003
:101C7000C8F800102432016821F0010101601168E8
:101C80004FF6F876B14303E010440258004802587A
:101C9000236A41EAC30111600168A26921F00C01C5
:101CA000114301600168E26921F002011143016002
:101CB000016841F480310160016841F40031016044
:101CC000016841F480210160016841F0010101E0F7
:101CD00019E01FE00160286840F080702860FEF77E
:101CE00095FC044605E000BFFEF790FC001B0228AF
:101CF00009D828688001F7D535E000BFFEF786FCDB
:101D0000001B022802D90320BDE8F09F286880014B
:101D1000F4D428E039680128D8F8000021D0A26A5C
:101D200001F0030393421CD1E26AC1F305118A4218
:101D300017D1216BC0F30802491E8A4211D1616B91
:101D4000C0F34622491E91420BD1A16BC0F306425B
:101D5000491E914205D1E16BC0F30660491E8142E4
:101D600001D00120D0E70020CEE7401EB0F1807FF7
:101D700010B501D3012010BD4FF0E02460610F21A8
:101D8000601700F061FC0020A0610721216110BDF7
:101D9000FEE7000030B587B014216846FEF79FFAD1
:101DA0002648016841F010010160016801F010014E
:101DB0000591016841F004010160016801F004012E
:101DC0000591016841F080010160016801F0800126
:101DD0000591016841F002010160016801F0020112
:101DE0000591016841F008010160016801F00801F6
:101DF0000591016841F00101016000680022104D69
:101E0000082100F0010005902846FEF7F4FB0024AD
:101E1000082001218DE81300694628460394FEF747
:101E2000CBFA02214FF4005000900648CDE9014161
:101E30006946FEF7C1FA07B030BD0000E044025821
:101E400000100258000802582DE9F0410E48012107
:101E500010240C4F16254FF4E066002280E8720033
:101E60000323C0E90412826140E902730838FEF7D7
:101E70002DFD002803D0BDE8F041FEF78ABABDE889
:101E8000F08100000050005224000024FEE770475B
:101E900070470000194B002230B597B01B78052B16
:101EA0000ED000BF4FF440730E934FF005030B921A
:101EB000CDE908320F92109205D14FF0807304E003
:101EC0004FF48073F0E74FF0407311934FF001032C
:101ED0000D9213924FF480054FF010041492CDE947
:101EE0000223159207950494CDE9053202AA0B4608
:101EF00008A9FEF751FC17B030BD00000000002417
:101F00002DE9F0434B6A4FF040652BB1AA4203D054
:101F100004688B6A5B1E23618B69002B68D00C6A96
:101F2000B4B303688C68DC61CC69FCB1D1E90B38CF
:101F3000D1F824C04E6B8F8A43EA080346EA0C06A8
:101F400033430E6A43EA8743D1E9037C43EA0C0337
:101F500033438E693B430F682343046833433B4359
:101F600065E0006849688161BDE8F083D1E90B361E
:101F70004F6A4C6B8D8A33433C430E6923430C6A92
:101F800043EA85438D693343096823432B4362E069
:101F9000FFE7CC69B4F1000918D0D1E90B484F6ACA
:101FA0004E6BB1F814C044EA08043E430F68344352
:101FB000CE6844EA8C44344344EA09041C43036871
:101FC0003C431443AA425C61CBD1CDE7D1E90B4637
:101FD0004F6A4D6BB1F814C034433D4300682C4345
:101FE000096844EA8C441C430C4314434461BBE736
:101FF0000B6AABB303688C68DC61CC69E4B1D1E9EE
:102000000B38D1F824C04E6B8F8A43EA080346EAA6
:102010000C0633430E6A43EA8743D1E9037C43EA63
:102020000C0333438E693B43234304683343134318
:10203000AA42636195D197E7D1E90B364F6A4C6BA1
:102040008D8A33433C430E6923430C6A43EA85433C
:1020500089693343234300680B431343436183E798
:10206000FFE7CC6984B1D1E90B384F6A4E6BB1F808
:1020700014C043EA08033E433343CE6843EA8C432B
:10208000334323430468D2E74C6A002C9DD0D1E946
:102090000B368F8A4D6B0168334325432B4343EA4C
:1020A0008740104348615FE71E4AF0B5137891B04E
:1020B000042B1BD04FF480720692EF2700224FF4BE
:1020C0004064CDE901274FF40055CDE903522601C4
:1020D00007AD4FF0407C06294FF0040185E8501011
:1020E00007D0EB240094042B09D009E04FF4407290
:1020F000E2E7ED2300930591DC070B9402E0062153
:102100000B9205914FF080510F920E92CDE90C2168
:102110000EAA6946FEF730FC002800D0012011B05D
:10212000F0BD000000000024F0B58FB0064600218D
:1021300041F288344FF48070224666250095CDE93F
:10214000060108913046099105910B910C910D9172
:102150006946FEF777FBC8B999272246694630469B
:102160000097FEF76FFB88B94FF44070224669462E
:10217000009506903046FEF765FB38B92246694661
:1021800030460097FEF75EFB002800D001200FB01C
:10219000F0BDF0B58FB014AC94E8E05000248DE8A9
:1021A0001600CDE90334CDF824C041F28832CDE9E0
:1021B0000774CDE90AE40C9469460D94CDE90556FF
:1021C000FEF740FB002800D001200FB0F0BD2DE944
:1021D000F041984616460F460446069D08E0681CE6
:1021E00006D0FEF713FAA0EB0800A8420AD84DB1BA
:1021F00020688068384000D00120B042EFD1002034
:10220000BDE8F081042084F84100606C40F00100DA
:1022100060640120F4E70000F0B5204D074695B05A
:102220002878042815D04FF480700690002441F2DD
:102230008836062007940894324605946946099426
:102240000B940C940D9400903846FEF7FBFAF0B90D
:1022500002E04FF44070E8E702204FF0050C102236
:10226000CDF800C0430513930E900121CDE90F0274
:10227000CDE91114287804280CD0080633460EAA9C
:10228000694609903846FEF787FA002800D00120F9
:1022900015B0F0BD4FF04070F0E7000000000024E2
:1022A0002DE9F047454D044689464FF0000A28685D
:1022B000C04380070AD0414E283E306820F080603D
:1022C0003060FEF7A3F90746B04608E00120BDE8FC
:1022D000F08700BFFEF79AF9C01B022867D8D8F82C
:1022E00000000001F6D4206829684FF4FE0721F4AD
:1022F0007C313E0241EA00302860207AA389B4F89C
:1023000004C040022D4D2D495B1E227CACF1010C16
:102310001035091DA0F5007080B2521ECCF3080CD8
:1023200007EA034340EA0C00184306EA026210433E
:1023300028600868626920F0C000104308600A68DD
:10234000A06922F0200202430A60281D0A6822F0D8
:1023500010020A6002684FF6F873E4699A4342EA91
:10236000C40202600868B9F1000F40F010020A6070
:1023700011D00868B9F1010F11D040F400100860C5
:10238000D8F80000444640F08060C8F80000FEF72E
:102390003DF905460DE0086840F40020EFE740F401
:1023A0008010ECE7FEF732F9401B022801D9032028
:1023B0008DE720680001F5D5504688E7284402588B
:1023C0002DE9F047454D044689464FF0000A28683C
:1023D000C04380070AD0414E283E306820F080502C
:1023E0003060FEF713F90746B04608E00120BDE86B
:1023F000F08700BFFEF70AF9C01B022867D8D8F89B
:1024000000008000F6D4208829684FF4FE0721F0F0
:102410007C713E0241EA00502860207AA389B4F81A
:1024200004C040022D4D2D495B1E227CACF1010CF5
:102430001835091DA0F5007080B2521ECCF3080CAF
:1024400007EA034340EA0C00184306EA026210431D
:1024500028600868626920F44060104308600A68D8
:10246000A06922F4007202430A60281D0A6822F45F
:1024700080720A6002684FF6F873E4699A4342EA90
:10248000C40202600868B9F1000F40F480720A606B
:1024900011D00868B9F1010F11D040F080700860C8
:1024A000D8F80000444640F08050C8F80000FEF71D
:1024B000ADF805460DE0086840F48000EFE740F411
:1024C0000000ECE7FEF7A2F8401B022801D9032028
:1024D0008DE720688000F5D5504688E728440258EB
:1024E0007047FEF799B8000070B5CCB04C212FA80A
:1024F000FDF7F5FE202142A8FDF7F1FEBC2168465C
:10250000FDF7EDFE0220FEF71DF9214800242149C8
:10251000026842F44042026002680A6842F0010226
:102520000A60096801F001014A9101688904FCD53B
:102530000220389001262F960DF1E40CC103309152
:102540000522C02314268CE80D0008253E90CDE915
:102550003C06CDE93F542FA84194FFF791F9402064
:102560003F210301CDE945500322CDE9470342ABAA
:10257000499042A883E816000421FEF7B7FFA8059A
:10258000129400906846FEF763FB4CB070BD0000EB
:10259000184802582C040058214A30B521491468C3
:1025A0000020204B44F47004146010330A681E4D60
:1025B00042F001020A6018600A681A4B2A400A6059
:1025C00018331C1D251D174A186028322060131D62
:1025D00028601C1D251D10602A1D1860131D206019
:1025E0001C1D2860251D10601860206028600A6886
:1025F0000C4B0E4C22F4802260330A601860206875
:102600006FF30F00B0F1005F03D209490120C1F858
:1026100008014FF0006002498039086030BD0000B9
:1026200088ED00E0004402587FEDF6EA0010005CFF
:1026300000800051FEE70000024810B5FFF7ECFDF6
:10264000C0B210BD1C000024090700284FEA116128
:1026500004DB00F1E02080F80014704700F00F0068
:1026600000F1E02080F8141D704702E008C8121F36
:1026700008C1002AFAD170477047002001E001C16B
:10268000121F002AFBD1704702680A490A40B2F1C2
:10269000105F0CD002680A40B2F1005F07D00068FA
:1026A000C0F3CA40B0F5C06F01D0012070470020D0
:1026B000704700000000F82FBFF34F8FBFF36F8FFC
:1026C0002D4800240460BFF34F8FBFF36F8F2B4959
:1026D000086840F400300860BFF34F8FBFF36F8F7E
:1026E000264870300460BFF34F8F001F43F6FF7C15
:1026F0000068214D1035C0F34E32C0F3C9030CEA17
:102700004216184646EA80772F60401EFAD2521EC3
:10271000F5D2BFF34F8F086840F480300860BFF3F4
:102720004F8FBFF36F8FFDF77FFFFFF7DDFEFFF7E2
:1027300031FB00F093F800F025F8062000F00CF9CA
:102740004FF010452846FFF79FFF50B9FDF7E6FD13
:102750004FF0E020046172B66868296881F3088848
:102760008047074C4FF4FA7508212046FDF73CFFDF
:102770002846FDF70FFEF7E750EF00E014ED00E00C
:102780000010025830B5184D352085B000F090F893
:102790000446800706D4FFF74FFF312044F00201C2
:1027A00000F0E6F800204FF4807103460246CDE9C0
:1027B000011038210390049000902846FFF7E9FCAF
:1027C00041F288312846FFF765FB10B105B00120C2
:1027D00030BD06490420087005B008210846BDE850
:1027E000304000F08FB800001C00002400000024DE
:1027F000184A062030B5C1051478420287B0052C6E
:102800004FF4005316D0C501049000241248CDE9BE
:10281000022190212246CDE9004500BFFFF7B9FC17
:102820000D4805A941F28832FEF756F968B101203A
:1028300007B030BDCDE903104FF480740090CDE9AE
:102840000142002204489421E8E7BDF8140040BA90
:10285000EEE70000000000241C000024052010B555
:10286000FDF798FDFFF7F0FA0648FFF75DFC002042
:10287000FDF790FDFFF7BCFF03494880BDE810401D
:1028800000F004B81C00002400000024052010B54E
:1028900000F00EF8054C2070352000F009F860704B
:1028A000152000F005F8A070002010BD04000024E1
:1028B00010B5124B86B0002201218DF814201B7830
:1028C000052B17D04FF040731C140491CDE902235F
:1028D00000230146CDE9002409481A46FFF759FCB8
:1028E000074805A941F28832FEF7F6F89DF8140072
:1028F00006B010BD4FF080731C14E6E70000002402
:102900001C00002440084FF0FF3200B587B00001E2
:1029100002EBD101103801F0030108438DF81400D7
:10292000FFF78AFE4FF0407200201314012104913A
:10293000CDE90202CDE90003C02103460246054865
:10294000FFF727FC034805A941F28832FEF724F976
:1029500007B000BD1C0000240146044810B5FFF775
:10296000A3FB002800D0012010BD00001C000024A3
:1029700013B51049002286B00B780121052B15D024
:102980004FF040731C140491CDE90223002301464B
:10299000CDE9002408481A46FFF7FBFB064807A9C3
:1029A00041F28832FEF7F8F808B010BD4FF080739E
:1029B0001C14E8E7000000241C00002400000000B4
:1029C000010203040102030406070809EC290008B8
:1029D000000000241C0000006A260008082A0008E5
:1029E0001C0000244C0400007A26000805000000AA
:1029F00000000000010000001000000000000000C6
:082A00000090D0030090D00308
:040000050800029954
:00000001FF
