:020000040800F2
:1000000090040020AD020008CF2100089D200008C8
:10001000CD21000819030008C529000800000000D0
:100020000000000000000000000000005B28000845
:100030009103000800000000D12100085D2800089D
:10004000C7020008C7020008C7020008C70200086C
:10005000C7020008C7020008C7020008C70200085C
:10006000C7020008C7020008C7020008C70200084C
:10007000C7020008C7020008C7020008C70200083C
:10008000C7020008C7020008C7020008C70200082C
:10009000C7020008C7020008C7020008C70200081C
:1000A000C7020008C7020008C7020008C70200080C
:1000B000C7020008C7020008C7020008C7020008FC
:1000C000C7020008C7020008C7020008C7020008EC
:1000D000C7020008C7020008C7020008C7020008DC
:1000E000C7020008C702000800000000C70200089D
:1000F000C7020008C7020008C7020008C7020008BC
:10010000C7020008C7020008C7020008C7020008AB
:10011000C7020008C7020008C7020008C70200089B
:10012000C7020008C7020008C7020008C70200088B
:10013000C7020008C7020008C7020008C70200087B
:1001400000000000000000000000000000000000AF
:10015000C7020008C7020008C7020008C70200085B
:10016000C7020008C7020008C7020008C70200084B
:10017000C7020008C7020008C7020008C70200083B
:10018000C7020008C7020008C7020008C70200082B
:10019000C7020008C7020008C7020008C70200081B
:1001A000C7020008C7020008C7020008C70200080B
:1001B000C7020008C7020008C7020008C7020008FB
:1001C000C7020008C7020008C7020008C7020008EB
:1001D000C7020008C7020008C7020008C7020008DB
:1001E000C7020008C7020008C7020008C7020008CB
:1001F000C7020008C7020008C7020008C7020008BB
:10020000C7020008C7020008C7020008C7020008AA
:10021000C7020008C7020008C7020008C70200089A
:10022000C7020008C7020008C7020008000000005B
:10023000C7020008C702000800000000C70200084B
:10024000C7020008C7020008C7020008C70200086A
:10025000C7020008C7020008C7020008C70200085A
:10026000C7020008C7020008C7020008C70200084A
:10027000C7020008C7020008C7020008000000000B
:10028000C7020008C7020008C702000800000000FB
:1002900000000000C7020008DFF80CD000F02AF8C8
:1002A000004800473D2A0008900400200648804787
:1002B00006480047FEE7FEE7FEE7FEE7FEE7FEE74B
:1002C000FEE7FEE7FEE7FEE729290008990200089D
:1002D000D2B201E000F8012B491EFBD27047002288
:1002E000F6E710B513460A4604461946FFF7F0FF35
:1002F000204610BD064C074D06E0E06840F00103C3
:1003000094E8070098471034AC42F6D3FFF7C8FFD3
:10031000E42D0008042E0008FEE7000070B5BFF3CE
:100320004F8FBFF36F8F184800210368174A23F4DB
:10033000003303601160BFF34F8FBFF36F8F124A1A
:1003400070321160BFF34F8F016821F4803101607A
:10035000BFF34F8F101F43F6FF7300680B4D24351A
:10036000C0F34E31C0F3C90203EA4114104600BF86
:1003700044EA80762E60401EFAD2491EF4D2BFF3C2
:100380004F8FBFF36F8F70BD14ED00E050EF00E0B2
:100390007047704770B5044600F0F6F90546601CDA
:1003A00002D004480078044400F0EEF9401BA0425B
:1003B000FAD370BD080000202DE9F04F4F4D002208
:1003C0004FF0010A4FF00F0B92E000BF0AFA02F95A
:1003D00019EA01037ED022F0030606F1B046940725
:1003E000D6F808C4270FDFF818810BFA07FE40453E
:1003F0000EEA0C0402D14FF0000C40E0DFF804C11B
:10040000604502D14FF0010C39E0DFF8FCC06045D7
:1004100002D14FF0020C32E0DFF8F0C0604502D1AB
:100420004FF0030C2BE0DFF8E8C0604502D14FF03D
:10043000040C24E0DFF8DCC0604502D14FF0050C6D
:100440001DE0DFF8D4C0604502D14FF0060C16E085
:10045000DFF8C8C0604502D14FF0070C0FE0DFF8AD
:10046000C0C0604502D14FF0080C08E0DFF8B4C00E
:10047000604502D14FF0090C01E04FF00A0C0CFA74
:1004800007FCA44513D12C689C432C606F684FF087
:10049000B0449F436F6027689F43276067689F430E
:1004A0006760D6F8084424EA0E04C6F808440768D2
:1004B0000323D4084FEA42084FEA427C03FA08F3C8
:1004C0004FEADC6C1F4307600BFA0CF600EB840468
:1004D000276A00E00BE0B7432762C4689C43C4600E
:1004E000446824EA0904446084689C438460521C84
:1004F00031FA02F37FF46AAFBDE8F08F8000005854
:10050000000002580004025800080258000C02586B
:10051000001002580014025800180258001C02581B
:1005200000200258002402582DE9FC4F01257E4C82
:1005300000234FF0030A4FF0B04E4FF00F0BEBE0EB
:1005400005FA03F637403A0077D04F68012F05D0FF
:10055000022F03D0112F01D0122F1AD187684FEA32
:100560004308D1F80CC00AFA08F927EA09070CFA7F
:1005700008FC4CEA070CC0F808C0476891F804C0B2
:10058000B743CCF3001C0CFA03FC4CEA070CC0F890
:1005900004C0C6684FEA430CD1F80880E1460AFA65
:1005A0000CF7BE43019708FA09F848EA0608C0F8B4
:1005B0000C804E68022E01D0122E12D1DE084FEAB6
:1005C000437C00EB860600960F69366A4FEADC6CC6
:1005D0000BFA0CF807FA0CF726EA08063743009ED8
:1005E00037620E790768DDF804C006F0030606FAE4
:1005F00009F627EA0C073E4306604E68F6001CD554
:100600004A4E376847F00207376036689F0706F0A2
:100610000206009623F0030606F1B046B1463F0FEE
:10062000D6F80864DFF808810BFA07FC404526EA93
:100630000C0603D14FF0000C41E06CE0DFF8F4C091
:10064000604502D14FF0010C39E0DFF8ECC06045A5
:1006500002D14FF0020C32E0DFF8E0C0604502D179
:100660004FF0030C2BE0DFF8D8C0604502D14FF00B
:10067000040C24E0DFF8CCC0604502D14FF0050C3B
:100680001DE0DFF8C4C0604502D14FF0060C16E053
:10069000DFF8B8C0604502D14FF0070C0FE0DFF87B
:1006A000B0C0604502D14FF0080C08E0DFF8A4C0EC
:1006B000604502D14FF0090C01E04FF00A0C0CFA32
:1006C00007FC4CEA060CC9F808C426684F6826EAFD
:1006D0000206FF0300D51643266066684F6826EAC7
:1006E0000206BF0300D516436660D1F804C0764603
:1006F000DEF800705FEACC2C27EA020700D517432A
:100700003760D1F804C077685FEA8C2C27EA0207CB
:1007100000D5174377605B1C0A681746DA407FF400
:100720000FAFBDE8FC8F000080000058F444025871
:10073000000002580004025800080258000C025839
:10074000001002580014025800180258001C0258E9
:1007500000200258002402580069084000D00120FF
:100760007047426931EA020200D109048161704791
:100770000AB1816170470904FBE700000148006885
:10078000000C70470010005C014880687047000052
:100790000800002002488168027811448160704797
:1007A00008000020032010B500F078F801F0C8F828
:1007B0000F4A104914681368C4F3032203F00F03AF
:1007C0008A5CC95C02F01F0201F01F01D0400A4A96
:1007D00020FA01F1116009490860002000F010F8CA
:1007E00008B1012010BD00F02BF8002010BD000062
:1007F00018440258D42D00081800002014000020CE
:1008000070B50D4D04462878A0B14FF47A71B1FB54
:10081000F0F00A490968B1FBF0F001F02CFC48B98E
:10082000102C07D200222146501E00F017F800209D
:100830006C6070BD012070BD080000201400002015
:10084000054808B5016841F002010160006800F048
:100850000200009008BD0000F44402580E4BF0B4B2
:100860001B680D46C3F30223C3F10706042E00D90B
:100870000426191D072901D2002300E0DB1E0124F4
:1008800004FA06F19C40491E2940641E9940144018
:100890002143F0BC02F0A0B80CED00E0064900F0E6
:1008A000070210B54FF6FF040868044B204040EAE9
:1008B00002201843086010BD0CED00E00000FA05AE
:1008C000134970B50A68D243520705D5096801F08B
:1008D0000701814213D118E00A6822F0070202439F
:1008E0000A60FFF751FF0A4D4FF47A760446083D3F
:1008F00007E000BFFFF748FF001BB04201D901200D
:1009000070BD2868C0438004F4D4002070BD00008E
:100910000C4802580248016841F480710160704738
:10092000004802582DE9F84F1E4615468A460446EF
:10093000FFF72AFF814694F8400001280ED00127D6
:100940004FF0000884F8407094F84100012807D067
:100950005FF0020084F84080BDE8F88F0220FBE7DA
:100960004221C4F8448084F84110002220214B46E3
:100970002046009601F0CBFD0028EBD121682868C5
:1009800088622168686848622168A868C86220682F
:100990002969026822F4400242F480021143016096
:1009A000E9684FF000622046CAF82810514601F06D
:1009B00047FC01224B4608212046009601F0A7FD86
:1009C0000028C7D122680821D16084F84170C1E7AE
:1009D0002DE9F84F17468B460446FFF7D5FE8246B1
:1009E00094F8400001280ED001264FF0000884F84A
:1009F000406094F84100012807D0022584F8408027
:100A00002846BDE8F88F0220FBE74FF00209C4F842
:100A1000448084F8419000222021534620460097CC
:100A200001F075FD0500E9D100225946204601F08C
:100A300007FCDBF8240058B9012253460221204666
:100A4000009701F064FD0500D8D12168C1F80C9031
:100A500084F84160D2E710B504000CD0206801682A
:100A600021F001010160204600F0A4F8002060643C
:100A700084F8410010BD012010BD0000F8B5044607
:100A8000FFF782FE05461CB194F8410010B107E063
:100A90000120F8BD204600F0B1F841F28830A06492
:100AA00020686FF0FF02A168036802EB012223F4C3
:100AB000706111430160A06C002220212B46009040
:100AC000204601F024FD0028E3D12268D4E907354F
:100AD0002679E168176845EA0665DFF844C01943DE
:100AE000104B29430025012607EA0C073943116002
:100AF0002268D4E90517B4F810C0D2F804E03943ED
:100B00000EEA030E4EEA0C431943516021680A684D
:100B100042F001020A60656484F84160F8BD00009B
:100B20002FFFFF00FEF8E0FF2DE9F8431646884648
:100B30000446FFF729FE034694F8400001280ED032
:100B4000012084F84000002794F84100012808D0D3
:100B50005FF0020584F840702846BDE8F883022063
:100B6000FBE7A06C8221676484F8411000222021F9
:100B70000090204601F0CBFC0500EBD120687268A4
:100B8000016821F0080111430160706808280AD14A
:100B900022681021306810632068C16020680168F5
:100BA00041F4801101604FF040624146204601F05F
:100BB00047FBCFE710B500680B49884213D10B48BB
:100BC000016821F48041016009480421FFF7F4FB2A
:100BD00008484421FFF7F0FBBDE8104006484FF4F9
:100BE0006051FFF7E9BB10BD00500052D4440258D9
:100BF0000010025800040258000C02582DE9F04180
:100C000086B0044614216846FFF769FB2B4920682B
:100C100088424FD12A48016841F480410160006850
:100C200000F48040059026480C30016841F0100126
:100C30000160016801F010010591016841F00201B5
:100C40000160016801F002010591016841F00801AD
:100C500001600068092701AA4FF0040800F00800AD
:100C6000CDF80080022469460025CDE904700326F2
:100C7000144882E87000FFF757FCCDE9008402AA0F
:100C8000DFF844806946404682E8E000FFF74CFC0C
:100C90004FF4605069468DE8F1000C48FFF744FCC2
:100CA0000A214020CDE903618DE8310069464046C4
:100CB000FFF73AFC06B0BDE8F0810000005000529A
:100CC000D44402580010025800040258000C025884
:100CD0002DE9F84F15460E460446FFF755FD8246AE
:100CE0002068816994F8403000F12009012B0DD073
:100CF00001274FF0000884F8407094F84120012A41
:100D000006D0022084F84080BDE8F88F0220FBE77F
:100D1000C4F84480A6B3222284F841200269521C00
:100D2000A2630269521C62632663426922F0406238
:100D300042F080624261206881610EE00621204617
:100D400001F0E5FBC8B999F80000216B0870206B31
:100D5000401C2063A06B401EA063A06B53464FF065
:100D6000010200950028E9D14FF00201204601F070
:100D7000CEFB10B922680221D16084F84170C1E72E
:100D8000FFE7616C012041F008016164BAE70000EF
:100D90002DE9F84F15460E460446FFF7F5FC94F88A
:100DA000401082462068012900F120090ED0012759
:100DB0004FF0000884F8407094F84110012907D0E2
:100DC0005FF0020084F84080BDE8F88F0220FBE766
:100DD000C4F8448086B3122184F841100169491C8B
:100DE000E1620169491CA1626662416921F04061CA
:100DF00041610EE00421204601F089FBC8B9606A18
:100E0000017889F80010606A401C6062E06A401E48
:100E1000E062E06A53464FF0010200950028E9D1F4
:100E20004FF00201204601F072FB10B92268022146
:100E3000D16084F84170C5E7FFE7616C012041F0A3
:100E400008016164BEE700002DE9FC5F044650F82C
:100E5000241B002500902E460801FE4FDFF8F88382
:100E60001DD5606E50B1B0F5801F0CD0B0F5001FDD
:100E70000ED0B0F5401F1DD001250FE0386840F4BA
:100E80000030386016E00221201D01F0A9FB03E0CC
:100E90000098022101F034FC05000BD02E4620887A
:100EA000C00523D5606D05281ED2DFE800F00C11C7
:100EB000161B1B00626ED8F8001021F4401111437C
:100EC000C8F80010EBE7386840F40030386009E0FB
:100ED0000021201D01F084FB03E00098002101F0B7
:100EE0000FFC05466DB100E001252E4620888005E7
:100EF00028D5A06D80281ED00CDC90B140280ED1E2
:100F000014E0626DD8F8001021F007011143C8F811
:100F10000010EBE7C02813D0B0F5807F10D001257A
:100F20000FE0386840F40030386009E00021201DEF
:100F300001F056FB03E00098002101F0E1FB0546BB
:100F400095B12E462088DFF81093400509F1080975
:100F50002CD5D4F8A400B0F5800F20D00DDCA0B1C2
:100F6000B0F5001F0FD115E0A26DD8F8001021F4E4
:100F7000E0711143C8F80010E4E7B0F5C00F13D0DA
:100F8000B0F5000F10D001250FE0386840F40030B4
:100F9000386009E00021201D01F022FB03E00098E9
:100FA000002101F0ADFB054675B12E4620880005F5
:100FB0002DD5D4F8A800B0F1007F21D00EDCA8B167
:100FC000B0F1807F10D116E0D4F8A420D9F8001039
:100FD00021F460011143C9F80010E7E7B0F1407F48
:100FE00013D0B0F1806F10D001250FE0386840F4C5
:100FF0000030386009E00021201D01F0F1FA03E023
:101000000098002101F07CFB05468DB12E4620683A
:10101000DFF844B28001ABF1040B1FD5A06CD8B14E
:1010200010280FD0202812D0302815D0012514E028
:10103000D4F8A820D9F8001021F0E0611143C9F8D4
:101040000010E4E7386840F40030386004E0022122
:10105000201D01F0C5FA05466DB12E462088C0045A
:101060002BD5E06DB0F5005F20D00DDCA0B1B0F560
:10107000805F0FD115E0A26CDBF8001021F0300189
:101080001143CBF80010E9E7B0F5405F13D0B0F59D
:10109000804F10D001250FE0386840F400303860F0
:1010A00009E00021201D01F09BFA03E000980021D7
:1010B00001F026FB054685B12E462088800429D5FF
:1010C000206EB0F5403F23D010DC08B3B0F5803F70
:1010D00014D0B0F5003F0FD115E0E26DD8F8001044
:1010E00021F4E0411143C8F80010E6E7B0F5802F85
:1010F0000ED0B0F5A02F0BD001250AE00121201D54
:1011000001F06EFA03E00098012101F0F9FA0546BA
:101110008DB12E46208840042AD5D4F8AC00B0F119
:10112000405F23D010DC08B3B0F1805F14D0B0F181
:10113000005F0FD115E0226ED8F8001021F4E021F5
:101140001143C8F80010E5E7B0F1804F0ED0B0F1C0
:10115000A04F0BD001250AE00121201D01F040FA2B
:1011600003E00098012101F0CBFA05466DB12E464F
:10117000208800041FD5E06ED8B1B0F1805F0ED09A
:10118000B0F1005F10D0012514E0D4F8AC20D9F8FC
:10119000001021F0E0411143C9F80010E8E7386879
:1011A00040F40030386004E00121201D01F018FAFD
:1011B00005466DB12E462068C0011ED5606CD0B1C9
:1011C00001280ED0022811D0032814D0012513E0E5
:1011D000E26ED8F8001021F040511143C8F8001019
:1011E000E9E7386840F40030386004E00221201D4F
:1011F00001F0F6F9054665B12E462068400257D544
:101200001648016841F480710160FFF7BDFA82461B
:101210000EE0626CDBF8001021F003011143CBF803
:101220000010EAE7FFF7B0FAA0EB0A0064283DD807
:101230000A480068C005F5D57DBBDFF81CA0B4F8EE
:10124000B0100AF1200ADAF8000001F4407100F44D
:10125000407005E02C44025850440258004802589F
:10126000884211D0DAF80010DAF8002021F4407139
:1012700042F48032CAF80020DAF8002022F48032EA
:10128000CAF80020CAF80010D4F8B000B0F5807F8A
:1012900021D1FFF779FA019019E008E0FFF774FA1D
:1012A0000199411A41F28830814210D903252E4616
:1012B0002078DFF80CA4C0073DD0A06F182838D0E4
:1012C00026DC80B3082829D0102825D12CE0DAF8B4
:1012D00000008007E2D5D4F8B010C1F30120032844
:1012E000F8480DD0016821F47C510160B4F8B020B9
:1012F000DAF80010C2F30B021143CAF80010D7E766
:10130000F14A036802EA111223F47C511143ECE71D
:1013100020280ED028280CD001250BE00121201D0B
:1013200001F05EF904E004E00098012101F0E8F921
:1013300005465DB12E46207880071ED5606F0628D1
:1013400019D2DFE800F0160C11161616A26FDAF8A3
:10135000001021F038011143CAF80010EBE7012119
:10136000201D01F03DF903E00098012101F0C8F9CA
:10137000054675B100E001252E46207840071FD5AF
:10138000D4F89000062819D2DFE800F0160C1116E8
:101390001616626FDAF8001021F007011143CAF83F
:1013A0000010EAE70121201D01F01AF903E000987E
:1013B000012101F0A5F905469DB100E001252E4669
:1013C000207880062BD5D4F88C00B0F1405F24D073
:1013D00011DC10B3B0F1805F15D0B0F1005F10D117
:1013E00016E0D4F89020D9F8001021F0070111433D
:1013F000C9F80010E4E7B0F1804F0ED0B0F1A04F73
:101400000BD001250AE00021201D01F0E9F803E0DE
:101410000098022101F074F905468DB12E4620781E
:1014200040062BD5D4F89800B0F5406F24D011DCDD
:1014300010B3B0F5806F15D0B0F5006F10D116E085
:10144000D4F88C20DAF8001021F0E0411143CAF8FA
:101450000010E4E7B0F5805F0ED0B0F5A05F0BD0D0
:1014600001250AE00021201D01F0BAF803E00098F0
:10147000022101F045F905468DB12E46207800067F
:101480002BD5D4F89C00B0F5C04F24D011DC10B39C
:10149000B0F5005F15D0B0F5804F10D116E0D4F84C
:1014A0009820D9F8001021F4E0511143C9F8001038
:1014B000E4E7B0F5004F0ED0B0F5204F0BD001257A
:1014C0000AE00021201D01F08BF803E000980221C2
:1014D00001F016F905464DB12E46207800071ED5BD
:1014E000D4F88000B0F5805F0AD00FE0D4F89C20DB
:1014F000D9F8001021F460411143C9F80010ECE75D
:101500000098022101F0FCF800B10126D4F88020F7
:10151000DAF8001021F440511143CAF80010207885
:10152000C00613D5D4F89400B0F5807F05D100989B
:10153000022101F0E5F800B10126D4F89420D9F891
:10154000001021F440711143C9F800102068000315
:1015500016D5D4F8A00038B1B0F5803F09D0B0F569
:10156000003F0BD001250AE00021201D01F038F8D2
:1015700003E00098022101F0C3F8054685B12E462C
:101580002068400322D5D4F88400B0F5801F11D024
:10159000B0F5001F13D0B0F5401F15D0012514E0A1
:1015A000D4F8A020D9F8001021F440311143C9F833
:1015B0000010E5E7386840F40030386004E0009837
:1015C000012101F09DF8054655B12E462068C00363
:1015D0001CD5E06C70B1B0F5803F10D0012514E04F
:1015E000D4F88420DAF8001021F440111143CAF82D
:1015F0000010EBE7386840F40030386004E0022166
:10160000201D00F0EDFF0546CDB12E46206880007C
:1016100005D50098022101F073F800B10126206879
:1016200080031BD5E06FB8B1B0F5807F10D0B0F566
:10163000007F11D0B0F5407F0ED001250DE0E26CA7
:10164000DBF8001021F480311143CBF80010DDE706
:10165000386840F400303860C5B32E462068C002B8
:1016600007D5226FD8F8001021F000411143C8F8C7
:1016700000102068800207D5A26ED8F8001021F073
:1016800080711143C8F800102068400009D50D484A
:10169000016821F4004101600168D4F8B8201143C9
:1016A00001602068002807DA226DDBF8001021F0C5
:1016B00040511143CBF8001096B10120BDE8FC9FCA
:1016C0005444025810440258CFFFFF00FFE7E26F76
:1016D000DAF8001021F440711143CAF80010BDE798
:1016E0000020EBE72DE9F05F04000F467ED0DFF825
:1016F0003882D8F8000000F00F00B8420CD2D8F8B9
:10170000001021F00F013943C8F80010D8F800008C
:1017100000F00F00B84269D12078844D40070AD507
:101720002069296801F07001884204D9296821F0F4
:1017300070010143296020787C4E361D00070AD5D0
:101740006069316801F07001884204D9316821F084
:101750007001014331602078C0060AD5A069316864
:1017600001F4E061884204D9316821F4E061014369
:1017700031602078DFF8B4B180060BF1080B0CD58E
:10178000E1695846DBF8002002F07002914204D96A
:10179000026822F070020A430260207880070AD5AE
:1017A000E068296801F00F01884204D9296821F016
:1017B0000F01014329602078C0073ED05B49A26831
:1017C0002868183920F47060104328606068022887
:1017D00018D0032819D00968012819D04907002911
:1017E0004ADADFF848A1AAF1080A00E044E0DAF892
:1017F000002022F007020243CAF80020FEF7C4FFCF
:10180000814612E009688903E9E709688901E6E78A
:10181000C905E4E7FEF7B8FFA0EB090141F2883003
:10182000814202D90320BDE8F09F6168DAF8000028
:1018300000F03800B0EBC10FECD1207880070AD55A
:10184000E068296801F00F01884204D2296821F07C
:101850000F0101432960D8F80010404601F00F0144
:10186000B9420BD9016821F00F01394301600068CA
:1018700000F00F00B84201D00120D4E720784007E3
:101880000AD52069296801F07001884204D22968CC
:1018900021F0700101432960207800070AD56069B2
:1018A000316801F07001884204D2316821F0700182
:1018B000014331602078C0060AD5A069316801F47F
:1018C000E061884204D2316821F4E0610143316073
:1018D000207880060CD5E1695846DBF8002002F03C
:1018E0007002914204D2026822F070020A43026040
:1018F00000F026F80E492A682B68C2F3032203F091
:101900000F038A5CC95C02F01F0201F01F01D04086
:10191000084A20FA01F11160074908600748006889
:10192000BDE8F05FFEF76CBF00200052184402587B
:10193000D42D000818000020140000200C00002006
:10194000454970B545480968434B103B11F03802D2
:1019500008D00111082A03D0102A0BD0182A0BD066
:10196000084670BD19688906FBD51968C1F3C10125
:10197000C84070BD3A4870BD3749374D18310C1D0D
:1019800024350A68096826682D6802F0030406F009
:101990000102C1F30511C5F3CC0515FB02F200EEFF
:1019A000102AB8EE400AE9B32F4ADFED2E0AB7EE4F
:1019B000001A6CB1DFED2D1A012C01D0022C43D09E
:1019C00002EE101A1068F8EE422A81EEA22A1EE0FA
:1019D0001C68A40611D51B6801EE901A1168C3F3A8
:1019E000C103F8EE612AD84001EE900AC1F3080065
:1019F000F8EE611A81EEA22A0BE001EE901ADFEDFB
:101A00001C2A00BFF8EE611A106882EEA12AC0F30A
:101A1000080001EE900AF8EE611A40EE201A31EE4D
:101A2000810A00E015E022EE000A1068C0F34620AB
:101A3000401C00EE900AF8EE600A80EE201ABCEE20
:101A4000C10A10EE100A70BD01EE901ADFED092AEE
:101A5000D8E7002070BD0000104402580090D00369
:101A600040787D0100000039304402580024744A57
:101A70000024744C20BCBE4B2DE9F05F04007CD0E8
:101A8000FF4F2078FE4D1837DFF8F493103DC00764
:101A900048D0D9F80000396800F03800102815D077
:101AA000182803D101F0030002280FD06068B0F5B8
:101AB000803F12D010B1B0F5A02F18D0286820F4C4
:101AC00080302860286820F4802009E0286880039E
:101AD00028D560680028D2D024E0286840F48030FF
:101AE0002860606888B1FEF74FFE064609E0286866
:101AF00040F480202860F0E7FEF746FE801B642853
:101B00007ED828688003F7D50CE0FEF73DFE064638
:101B100005E000BFFEF738FE801B6428F0D8286877
:101B20008003F7D4207841F20308D54E0C3E80079D
:101B30004BD5D9F80000396810F038000ED01828BD
:101B400001D188070AD0E06868B3296821F019013B
:101B500001432960FEF718FE824619E02868400715
:101B600002D5E06800288AD0FEF708FE404513D869
:101B70002069316821F47C3100E0BEE041EA0030A8
:101B8000306022E0FEF700FEA0EB0A000228B7D882
:101B900028684007F6D5E7E7207C316821F0FE4150
:101BA00041EA0060ECE7286820F001002860FEF7B9
:101BB000EBFD824606E000BFFEF7E6FDA0EB0A0063
:101BC00002289DD828684007F6D42078C00659D549
:101BD000D9F80000DFF8A8B2396800F03800ABF19E
:101BE000040B082812D0182803D101F003000128A3
:101BF0000CD0E0690028286834D040F0800000E074
:101C0000DCE02860FEF7C0FD824623E02868C005BE
:101C100023D5E069802870D11FE000BF94F8200030
:101C2000316821F0F84141EA806030602AE000BF6D
:101C300094F82010DBF8002022F07C5242EA016187
:101C4000CBF800101EE000BFFEF79EFDA0EB0A00DF
:101C500002289CD82868C005F6D5FEF78FFD4045C0
:101C6000E6D8DBE720F080002860FEF78DFD064611
:101C700005E000BFFEF788FD801B022887D8286892
:101C8000C005F7D42078000729D57D486169643004
:101C900000298046016811D041F001010160FEF782
:101CA00073FD064605E000BFFEF76EFD801B0228AF
:101CB00087D8D8F800008007F6D510E021F00101A0
:101CC0000160FEF761FD064605E000BFFEF75CFD22
:101CD000801B022872D8D8F800008007F6D420783C
:101CE000800623D5A0690028286810D040F48050D1
:101CF0002860FEF749FD064605E02EE1FEF744FDAB
:101D0000801B02285AD828688004F7D50EE020F4FA
:101D100080502860FEF738FD064604E0FEF734FDEB
:101D2000801B02284AD828688004F7D4207840070E
:101D30004FD5DFF85081D8F8001041F48071C8F811
:101D40000010FEF721FD064605E000BFFEF71CFD72
:101D5000801B642832D8D8F80000C005F6D5484E5C
:101D6000A068603601280AD008B1052813D0306871
:101D700020F001003060306820F0040002E030689C
:101D800040F001003060A06841F2883A90B1FEF75F
:101D9000FBFC80460AE0306840F004003060EEE76B
:101DA000FEF7F2FCA0EB0801514507D83068800728
:101DB000F6D50EE0FEF7E8FC804607E084E000BFC1
:101DC000FEF7E2FCA0EB080151457DD830688007A2
:101DD000F6D4606AF0B3DFF8A880D9F8001008F1F3
:101DE0002008C1F3C20103296FD00228286820F01F
:101DF0008070286003D0FEF7C7FC044682E0FEF73F
:101E0000C3FC064605E000BFFEF7BEFC801B0228AF
:101E100075D828688001F7D4E26A40F2F331386857
:101E200054F8283F884340EA021018433860217B69
:101E30004FF4FE0C22894FF0FE47208A4902267D8E
:101E4000521E401EA1F5007189B20CEA0040C2F397
:101E5000080200E083E01143761E0143084807EAC8
:101E600006621143064A1C30C8F80010243201688B
:101E700021F00101016011684FF6F876B14303E0EB
:101E80001044025800480258236A41EAC301116015
:101E90000168A26921F00C01114301600168E26947
:101EA00021F0020111430160016841F480310160B9
:101EB000016841F400310160016841F48021016052
:101EC000016841F0010101E019E01FE001602868AC
:101ED00040F080702860FEF757FC044605E000BF24
:101EE000FEF752FC001B022809D828688001F7D5AC
:101EF00035E000BFFEF748FC001B022802D9032092
:101F0000BDE8F09F28688001F4D428E039680128F2
:101F1000D8F8000021D0A26A01F0030393421CD13B
:101F2000E26AC1F305118A4217D1216BC0F308029E
:101F3000491E8A4211D1616BC0F34622491E91426B
:101F40000BD1A16BC0F30642491E914205D1E16B52
:101F5000C0F30660491E814201D00120D0E7002075
:101F6000CEE700002DE9F04104004FF0010554D008
:101F700094F82100002528B9002084F8200020468C
:101F800000F050F8022184F82110CA202268532161
:101F9000506220684162204600F042FC4FF0FF068C
:101FA0004FF0040710BB20681D4A81681140816012
:101FB000D4E90013D4F818C02269886842EA0C02F8
:101FC00018431043886022682189E06840EA014094
:101FD00010612068C16821F08001C16020688068BC
:101FE000800609D4204600F02BF828B1206801258E
:101FF000466284F8217010E020680122C16C21F053
:102000000301C16421686369E069CF6C18433843F8
:10201000C8642068466284F821202846BDE8F08123
:10202000BFFF8FFF00680449884204D1034801685C
:1020300041F400410160704700400058704402586C
:1020400070B504460068C16821F0A001C160FEF7C8
:102050009BFB4FF47A76054607E000BFFEF794FB42
:10206000401BB04201D9032070BD2068C0688006C3
:10207000F4D5002070BD401EB0F1807F10B501D3B3
:10208000012010BD4FF0E02460610F21601700F0C7
:10209000A3FC0020A0610721216110BDFEE7000024
:1020A00030B587B014216846FEF719F92648016853
:1020B00041F010010160016801F010010591016813
:1020C00041F004010160016801F00401059101681B
:1020D00041F080010160016801F080010591016813
:1020E00041F002010160016801F0020105910168FF
:1020F00041F008010160016801F0080105910168E3
:1021000041F00101016000680022104D082100F03B
:10211000010005902846FEF72BFB00240820012132
:102120008DE81300694628460394FEF7FDF9022165
:102130004FF4005000900648CDE901416946FEF792
:10214000F3F907B030BD0000E04402580010025817
:10215000000802582DE9F0410D4801210B4F2023C2
:102160001024162580C04FF4E066002280E87A0033
:10217000C0E90512C261001FFEF780FC002803D0F1
:10218000BDE8F041FEF705B9BDE8F081005000520E
:102190001C0000200C4800210A4A7F2310B5FF24B0
:1021A00004C080E81A00C160416181610161001FC3
:1021B000FFF7D8FE002803D0BDE81040FEF7E9B8CD
:1021C00010BD00000040005868000020FEE7704786
:1021D00070470000194B002230B597B01B78052BD3
:1021E0000ED000BF4FF440730E934FF005030B92D7
:1021F000CDE908320F92109205D14FF0807304E0C0
:102200004FF48073F0E74FF0407311934FF00103E8
:102210000D9213924FF480054FF010041492CDE903
:102220000223159207950494CDE9053202AA0B46C4
:1022300008A9FEF777FB17B030BD000000000020B2
:102240002DE9F0434B6A4FF040652BB1AA4203D011
:1022500004688B6A5B1E23618B69002B68D00C6A53
:10226000B4B303688C68DC61CC69FCB1D1E90B388C
:10227000D1F824C04E6B8F8A43EA080346EA0C0665
:1022800033430E6A43EA8743D1E9037C43EA0C03F4
:1022900033438E693B430F682343046833433B4316
:1022A00065E0006849688161BDE8F083D1E90B36DB
:1022B0004F6A4C6B8D8A33433C430E6923430C6A4F
:1022C00043EA85438D693343096823432B4362E026
:1022D000FFE7CC69B4F1000918D0D1E90B484F6A87
:1022E0004E6BB1F814C044EA08043E430F6834430F
:1022F000CE6844EA8C44344344EA09041C4303682E
:102300003C431443AA425C61CBD1CDE7D1E90B46F3
:102310004F6A4D6BB1F814C034433D4300682C4301
:10232000096844EA8C441C430C4314434461BBE7F2
:102330000B6AABB303688C68DC61CC69E4B1D1E9AA
:102340000B38D1F824C04E6B8F8A43EA080346EA63
:102350000C0633430E6A43EA8743D1E9037C43EA20
:102360000C0333438E693B432343046833431343D5
:10237000AA42636195D197E7D1E90B364F6A4C6B5E
:102380008D8A33433C430E6923430C6A43EA8543F9
:1023900089693343234300680B431343436183E755
:1023A000FFE7CC6984B1D1E90B384F6A4E6BB1F8C5
:1023B00014C043EA08033E433343CE6843EA8C43E8
:1023C000334323430468D2E74C6A002C9DD0D1E903
:1023D0000B368F8A4D6B0168334325432B4343EA09
:1023E0008740104348615FE71E4AF0B5137891B00B
:1023F000042B1BD04FF480720692EF2700224FF47B
:102400004064CDE901274FF40055CDE90352260180
:1024100007AD4FF0407C06294FF0040185E85010CD
:1024200007D0EB240094042B09D009E04FF440724C
:10243000E2E7ED2300930591DC070B9402E006210F
:102440000B9205914FF080510F920E92CDE90C2125
:102450000EAA6946FEF768FB002800D0012011B0E3
:10246000F0BD000000000020F0B58FB0064600214E
:1024700041F288344FF48070224666250095CDE9FC
:10248000060108913046099105910B910C910D912F
:102490006946FEF79DFAC8B9992722466946304633
:1024A0000097FEF795FA88B94FF4407022466946C6
:1024B000009506903046FEF78BFA38B922466946F9
:1024C00030460097FEF784FA002800D001200FB0B4
:1024D000F0BDF0B58FB014AC94E8E05000248DE866
:1024E0001600CDE90334CDF824C041F28832CDE99D
:1024F0000774CDE90AE40C9469460D94CDE90556BC
:10250000FEF766FA002800D001200FB0F0BD2DE9DB
:10251000F041984616460F460446069D08E0681CA2
:1025200006D0FEF731F9A0EB0800A8420AD84DB159
:1025300020688068384000D00120B042EFD10020F0
:10254000BDE8F081042084F84100606C40F0010097
:1025500060640120F4E70000F0B5204D074695B017
:102560002878042815D04FF480700690002441F29A
:1025700088360620079408943246059469460994E3
:102580000B940C940D9400903846FEF721FAF0B9A4
:1025900002E04FF44070E8E702204FF0050C1022F3
:1025A000CDF800C0430513930E900121CDE90F0231
:1025B000CDE91114287804280CD0080633460EAA59
:1025C000694609903846FEF7ADF9002800D0012091
:1025D00015B0F0BD4FF04070F0E7000000000020A3
:1025E0002DE9F047454D044689464FF0000A28681A
:1025F000C04380070AD0414E283E306820F08060FA
:102600003060FEF7C1F80746B04608E00120BDE89B
:10261000F08700BFFEF7B8F8C01B022867D8D8F8CB
:1026200000000001F6D4206829684FF4FE0721F469
:102630007C313E0241EA00302860207AA389B4F858
:1026400004C040022D4D2D495B1E227CACF1010CD3
:102650001035091DA0F5007080B2521ECCF3080C95
:1026600007EA034340EA0C00184306EA02621043FB
:1026700028600868626920F0C000104308600A689A
:10268000A06922F0200202430A60281D0A6822F095
:1026900010020A6002684FF6F873E4699A4342EA4E
:1026A000C40202600868B9F1000F40F010020A602D
:1026B00011D00868B9F1010F11D040F40010086082
:1026C000D8F80000444640F08060C8F80000FEF7EB
:1026D0005BF805460DE0086840F40020EFE740F4A1
:1026E0008010ECE7FEF750F8401B022801D90320C8
:1026F0008DE720680001F5D5504688E72844025848
:102700002DE9F047454D044689464FF0000A2868F8
:10271000C04380070AD0414E283E306820F08050E8
:102720003060FEF731F80746B04608E00120BDE80A
:10273000F08700BFFEF728F8C01B022867D8D8F83A
:1027400000008000F6D4208829684FF4FE0721F0AD
:102750007C713E0241EA00502860207AA389B4F8D7
:1027600004C040022D4D2D495B1E227CACF1010CB2
:102770001835091DA0F5007080B2521ECCF3080C6C
:1027800007EA034340EA0C00184306EA02621043DA
:1027900028600868626920F44060104308600A6895
:1027A000A06922F4007202430A60281D0A6822F41C
:1027B00080720A6002684FF6F873E4699A4342EA4D
:1027C000C40202600868B9F1000F40F480720A6028
:1027D00011D00868B9F1010F11D040F08070086085
:1027E000D8F80000444640F08050C8F80000FDF7DB
:1027F000CBFF05460DE0086840F48000EFE740F4A9
:102800000000ECE7FDF7C0FF401B022801D90320C0
:102810008DE720688000F5D5504688E728440258A7
:1028200070B504460068C168490614D44FF0FF3102
:10283000C160FDF7A9FF4FF47A76054607E000BFB7
:10284000FDF7A2FF401BB04201D9032070BD2068F4
:10285000C0684006F4D5002070BD7047FDF79ABFF0
:10286000F0B5CBB04C212FA8FDF739FD202142A8AF
:10287000FDF735FDBC216846FDF731FD0220FEF76E
:102880001FF8264926480A6822F001020A600968F2
:102890000168002421F4404141F4004101600168D5
:1028A00001F440414A9101688904FCD5FEF732F8F1
:1028B000FDF764FF1B4B052101221E68022008253D
:1028C00026F018071F60C603319238906023CDE9C7
:1028D0002F1639AE86E80B00CDE93C023E902FA8BA
:1028E000CDE93F544194FFF7C7F842AA3F200321A6
:1028F00082E833000121469442A8479448944994C1
:10290000FEF7F0FE4FF01070129469012C910090C8
:102910006846FEF799FA4BB0F0BD00002C04005851
:102920001848025870440258214A30B521491468A9
:102930000020204B44F47004146010330A681E4DCC
:1029400042F001020A6018600A681A4B2A400A60C5
:1029500018331C1D251D174A186028322060131DCE
:1029600028601C1D251D10602A1D1860131D206085
:102970001C1D2860251D10601860206028600A68F2
:102980000C4B0E4C22F4802260330A6018602068E1
:102990006FF30F00B0F1005F03D209490120C1F8C5
:1029A00008014FF0006002498039086030BD000026
:1029B00088ED00E0004402587FEDF6EA0010005C6C
:1029C00000800051FEE70000024810B5FFF7C4FD8B
:1029D000C0B210BD1C000020090700284FEA116199
:1029E00004DB00F1E02080F80014704700F00F00D5
:1029F00000F1E02080F8141D704702E008C8121FA3
:102A000008C1002AFAD170477047002001E001C1D7
:102A1000121F002AFBD17047026807490A40B2F131
:102A2000105F06D000680840B0F1005F01D00120BF
:102A300070470020704700000000F82FBFF34F8F51
:102A4000BFF36F8F4C4800240460BFF34F8FBFF378
:102A50006F8F4A49086840F400300860BFF34F8F19
:102A6000BFF36F8F454870300460BFF34F8F001F76
:102A700043F6FF760068404D1035C0F34E32C0F388
:102A8000C90306EA4217184647EA807CC5F800C029
:102A9000401EF9D2521EF4D2BFF34F8F086840F4A3
:102AA00080300860BFF34F8FBFF36F8FFDF77AFE62
:102AB000FFF7D6FEFFF7F4FAFFF76CFB00F0DAF849
:102AC00000F06CF8062000F053F9DFF8B4804FF402
:102AD000005739464046FDF73FFE2A4D01284FF08A
:102AE000E02630D1322004E008212846FDF739FEE7
:102AF0005020FDF74FFC39464046FDF72DFE0128DA
:102B0000F2D02148FDF7A7FF4FF6FF771F4839465F
:102B1000FDF752FC1E483946FDF74EFC394640464B
:102B2000FDF74AFC1B483946FDF746FC3946284666
:102B3000FDF742FCFDF7F2FB34611749486809686C
:102B400081F3088880474FF010473846FFF764FF4D
:102B500038B9FDF7E3FB34617868396881F3088898
:102B600080474FF4FA7428460821FDF7FAFD204605
:102B7000FDF710FCF7E7000050EF00E014ED00E077
:102B800000080258001002581C00002000000258E3
:102B900000040258000C02580098F01F30B5184D80
:102BA000352085B000F090F80446800706D4FFF782
:102BB0000BFF312044F0020100F0E6F800204FF452
:102BC000807103460246CDE901103821039004903C
:102BD00000902846FFF77DFC41F288312846FFF738
:102BE000F9FA10B105B0012030BD06490420087083
:102BF00005B008210846BDE8304000F08FB800005D
:102C00001C00002000000020184A062030B5C10535
:102C10001478420287B0052C4FF4005316D0C5013A
:102C2000049000241248CDE9022190212246CDE9EA
:102C3000004500BFFFF74DFC0D4805A941F2883261
:102C4000FEF746F868B1012007B030BDCDE90310AA
:102C50004FF480740090CDE9014200220448942191
:102C6000E8E7BDF8140040BAEEE7000000000020DD
:102C70001C000020052010B5FDF78CFBFFF76AFA59
:102C80000648FFF7F1FB0020FDF784FBFFF7BCFFD0
:102C900003494880BDE8104000F004B81C00002043
:102CA00000000020052010B500F00EF8054C207043
:102CB000352000F009F86070152000F005F8A070CC
:102CC000002010BD0400002010B5124B86B0002279
:102CD00001218DF814201B78052B17D04FF040737D
:102CE0001C140491CDE9022300230146CDE9002400
:102CF00009481A46FFF7EDFB074805A941F288325B
:102D0000FDF7E6FF9DF8140006B010BD4FF080738C
:102D10001C14E6E7000000201C00002040084FF0D3
:102D2000FF3200B587B0000102EBD101103801F08D
:102D3000030108438DF81400FFF746FE4FF0407280
:102D40000020131401210491CDE90202CDE9000312
:102D5000C021034602460548FFF7BBFB034805A90F
:102D600041F28832FEF714F807B000BD1C000020C5
:102D70000146044810B5FFF737FB002800D00120BA
:102D800010BD00001C00002013B51049002286B0C1
:102D90000B780121052B15D04FF040731C140491C2
:102DA000CDE9022300230146CDE9002408481A4654
:102DB000FFF78FFB064807A941F28832FDF7E8FFCD
:102DC00008B010BD4FF080731C14E8E7000000202D
:102DD0001C000020000000000102030401020304A3
:102DE00006070809042E0008000000201C0000004F
:102DF000FA290008202E00081C000020740400009E
:102E00000A2A000805000000000000000100000080
:102E100010000000000000000090D0030090D003DC
:040000050800029954
:00000001FF
