:0200000490006A
:1000000028040024AD020090A71B0090971A0090CE
:10001000A51B009019030090451F009000000000F0
:10002000000000000000000000000000ED1D009036
:100030009903009000000000A91B0090EF1D0090A4
:10004000C7020090C7020090C7020090C70200904C
:10005000C7020090C7020090C7020090C70200903C
:10006000C7020090C7020090C7020090C70200902C
:10007000C7020090C7020090C7020090C70200901C
:10008000C7020090C7020090C7020090C70200900C
:10009000C7020090C7020090C7020090C7020090FC
:1000A000C7020090C7020090C7020090C7020090EC
:1000B000C7020090C7020090C7020090C7020090DC
:1000C000C7020090C7020090C7020090C7020090CC
:1000D000C7020090C7020090C7020090C7020090BC
:1000E000C7020090C702009000000000C702009005
:1000F000C7020090C7020090C7020090C70200909C
:10010000C7020090C7020090C7020090C70200908B
:10011000C7020090C7020090C7020090C70200907B
:10012000C7020090C7020090C7020090C70200906B
:10013000C7020090C7020090C7020090C70200905B
:1001400000000000000000000000000000000000AF
:10015000C7020090C7020090C7020090C70200903B
:10016000C7020090C7020090C7020090C70200902B
:10017000C7020090C7020090C7020090C70200901B
:10018000C7020090C7020090C7020090C70200900B
:10019000C7020090C7020090C7020090C7020090FB
:1001A000C7020090C7020090C7020090C7020090EB
:1001B000C7020090C7020090C7020090C7020090DB
:1001C000C7020090C7020090C7020090C7020090CB
:1001D000C7020090C7020090C7020090C7020090BB
:1001E000C7020090C7020090C7020090C7020090AB
:1001F000C7020090C7020090C7020090C70200909B
:10020000C7020090C7020090C7020090C70200908A
:10021000C7020090C7020090C7020090C70200907A
:10022000C7020090C7020090C702009000000000C3
:10023000C7020090C702009000000000C7020090B3
:10024000C7020090C7020090C7020090C70200904A
:10025000C7020090C7020090C7020090C70200903A
:10026000C7020090C7020090C7020090C70200902A
:10027000C7020090C7020090C70200900000000073
:10028000C7020090C7020090C70200900000000063
:1002900000000000C7020090DFF80CD000F02AF840
:1002A00000480047891F0090280400240648804722
:1002B00006480047FEE7FEE7FEE7FEE7FEE7FEE74B
:1002C000FEE7FEE7FEE7FEE7A91E00909902009018
:1002D000D2B201E000F8012B491EFBD27047002288
:1002E000F6E710B513460A4604461946FFF7F0FF35
:1002F000204610BD064C074D06E0E06840F00103C3
:1003000094E8070098471034AC42F6D3FFF7C8FFD3
:10031000EC1F00900C200090FEE70000F0B5BFF34A
:100320004F8FBFF36F8F1A4900200860BFF34F8FC4
:10033000BFF36F8F174A116841F400311160BFF3AA
:100340004F8FBFF36F8F134970310860BFF34F8F2A
:10035000081F43F6FF7400680D4D1035C0F34E3191
:10036000C0F3C90304EA4116184600BF46EA807785
:100370002F60401EFAD2491EF4D2BFF34F8F10688F
:1003800040F480301060BFF34F8FBFF36F8FF0BD2C
:1003900050EF00E014ED00E07047704770B5044680
:1003A00000F038F90546601C02D004480078044487
:1003B00000F030F9401BA042FAD370BD00000024C9
:1003C0002DE9FC4F01257E4C00234FF0030A4FF02E
:1003D000B04E4FF00F0BEBE005FA03F637403A0052
:1003E00077D04F68012F05D0022F03D0112F01D0F5
:1003F000122F1AD187684FEA4308D1F80CC00AFAC5
:1004000008F927EA09070CFA08FC4CEA070CC0F8BF
:1004100008C0476891F804C0B743CCF3001C0CFA3D
:1004200003FC4CEA070CC0F804C0C6684FEA430C52
:10043000D1F80880E1460AFA0CF7BE43019708FAA2
:1004400009F848EA0608C0F80C804E68022E01D070
:10045000122E12D1DE084FEA437C00EB860600968E
:100460000F69366A4FEADC6C0BFA0CF807FA0CF7E6
:1004700026EA08063743009E37620E790768DDF8E2
:1004800004C006F0030606FA09F627EA0C073E4305
:1004900006604E68F6001CD54A4E376847F00207E2
:1004A000376036689F0706F00206009623F00306C1
:1004B00006F1B046B1463F0FD6F80864DFF8088170
:1004C0000BFA07FC404526EA0C0603D14FF0000C5E
:1004D00041E06CE0DFF8F4C0604502D14FF0010C60
:1004E00039E0DFF8ECC0604502D14FF0020C32E099
:1004F000DFF8E0C0604502D14FF0030C2BE0DFF8DD
:10050000D8C0604502D14FF0040C24E0DFF8CCC025
:10051000604502D14FF0050C1DE0DFF8C4C0604516
:1005200002D14FF0060C16E0DFF8B8C0604502D1EA
:100530004FF0070C0FE0DFF8B0C0604502D14FF07C
:10054000080C08E0DFF8A4C0604502D14FF0090CA8
:1005500001E04FF00A0C0CFA07FC4CEA060CC9F853
:1005600008C426684F6826EA0206FF0300D5164332
:10057000266066684F6826EA0206BF0300D5164368
:100580006660D1F804C07646DEF800705FEACC2CD5
:1005900027EA020700D517433760D1F804C077680F
:1005A0005FEA8C2C27EA020700D5174377605B1CB3
:1005B0000A681746DA407FF40FAFBDE8FC8F0000F1
:1005C00080000058F4440258000002580004025809
:1005D00000080258000C025800100258001402587B
:1005E00000180258001C025800200258002402582B
:1005F000426931EA020200D10904816170470AB1FF
:10060000816170470904FBE701480068000C7047EE
:100610000010005C01488068704700000000002462
:10062000024881680278114481607047000000240C
:10063000032010B500F0C6F800F07CFE0F4A104908
:1006400014681368C4F3032203F00F038A5CC95CC7
:1006500002F01F0201F01F01D0400A4A20FA01F106
:10066000116009490860002000F010F808B101206D
:1006700010BD00F079F8002010BD000018440258A9
:10068000DC1F0090100000240C00002470B50D4DFC
:1006900004462878A0B14FF47A71B1FBF0F00A4912
:1006A0000968B1FBF0F001F0E3F948B9102C07D26A
:1006B00000222146501E00F065F800206C6070BDDD
:1006C000012070BD000000240C000024F0B5154C82
:1006D0004378211D0A1D23600378F3B143680B6042
:1006E000057BC67A817A437B2D07847B45EA0665C4
:1006F000C77B90F809C0067A90F800E045EAC1404F
:1007000040EA834040EA444040EA074040EA0C2087
:1007100040EA460040EA0E0001E000200860106058
:10072000F0BD000098ED00E0BFF35F8F04480021AA
:100730000368034A23F4803303607032116070470A
:1007400024ED00E0074A40F00100064970321060D5
:10075000086840F480300860BFF34F8FBFF36F8F9D
:100760007047000024ED00E0054808B5016841F03D
:1007700002010160006800F00200009008BD000066
:10078000F44402580E4BF0B41B680D46C3F3022329
:10079000C3F10706042E00D90426191D072901D22A
:1007A000002300E0DB1E012404FA06F19C40491EF0
:1007B0002940641E994014402143F0BC01F0C3BBA2
:1007C0000CED00E0064900F0070210B54FF6FF04FB
:1007D0000868044B204040EA02201843086010BD1E
:1007E0000CED00E00000FA05134970B50A68D24329
:1007F000520705D5096801F00701814213D118E0BD
:100800000A6822F0070202430A60FFF703FF0A4D5D
:100810004FF47A760446083D07E000BFFFF7FAFE82
:10082000001BB04201D9012070BD2868C04380047C
:10083000F4D4002070BD00000C4802582DE9FC5F84
:10084000044650F8241B002500902E460801FE4F58
:10085000DFF8F8831DD5606E50B1B0F5801F0CD065
:10086000B0F5001F0ED0B0F5401F1DD001250FE0E0
:10087000386840F40030386016E00221201D01F095
:1008800095F903E00098022101F020FA05000BD051
:100890002E462088C00523D5606D05281ED2DFE8CE
:1008A00000F00C11161B1B00626ED8F8001021F42A
:1008B00040111143C8F80010EBE7386840F40030ED
:1008C000386009E00021201D01F070F903E0009874
:1008D000002101F0FBF905466DB100E001252E462F
:1008E0002088800528D5A06D80281ED00CDC90B112
:1008F00040280ED114E0626DD8F8001021F00701F5
:100900001143C8F80010EBE7C02813D0B0F5807F82
:1009100010D001250FE0386840F40030386009E05D
:100920000021201D01F042F903E00098002101F0B0
:10093000CDF9054695B12E462088DFF81093400585
:1009400009F108092CD5D4F8A400B0F5800F20D007
:100950000DDCA0B1B0F5001F0FD115E0A26DD8F8E5
:10096000001021F4E0711143C8F80010E4E7B0F57D
:10097000C00F13D0B0F5000F10D001250FE038687C
:1009800040F40030386009E00021201D01F00EF92C
:1009900003E00098002101F099F9054675B12E4653
:1009A000208800052DD5D4F8A800B0F1007F21D013
:1009B0000EDCA8B1B0F1807F10D116E0D4F8A420ED
:1009C000D9F8001021F460011143C9F80010E7E7DD
:1009D000B0F1407F13D0B0F1806F10D001250FE04F
:1009E000386840F40030386009E00021201D01F033
:1009F000DDF803E00098002101F068F905468DB1AB
:100A00002E462068DFF844B28001ABF1040B1FD5FD
:100A1000A06CD8B110280FD0202812D0302815D0C3
:100A2000012514E0D4F8A820D9F8001021F0E061E5
:100A30001143C9F80010E4E7386840F4003038602A
:100A400004E00221201D01F0B1F805466DB12E46EB
:100A50002088C0042BD5E06DB0F5005F20D00DDC00
:100A6000A0B1B0F5805F0FD115E0A26CDBF80010EB
:100A700021F030011143CBF80010E9E7B0F5405FF9
:100A800013D0B0F5804F10D001250FE0386840F446
:100A90000030386009E00021201D01F087F803E0F4
:100AA0000098002101F012F9054685B12E462088F4
:100AB000800429D5206EB0F5403F23D010DC08B368
:100AC000B0F5803F14D0B0F5003F0FD115E0E26DD6
:100AD000D8F8001021F4E0411143C8F80010E6E70F
:100AE000B0F5802F0ED0B0F5A02F0BD001250AE075
:100AF0000121201D01F05AF803E00098012101F0C6
:100B0000E5F805468DB12E46208840042AD5D4F854
:100B1000AC00B0F1405F23D010DC08B3B0F1805FCF
:100B200014D0B0F1005F0FD115E0226ED8F800109C
:100B300021F4E0211143C8F80010E5E7B0F1804F3F
:100B40000ED0B0F1A04F0BD001250AE00121201DED
:100B500001F02CF803E00098012101F0B7F80546F8
:100B60006DB12E46208800041FD5E06ED8B1B0F1DB
:100B7000805F0ED0B0F1005F10D0012514E0D4F8F2
:100B8000AC20D9F8001021F0E0411143C9F8001061
:100B9000E8E7386840F40030386004E00121201DA7
:100BA00001F004F805466DB12E462068C0011ED53F
:100BB000606CD0B101280ED0022811D0032814D0C7
:100BC000012513E0E26ED8F8001021F040511143E6
:100BD000C8F80010E9E7386840F40030386004E0F5
:100BE0000221201D00F0E2FF054665B12E46206877
:100BF000400257D51648016841F480710160FFF743
:100C000009FD82460EE0626CDBF8001021F0030162
:100C10001143CBF80010EAE7FFF7FCFCA0EB0A0059
:100C200064283DD80A480068C005F5D57DBBDFF8CB
:100C30001CA0B4F8B0100AF1200ADAF8000001F4A0
:100C4000407100F4407005E02C44025850440258B2
:100C500000480258884211D0DAF80010DAF8002073
:100C600021F4407142F48032CAF80020DAF8002002
:100C700022F48032CAF80020CAF80010D4F8B0007C
:100C8000B0F5807F21D1FFF7C5FC019019E008E0A5
:100C9000FFF7C0FC0199411A41F28830814210D916
:100CA00003252E462078DFF80CA4C0073DD0A06FA6
:100CB000182838D026DC80B3082829D0102825D160
:100CC0002CE0DAF800008007E2D5D4F8B010C1F3C8
:100CD00001200328F8480DD0016821F47C510160FF
:100CE000B4F8B020DAF80010C2F30B021143CAF8CE
:100CF0000010D7E7F14A036802EA111223F47C518D
:100D00001143ECE720280ED028280CD001250BE059
:100D10000121201D00F04AFF04E004E000980121B9
:100D200000F0D4FF05465DB12E46207880071ED521
:100D3000606F062819D2DFE800F0160C111616169F
:100D4000A26FDAF8001021F038011143CAF8001040
:100D5000EBE70121201D00F029FF03E000980121AD
:100D600000F0B4FF054675B100E001252E4620785D
:100D700040071FD5D4F89000062819D2DFE800F00C
:100D8000160C11161616626FDAF8001021F0070122
:100D90001143CAF80010EAE70121201D00F006FF08
:100DA00003E00098012100F091FF05469DB100E0AD
:100DB00001252E46207880062BD5D4F88C00B0F182
:100DC000405F24D011DC10B3B0F1805F15D0B0F1DA
:100DD000005F10D116E0D4F89020D9F8001021F06F
:100DE00007011143C9F80010E4E7B0F1804F0ED0BD
:100DF000B0F1A04F0BD001250AE00021201D00F02A
:100E0000D5FE03E00098022100F060FF05468DB199
:100E10002E46207840062BD5D4F89800B0F5406FC8
:100E200024D011DC10B3B0F5806F15D0B0F5006F91
:100E300010D116E0D4F88C20DAF8001021F0E0414F
:100E40001143CAF80010E4E7B0F5805F0ED0B0F5AA
:100E5000A05F0BD001250AE00021201D00F0A6FEB6
:100E600003E00098022100F031FF05468DB12E46C7
:100E7000207800062BD5D4F89C00B0F5C04F24D0C4
:100E800011DC10B3B0F5005F15D0B0F5804F10D174
:100E900016E0D4F89820D9F8001021F4E05111435D
:100EA000C9F80010E4E7B0F5004F0ED0B0F5204FC0
:100EB0000BD001250AE00021201D00F077FE03E0A1
:100EC0000098022100F002FF05464DB12E46207821
:100ED00000071ED5D4F88000B0F5805F0AD00FE07F
:100EE000D4F89C20D9F8001021F460411143C9F8CE
:100EF0000010ECE70098022100F0E8FE00B10126A6
:100F0000D4F88020DAF8001021F440511143CAF8D7
:100F100000102078C00613D5D4F89400B0F5807F77
:100F200005D10098022100F0D1FE00B10126D4F8CD
:100F30009420D9F8001021F440711143C9F8001031
:100F40002068000316D5D4F8A00038B1B0F5803F72
:100F500009D0B0F5003F0BD001250AE00021201D8B
:100F600000F024FE03E00098022100F0AFFE0546E9
:100F700085B12E462068400322D5D4F88400B0F510
:100F8000801F11D0B0F5001F13D0B0F5401F15D051
:100F9000012514E0D4F8A020D9F8001021F4403144
:100FA0001143C9F80010E5E7386840F400303860B4
:100FB00004E00098012100F089FE054655B12E4657
:100FC0002068C0031CD5E06C70B1B0F5803F10D034
:100FD000012514E0D4F88420DAF8001021F440113F
:100FE0001143CAF80010EBE7386840F4003038606D
:100FF00004E00221201D00F0D9FD0546CDB12E46AA
:101000002068800005D50098022100F05FFE00B145
:101010000126206880031BD5E06FB8B1B0F5807F52
:1010200010D0B0F5007F11D0B0F5407F0ED0012573
:101030000DE0E26CDBF8001021F480311143CBF8B5
:101040000010DDE7386840F400303860C5B32E4644
:101050002068C00207D5226FD8F8001021F00041A7
:101060001143C8F800102068800207D5A26ED8F896
:10107000001021F080711143C8F800102068400072
:1010800009D50D48016821F4004101600168D4F8D8
:10109000B820114301602068002807DA226DDBF8D0
:1010A000001021F040511143CBF8001096B10120FF
:1010B000BDE8FC9F5444025810440258CFFFFF0083
:1010C000FFE7E26FDAF8001021F440711143CAF82B
:1010D0000010BDE70020EBE72DE9F05F04000F46AC
:1010E0007ED0DFF83882D8F8000000F00F00B84258
:1010F0000CD2D8F8001021F00F013943C8F80010C5
:10110000D8F8000000F00F00B84269D12078844D73
:1011100040070AD52069296801F07001884204D986
:10112000296821F070010143296020787C4E361D2A
:1011300000070AD56069316801F07001884204D95E
:10114000316821F07001014331602078C0060AD572
:10115000A069316801F4E061884204D9316821F462
:10116000E061014331602078DFF8B4B180060BF113
:10117000080B0CD5E1695846DBF8002002F070023C
:10118000914204D9026822F070020A43026020787A
:1011900080070AD5E068296801F00F01884204D968
:1011A000296821F00F01014329602078C0073ED053
:1011B0005B49A2682868183920F4706010432860E1
:1011C0006068022818D0032819D00968012819D0AE
:1011D000490700294ADADFF848A1AAF1080A00E025
:1011E00044E0DAF8002022F007020243CAF80020A7
:1011F000FFF710FA814612E009688903E9E70968F8
:101200008901E6E7C905E4E7FFF704FAA0EB090165
:1012100041F28830814202D90320BDE8F09F616825
:10122000DAF8000000F03800B0EBC10FECD1207804
:1012300080070AD5E068296801F00F01884204D2CE
:10124000296821F00F0101432960D8F800104046B9
:1012500001F00F01B9420BD9016821F00F013943A8
:101260000160006800F00F00B84201D00120D4E70F
:10127000207840070AD52069296801F0700188426A
:1012800004D2296821F07001014329602078000709
:101290000AD56069316801F07001884204D2316872
:1012A00021F07001014331602078C0060AD5A069A1
:1012B000316801F4E061884204D2316821F4E061D0
:1012C00001433160207880060CD5E1695846DBF88F
:1012D000002002F07002914204D2026822F07002F3
:1012E0000A43026000F026F80E492A682B68C2F310
:1012F000032203F00F038A5CC95C02F01F0201F0B5
:101300001F01D040084A20FA01F111600749086026
:1013100007480068BDE8F05FFFF7B8B90020005249
:1013200018440258DC1F0090100000240C00002418
:1013300004000024454970B545480968434B103BFB
:1013400011F0380208D00111082A03D0102A0BD05E
:10135000182A0BD0084670BD19688906FBD5196894
:10136000C1F3C101C84070BD3A4870BD3749374D1F
:1013700018310C1D24350A68096826682D6802F0AA
:10138000030406F00102C1F30511C5F3CC0515FBFA
:1013900002F200EE102AB8EE400AE9B32F4ADFED60
:1013A0002E0AB7EE001A6CB1DFED2D1A012C01D018
:1013B000022C43D002EE101A1068F8EE422A81EE99
:1013C000A22A1EE01C68A40611D51B6801EE901A23
:1013D0001168C3F3C103F8EE612AD84001EE900A08
:1013E000C1F30800F8EE611A81EEA22A0BE001EECB
:1013F000901ADFED1C2A00BFF8EE611A106882EE29
:10140000A12AC0F3080001EE900AF8EE611A40EE3E
:10141000201A31EE810A00E015E022EE000A106881
:10142000C0F34620401C00EE900AF8EE600A80EE01
:10143000201ABCEEC10A10EE100A70BD01EE901A1F
:10144000DFED092AD8E7002070BD000010440258E3
:101450000090D00300366E0100000039304402587D
:101460000024744A0024744C001BB74B2DE9F05F34
:1014700004007CD0FF4F2078FE4D1837DFF8F4933E
:10148000103DC00748D0D9F80000396800F0380096
:10149000102815D0182803D101F0030002280FD01E
:1014A0006068B0F5803F12D010B1B0F5A02F18D011
:1014B000286820F480302860286820F4802009E023
:1014C0002868800328D560680028D2D024E02868E6
:1014D00040F480302860606888B1FFF79BF80646CA
:1014E00009E0286840F480202860F0E7FFF792F8D0
:1014F000801B64287ED828688003F7D50CE0FFF7AE
:1015000089F8064605E000BFFFF784F8801B6428D1
:10151000F0D828688003F7D4207841F20308D54E2C
:101520000C3E80074BD5D9F80000396810F0380020
:101530000ED0182801D188070AD0E06868B329685E
:1015400021F0190101432960FFF764F8824619E090
:101550002868400702D5E06800288AD0FFF754F8D1
:10156000404513D82069316821F47C3100E0BEE0A9
:1015700041EA0030306022E0FFF74CF8A0EB0A00AF
:101580000228B7D828684007F6D5E7E7207C3168FD
:1015900021F0FE4141EA0060ECE7286820F00100FC
:1015A0002860FFF737F8824606E000BFFFF732F801
:1015B000A0EB0A0002289DD828684007F6D42078BE
:1015C000C00659D5D9F80000DFF8A8B2396800F094
:1015D0003800ABF1040B082812D0182803D101F011
:1015E000030001280CD0E0690028286834D040F0BE
:1015F000800000E0DCE02860FFF70CF8824623E082
:101600002868C00523D5E069802870D11FE000BF9D
:1016100094F82000316821F0F84141EA80603060A0
:101620002AE000BF94F82010DBF8002022F07C5262
:1016300042EA0161CBF800101EE000BFFEF7EAFFAE
:10164000A0EB0A0002289CD82868C005F6D5FEF752
:10165000DBFF4045E6D8DBE720F080002860FEF79E
:10166000D9FF064605E000BFFEF7D4FF801B022825
:1016700087D82868C005F7D42078000729D57D4889
:101680006169643000298046016811D041F0010190
:101690000160FEF7BFFF064605E000BFFEF7BAFF98
:1016A000801B022887D8D8F800008007F6D510E004
:1016B00021F001010160FEF7ADFF064605E000BF25
:1016C000FEF7A8FF801B022872D8D8F80000800718
:1016D000F6D42078800623D5A0690028286810D089
:1016E00040F480502860FEF795FF064605E02EE1A5
:1016F000FEF790FF801B02285AD828688004F7D58F
:101700000EE020F480502860FEF784FF064604E0D7
:10171000FEF780FF801B02284AD828688004F7D48F
:10172000207840074FD5DFF85081D8F8001041F4F9
:101730008071C8F80010FEF76DFF064605E000BF97
:10174000FEF768FF801B642832D8D8F80000C00577
:10175000F6D5484EA068603601280AD008B10528A1
:1017600013D0306820F001003060306820F00400B1
:1017700002E0306840F001003060A06841F2883A31
:1017800090B1FEF747FF80460AE0306840F0040061
:101790003060EEE7FEF73EFFA0EB0801514507D8A9
:1017A00030688007F6D50EE0FEF734FF804607E08C
:1017B00084E000BFFEF72EFFA0EB080151457DD865
:1017C00030688007F6D4606AF0B3DFF8A880D9F8F3
:1017D000001008F12008C1F3C20103296FD00228CC
:1017E000286820F08070286003D0FEF713FF0446BD
:1017F00082E0FEF70FFF064605E000BFFEF70AFF96
:10180000801B022875D828688001F7D4E26A40F26C
:10181000F331386854F8283F884340EA02101843EF
:101820003860217B4FF4FE0C22894FF0FE47208A5E
:101830004902267D521E401EA1F5007189B20CEAB4
:101840000040C2F3080200E083E01143761E01432A
:10185000084807EA06621143064A1C30C8F800101F
:101860002432016821F00101016011684FF6F87619
:10187000B14303E01044025800480258236A41EA89
:10188000C30111600168A26921F00C0111430160DC
:101890000168E26921F0020111430160016841F42D
:1018A00080310160016841F400310160016841F458
:1018B00080210160016841F0010101E019E01FE0B1
:1018C0000160286840F080702860FEF7A3FE04469F
:1018D00005E000BFFEF79EFE001B022809D828681D
:1018E0008001F7D535E000BFFEF794FE001B02280B
:1018F00002D90320BDE8F09F28688001F4D428E0D5
:1019000039680128D8F8000021D0A26A01F0030349
:1019100093421CD1E26AC1F305118A4217D1216BAF
:10192000C0F30802491E8A4211D1616BC0F34622FE
:10193000491E91420BD1A16BC0F30642491E914250
:1019400005D1E16BC0F30660491E814201D0012040
:10195000D0E70020CEE700002DE9F0470446007AEA
:1019600000278A4601280ED0607A01254FF0000931
:101970002572012809D00420E060012784F808902E
:101980003846BDE8F0870220FBE74FF0020884F8F4
:101990000980FEF73FFE06460CE000BFFEF73AFE68
:1019A000801B022806D96572C4F80C80012084F8D7
:1019B0000890E6E720684068C043C007EED1206881
:1019C00080682061CAF800006572D7E72DE9F04110
:1019D00004002AD0607A4FF0000820B9204684F82D
:1019E000088000F031F8022666720427D4E900026C
:1019F000016821F02001114301602068016841F075
:101A00000401016020684068C043400601D4677249
:101A10000BE0FEF7FFFD05460AE000BFFEF7FAFD0A
:101A2000401B022804D96772E6600120BDE8F081FE
:101A300020684068C0434007F0D501216172C4F8B6
:101A40000C800020F2E7000008B5006806498842D3
:101A500008D10648016841F040010160006800F0CB
:101A60004000009008BD000000180248DC44025805
:101A7000401EB0F1807F10B501D3012010BD4FF0A2
:101A8000E02460610F21601700F05DFA0020A06182
:101A90000721216110BDFEE77FB500250095019566
:101AA00002950395FEF740FE01248DF800401B20AF
:101AB0008DF808008DF80B504FF010468DF80A4055
:101AC00068468DF80150019603948DF80950FEF791
:101AD000FDFD16208DF808008DF80F4005218DF8CA
:101AE0000B1068468DF80E408DF800408DF80D50B3
:101AF0008DF80A408DF8014001968DF80C508DF854
:101B00000950FEF7E3FD0420FEF71CFE7FBD000038
:101B100010B586B014216846FEF7E1FB1548016850
:101B200041F010010160016801F0100105910168A8
:101B300041F004010160016801F0040105910168B0
:101B400041F080010160006800220B4C082100F088
:101B5000800005902046FEF752FD002108200090ED
:101B600001222046CDE9012103916946FEF728FCB8
:101B700006B010BDE0440258001002580848002288
:101B8000064910B5C0E90012FFF720FF002803D076
:101B9000BDE81040FEF701BC10BD0000001802486F
:101BA00014000024FEE77047704700002DE9F0475D
:101BB000454D044689464FF0000A2868C043800717
:101BC0000AD0414E283E306820F080603060FEF739
:101BD00021FD0746B04608E00120BDE8F08700BFC0
:101BE000FEF718FDC01B022867D8D8F800000001D6
:101BF000F6D4206829684FF4FE0721F47C313E02B8
:101C000041EA00302860207AA389B4F804C0400279
:101C10002D4D2D495B1E227CACF1010C1035091DA8
:101C2000A0F5007080B2521ECCF3080C07EA034303
:101C300040EA0C00184306EA026210432860086874
:101C4000626920F0C000104308600A68A06922F0B1
:101C5000200202430A60281D0A6822F010020A606E
:101C600002684FF6F873E4699A4342EAC4020260DC
:101C70000868B9F1000F40F010020A6011D008683E
:101C8000B9F1010F11D040F400100860D8F800003D
:101C9000444640F08060C8F80000FEF7BBFC0546F3
:101CA0000DE0086840F40020EFE740F48010ECE716
:101CB000FEF7B0FC401B022801D903208DE7206805
:101CC0000001F5D5504688E7284402582DE9F04731
:101CD000454D044689464FF0000A2868C0438007F6
:101CE0000AD0414E283E306820F080503060FEF728
:101CF00091FC0746B04608E00120BDE8F08700BF30
:101D0000FEF788FCC01B022867D8D8F800008000C6
:101D1000F6D4208829684FF4FE0721F07C713E023A
:101D200041EA00502860207AA389B4F804C0400238
:101D30002D4D2D495B1E227CACF1010C1835091D7F
:101D4000A0F5007080B2521ECCF3080C07EA0343E2
:101D500040EA0C00184306EA026210432860086853
:101D6000626920F44060104308600A68A06922F4A8
:101D7000007202430A60281D0A6822F480720A6019
:101D800002684FF6F873E4699A4342EAC4020260BB
:101D90000868B9F1000F40F480720A6011D0086839
:101DA000B9F1010F11D040F080700860D8F8000040
:101DB000444640F08050C8F80000FEF72BFC054672
:101DC0000DE0086840F48000EFE740F40000ECE725
:101DD000FEF720FC401B022801D903208DE7206874
:101DE0008000F5D5504688E7284402587047FEF732
:101DF00017BC000030B5CBB04C212FA8FEF76FFA0E
:101E0000202142A8FEF76BFABC216846FEF767FA6C
:101E10000220FEF7E9FC224922480A6822F001026A
:101E20000A6009680168002421F4404141F48041BE
:101E30000160016801F440414A9101688904FCD5C0
:101E4000402501233593022022222F92CDE93235FD
:101E50000C2104223A92CDE938040DF1F80CCDE9B9
:101E60003B103D908CE813002FA84194FFF7FEFA39
:101E70000DF5847C3F2003214FF410628CE837007D
:101E80002B01002142A8CDE947534995FFF724F9DA
:101E9000E8021F9400906846FEF7D0FC4BB030BDBE
:101EA0002C04005818480258214A30B521491468BA
:101EB0000020204B44F47004146010330A681E4D57
:101EC00042F001020A6018600A681A4B2A400A6050
:101ED00018331C1D251D174A186028322060131D59
:101EE00028601C1D251D10602A1D1860131D206010
:101EF0001C1D2860251D10601860206028600A687D
:101F00000C4B0E4C22F4802260330A60186020686B
:101F10006FF30F00B0F1005F03D209490120C1F84F
:101F200008014FF0006002498039086030BD0000B0
:101F300088ED00E0004402587FEDF6EA0010005CF6
:101F400000800051FEE7090700284FEA116104DB19
:101F500000F1E02080F80014704700F00F0000F15D
:101F6000E02080F8141D704702E008C8121F08C165
:101F7000002AFAD170477047002001E001C1121F0A
:101F8000002AFBD17047000011494FF0104008B5FE
:101F90000860FFF781FDFEF7C1F9FEF749FBFFF787
:101FA00029FFFFF7B5FDFFF7E9FD0A4C4FF4167561
:101FB00009486946FFF7D0FC08212046FEF718FBC8
:101FC0000098B0FBF5F105FB1100FEF7E7F9EFE72C
:101FD00008ED00E00010025814000024000000008A
:101FE0000102030401020304060708090C20009003
:101FF0000000002414000000681F009020200090C2
:102000001400002414040000781F00900100000058
:1020100010000000000000000090D0030090D003EA
:0400000590000299CC
:00000001FF
