:020000040800F2
:10000000E84A0024AD020008AF3A00081B36000899
:10001000AD3A0008930300080D67000800000000D7
:100020000000000000000000000000009D4F0008DC
:1000300011040008000000002B3C00089F4F00083E
:10004000C7020008C7020008C7020008C70200086C
:10005000C7020008C7020008C7020008C70200085C
:10006000C7020008C7020008C7020008C70200084C
:10007000C7020008C7020008C7020008C70200083C
:10008000C7020008C7020008C7020008C70200082C
:10009000C7020008C7020008C7020008C70200081C
:1000A000C7020008C7020008C7020008C70200080C
:1000B000C7020008C7020008C7020008C7020008FC
:1000C000C7020008C7020008C7020008C7020008EC
:1000D000C7020008C7020008C7020008C7020008DC
:1000E000C7020008C702000800000000C70200089D
:1000F000C7020008C7020008C7020008C7020008BC
:10010000C7020008DD430008C7020008C702000854
:10011000C7020008C7020008C7020008C70200089B
:10012000C7020008C7020008C7020008C70200088B
:10013000C7020008C7020008C7020008C70200087B
:1001400000000000000000000000000000000000AF
:10015000C7020008C7020008C7020008C70200085B
:10016000C7020008C7020008C7020008C70200084B
:10017000C7020008C7020008C7020008C70200083B
:10018000C7020008C7020008C7020008C70200082B
:10019000C7020008C7020008C7020008C70200081B
:1001A000C7020008C7020008C7020008C70200080B
:1001B000C7020008C7020008C7020008C7020008FB
:1001C000C7020008C7020008C7020008C7020008EB
:1001D000C7020008B13A0008C7020008C7020008B9
:1001E000C7020008C7020008C7020008C7020008CB
:1001F000C7020008C7020008C7020008C7020008BB
:10020000C7020008C7020008C7020008C7020008AA
:10021000C7020008C7020008C7020008C70200089A
:10022000C7020008C7020008C7020008000000005B
:10023000C7020008C702000800000000C70200084B
:10024000C7020008C7020008C7020008C70200086A
:10025000C7020008C7020008C7020008C70200085A
:10026000C7020008C7020008C7020008C70200084A
:10027000C7020008C7020008C7020008000000000B
:10028000C7020008C7020008C702000800000000FB
:1002900000000000C7020008DFF80CD000F03CF8B6
:1002A00000480047A1670008E84A00240648804744
:1002B00006480047FEE7FEE7FEE7FEE7FEE7FEE74B
:1002C000FEE7FEE7FEE7FEE7AD50000899020008F2
:1002D00040EA01039B0703D009E008C9121F08C0C8
:1002E000042AFAD203E011F8013B00F8013B521E48
:1002F000F9D27047D2B201E000F8012B491EFBD2BF
:1003000070470022F6E710B513460A460446194620
:10031000FFF7F0FF204610BD064C074D06E0E068F1
:1003200040F0010394E8070098471034AC42F6D33C
:10033000FFF7B6FFA8680008C868000870B58C18F9
:1003400010F8015B15F0070301D110F8013B2A11E9
:1003500006D110F8012B03E010F8016B01F8016BD6
:100360005B1EF9D12B0705D40023521E0DD401F8D2
:10037000013BFAE710F8013BCB1A921C03E013F89B
:10038000015B01F8015B521EF9D5A142D8D30020D0
:1003900070BDFEE7F0B5BFF34F8FBFF36F8F1A4903
:1003A00000200860BFF34F8FBFF36F8F174A1168AB
:1003B00041F400311160BFF34F8FBFF36F8F1349CA
:1003C00070310860BFF34F8F081F43F6FF74006859
:1003D0000D4D1035C0F34E31C0F3C90304EA411688
:1003E000184600BF46EA80772F60401EFAD2491EA9
:1003F000F4D2BFF34F8F106840F480301060BFF329
:100400004F8FBFF36F8FF0BD50EF00E014ED00E0B1
:1004100070474FF4FA74204603F01CF9FBE7000024
:1004200070B5044600F032F90546601C02D004485D
:100430000078044400F02AF9401BA042FAD370BDB2
:10044000000000242DE9FC4F01257E4C00234FF0D5
:10045000030A4FF0B04E4FF00F0BEBE005FA03F636
:1004600037403A0077D04F68012F05D0022F03D0D4
:10047000112F01D0122F1AD187684FEA4308D1F803
:100480000CC00AFA08F927EA09070CFA08FC4CEA3A
:10049000070CC0F808C0476891F804C0B743CCF314
:1004A000001C0CFA03FC4CEA070CC0F804C0C66838
:1004B0004FEA430CD1F80880E1460AFA0CF7BE4334
:1004C000019708FA09F848EA0608C0F80C804E6857
:1004D000022E01D0122E12D1DE084FEA437C00EB2F
:1004E000860600960F69366A4FEADC6C0BFA0CF848
:1004F00007FA0CF726EA08063743009E37620E79A2
:100500000768DDF804C006F0030606FA09F627EAD4
:100510000C073E4306604E68F6001CD54A4E37680D
:1005200047F00207376036689F0706F0020600961C
:1005300023F0030606F1B046B1463F0FD6F8086433
:10054000DFF808810BFA07FC404526EA0C0603D1C8
:100550004FF0000C41E06CE0DFF8F4C0604502D1E0
:100560004FF0010C39E0DFF8ECC0604502D14FF0EC
:10057000020C32E0DFF8E0C0604502D14FF0030C1E
:100580002BE0DFF8D8C0604502D14FF0040C24E026
:10059000DFF8CCC0604502D14FF0050C1DE0DFF85C
:1005A000C4C0604502D14FF0060C16E0DFF8B8C0B9
:1005B000604502D14FF0070C0FE0DFF8B0C0604596
:1005C00002D14FF0080C08E0DFF8A4C0604502D16A
:1005D0004FF0090C01E04FF00A0C0CFA07FC4CEA52
:1005E000060CC9F808C426684F6826EA0206FF030D
:1005F00000D51643266066684F6826EA0206BF03E8
:1006000000D516436660D1F804C07646DEF8007067
:100610005FEACC2C27EA020700D517433760D1F8F0
:1006200004C077685FEA8C2C27EA020700D51743DD
:1006300077605B1C0A681746DA407FF40FAFBDE8AD
:10064000FC8F000080000058F4440258000002585B
:100650000004025800080258000C0258001002580A
:100660000014025800180258001C025800200258BA
:10067000002402580AB1816170470904FBE70000B9
:1006800001480068000C70470010005C0148806859
:10069000704700000000002402488168027811447D
:1006A0008160704700000024032010B500F0D4F8EA
:1006B00001F080FE0F4A104914681368C4F3032246
:1006C00003F00F038A5CC95C02F01F0201F01F01F6
:1006D000D0400A4A20FA01F111600949086000205F
:1006E00000F010F808B1012010BD00F079F80020EA
:1006F00010BD0000184402585C6800081000002477
:100700000C00002470B50D4D04462878A0B14FF4BC
:100710007A71B1FBF0F00A490968B1FBF0F002F020
:1007200069FF48B9102C07D200222146501E00F064
:1007300073F800206C6070BD012070BD00000024C3
:100740000C000024F0B5154C4378211D0A1D2360D0
:100750000378F3B143680B60057BC67A817A437BEB
:100760002D07847B45EA0665C77B90F809C0067AA9
:1007700090F800E045EAC14040EA834040EA444046
:1007800040EA074040EA0C2040EA460040EA0E00FA
:1007900001E0002008601060F0BD000098ED00E06E
:1007A000BFF35F8F044800210368034A23F48033BA
:1007B000036070321160704724ED00E0074A40F09A
:1007C0000100064970321060086840F4803008600B
:1007D000BFF34F8FBFF36F8F7047000024ED00E031
:1007E000054808B5016841F002010160006800F0A9
:1007F0000200009008BD0000F4440258002809DB04
:10080000410900F01F028900012001F1E021904020
:10081000C1F80001704700000E4BF0B41B680D4694
:10082000C3F30223C3F10706042E00D90426191DC1
:10083000072901D2002300E0DB1E012404FA06F19F
:100840009C40491E2940641E994014402143F0BC3D
:1008500005F05DBF0CED00E0064900F0070210B5A1
:100860004FF6FF040868044B204040EA022018437A
:10087000086010BD0CED00E00000FA0501680123DE
:10088000C0F8FC33002280F8F4238869044A40F061
:1008900000608861486D1043486500207047000083
:1008A0000300001070470068416200207047F0B5F7
:1008B00003685D6A39B19F6A4C1E00204FF482764E
:1008C00005EB17450BE045EA0240986210E0471C33
:1008D00006EB800053F800C0F8B205EB1C45A042BF
:1008E000F5D34FF4807000EB810045EA02421A50C4
:1008F0000020F0BDD0F8040404F04EBEC1EBC102EC
:1009000000EB8202D0F80404926C04F0A3BDC1EBAA
:10091000C10200EB8202D0F80404D2F8082204F0ED
:10092000FABDD0F8040404F039BE01F00F020B0642
:1009300070B5C2EBC20104464FF001004FF0000554
:1009400004EB810103D581F83D003C3103E081F8DF
:10095000FD5101F5FE710A7094F8BC23012A08D0FC
:1009600084F8BC03206805F08FFA002084F8BC539B
:1009700070BD022070BD70B54268044601F00F00E2
:10098000904201D9012070BD01F00F024FF0000527
:100990000B06C2EBC2014FF0010204EB810103D54B
:1009A00081F83D203C3103E081F8FD5101F5FE71F5
:1009B0008D70087094F8BC03012808D084F8BC231B
:1009C000206805F035FC002084F8BC5370BD02207F
:1009D00070BD10B5044690F8BC0301280AD0012070
:1009E00084F8BC0320680A0606D501F00F0105F063
:1009F00081FD03E0022010BD05F06CFD002084F8AD
:100A0000BC0310BD01F00F01C1EBC10100EB81007F
:100A1000D0F8140270472DE9F04101F00F060446AA
:100A20000D064FF00100C6EBC6014FF0000504EBC8
:100A3000810103D581F83D003C3103E081F8FD518F
:100A400001F5FE714F788A60CB700E7007B1CE80D1
:100A5000022B00D10D7194F8BC23012A09D084F82F
:100A6000BC03206805F06AF9284684F8BC53BDE849
:100A7000F0810220FBE770B501F00F050C4600265F
:100A8000C5EBC50100EB8101C1F80822C1E984363C
:100A900081F8FD6181F8FC5101F5FE710369012BBC
:100AA00000D10A612207027C006803D005F018FC1F
:100AB000002070BD05F002FBFAE770B50D464168F5
:100AC000044605F00F00884201D9012070BD2906B7
:100AD0004FF000064FF0010207D5C0EBC00104EB58
:100AE000810181F83D203C3107E0C5EBC50104EBF5
:100AF000810181F8FD6101F5FE718A70087094F83A
:100B0000BC03012807D084F8BC23206805F0BCFB97
:100B1000280702D007E0022070BD217C04F5717225
:100B2000206805F059FB002084F8BC6370BD2DE9F6
:100B3000F04101F00F050C460026C5EBC501012769
:100B400000EB81018A64C1E9143681F83D7001F837
:100B50003C5F0369012B00D10A612207027C006817
:100B600004D005F0BDFB0020BDE8F08105F0A6FA39
:100B7000F9E700002DE9FC5F05680446284605F00A
:100B8000D8FC00287ED1206805F0FFFC002879D031
:100B9000206805F0FAFC800704D52068416901F05F
:100BA00002014161206805F0F0FCC10604F5717096
:100BB000009034D52068816921F0100181612F6A8D
:100BC00007F00F01C7F34340C1EBC101022804EB5A
:100BD000810606F5FE7602D0062811D01AE047F607
:100BE000F070074216D0C7F30A12F168174628467C
:100BF00005F0CFFCF168B0693944F160384408E091
:100C000000990822284605F0C4FCB069C7F30A1110
:100C10000844B0612068816941F010018161206859
:100C200005F0B3FC00034FF001094FF0080B5BD552
:100C30002068002605F088FCDFF8A8A3074651E0ED
:100C4000F8074DD02068F1B205F097FC8046C00748
:100C500007D005EB4611C1F8089B3146204602F04B
:100C60002DFF5FEA087022D505EB4611C1F808BBDD
:100C70002068016C00EB461001915145D0F8081B2B
:100C800007D900E0ABE1090403D54FF40041C0F8F7
:100C9000081B204600F098FA0198504507D92069B2
:100CA000012804D120680121009A05F095FA5FEA35
:100CB000C86004D505EB46111020C1F8080B5FEAA7
:100CC000886004D505EB46102021C0F8081B5FEAB8
:100CD000884005D505EB46114FF40050C1F8080BCC
:100CE0007F08761C002FABD1206805F04EFC400336
:100CF0004FF0000A5CD5206805F01FFC002607466F
:100D000054E0F80750D02068F1B205F024FC80468A
:100D1000C00723D0D5F8342806F00F0C05EB461396
:100D200009FA0CF08243C5F83428C3F80899206901
:100D300001280FD1C6EBC60004EB8000D0E91112E8
:100D40001144816436B9206D20B920680121009AD0
:100D500005F042FA2046F1B2FFF7D0FD5FEA0870D5
:100D600003D505EB4611C1F808B95FEAC86004D5A0
:100D700005EB46111020C1F808095FEA486004D568
:100D800005EB46114020C1F808095FEA887004D5D8
:100D900005EB46110220C1F808095FEA086003D597
:100DA0003146204602F0F0FE7F08761C002FA8D1C5
:100DB000206805F0EAFB002811DAD5F8040820F0D5
:100DC0000100C5F8040894F8F403012839D020463E
:100DD00000F0DEF92068416901F0004141612068BE
:100DE00005F0D3FB00050BD5D5F80808C00702D0E5
:100DF000204600F011FA2068416901F40061416168
:100E0000206805F0C2FB00010AD52068416901F0A5
:100E10000061416194F8F403D0B1204600F0FCF980
:100E2000206805F0B2FBC00476D5D5F8040820F0A0
:100E30000100C5F804082068102105F05BFB0021C3
:100E400035E00021204684F8F4A3FFF72BFDC1E72D
:100E500084F8F4932068406D0121C0F38300C4F846
:100E6000F8032046FFF71EFDDAE700BF05EB41104F
:100E70004FF67F32C0F80829D0F8003923F4001368
:100E8000C0F80039D0F8003943F00063C0F80039E9
:100E9000C0F8082BD0F8002B22F40012C0F8002B69
:100EA000D0F8002B42F00062C0F8002B491C6068AB
:100EB0008842DBD8D5F81C0840F00110C5F81C08A2
:100EC000206B60B1D5F8840840F00B00C5F88408A9
:100ED000D5F8440840F00B00C5F844080CE0D5F8FC
:100EE000140842F22B010843C5F81408D5F810087D
:100EF00040F00B00C5F81008D5F8000820F4FE609B
:100F0000C5F80008217C2068009A05F065F9206882
:100F1000416901F480514161206805F036FB80048D
:100F200017D5206804F04AFF206805F0F5FAE06064
:100F300001F01EFA0146207B2368C2B2184605F074
:100F40005FFB204600F00EF92068416901F4005172
:100F50004161206805F019FB000707D5204600F025
:100F60001BF92068416901F008014161206805F022
:100F70000CFBC00208D50021204600F035F820689F
:100F8000416901F480114161206805F0FEFA800298
:100F900008D50021204600F02BF82068416901F4B3
:100FA00000114161206805F0F0FA400007D52046A5
:100FB000FFF7A0FC2068416901F080414161206891
:100FC00005F0E3FA40070AD520684568680702D5AE
:100FD0002046FFF7A6FC2168486828434860BDE822
:100FE000FC9F00000A30544FD0F8040404F030BBDA
:100FF000D0F8040404F02EBB2DE9F04104008AB0BF
:1010000005D094F8BD030025266820B108E0012032
:101010000AB0BDE8F081204684F8BC5300F066F8C1
:10102000032084F8BD03F06BC00500D4256120685F
:1010300005F03EF804F11001684628228846FFF7C3
:1010400047F994E80F0004F0C7FE0227D8BB2068D8
:10105000002105F0ACFA0020012610E0C0EBC00131
:10106000421C04EB810181F83D6081F83F504D64E2
:101070008D640D6581F83C00A1F84200D0B2616832
:101080008142EBD8002011E0C0EBC001421C04EB10
:10109000810181F8FD5181F8FF51C1F80452C1F876
:1010A0000852C1F8105281F8FC01D0B26168814247
:1010B000EAD8282241466846FFF70AF994E80F006B
:1010C00004F03AFF10B184F8BD73A0E7606A84F8B9
:1010D000385084F8BD63012802D12046FFF7CEFBCB
:1010E000206804F01DFF002092E7000010B586B0D4
:1010F000044614216846FFF704F91749206888421E
:1011000028D11648016841F00101016000680A23F6
:10111000022200F00100059000204FF4C051009120
:101120006946CDE90120CDE903030D48FFF78AF9AF
:101130000A480838016841F0006101600068002237
:10114000114600F0006005906520FFF765FB652003
:10115000FFF754FB06B010BD00000840E044025801
:101160000000025870B50446C068012570B102281D
:1011700001D0FFF74EF9D4F80404294604F0BFFA71
:10118000D4F80404BDE8704004F07BBA0025F2E70F
:10119000D0F8040404F09DBAD0F8040404F0A3BA13
:1011A00010B5044690F8BC0301280BD0012084F848
:1011B000381084F8BC03206805F010FA002084F889
:1011C000BC0310BD022010BDD0F8042400F57171DD
:1011D000104604F0A0BA10B590F8BC13044600689D
:1011E000012906D0A26A012184F8BC13012A02D089
:1011F00008E0022010BDA169012903D0816B41F4F0
:1012000080318163206804F07FFE206805F05CF97E
:10121000002084F8BC0310BD10B50446D0F80404C7
:1012200004F0B6FA2068D0F8001E41F00101C0F8C1
:10123000001E206A002804D00248016841F006011F
:10124000016010BD10ED00E0134970B50A68D2438B
:10125000520705D5096801F00701814213D118E052
:101260000A6822F0070202430A60FFF70FFA0A4DEC
:101270004FF47A760446083D07E000BFFFF706FA10
:10128000001BB04201D9012070BD2868C043800412
:10129000F4D4002070BD00000C48025802480168D8
:1012A00041F08071016070470C48025810B501F0A0
:1012B0005FF805490968054AC1F30211515C01F064
:1012C0001F01C84010BD0000204402585C6800089F
:1012D000494930B5484C0B1D0A680C3409681D6833
:1012E000246802F0030305F00102C1F30511C4F301
:1012F000CC04002914FB02F200EE102AF8EE400A9A
:1013000075D03F4A9FED3D1AB7EE000A6BB1DFED95
:101310003D1A012B01D0022B64D002EE101A116885
:10132000F8EE422A81EEA22A21E0334C283C2368C1
:101330009B0612D5344B246801EE901A1168C4F351
:10134000C104F8EE612AE34001EE903AC1F30801CE
:10135000F8EE611A81EEA22A0BE001EE901ADFEDA1
:101360002B2A00BFF8EE611A116882EEA12AC1F3A0
:10137000080101EE901A1168F8EE611A40EE811A28
:1013800071EE800A62EE200AC1F3462101EE101AC6
:10139000B8EE411A31EE001AC0EE811ABCEEE11A25
:1013A00080ED001A1168C1F3064101EE101AB8EE83
:1013B000411A31EE001AC0EE811ABCEEE11A80ED3E
:1013C000011A1168C1F3066101EE101AB8EE411A54
:1013D00031EE000A80EE801ABCEEC10A80ED020AEE
:1013E00030BD04E001EE901ADFED092ABAE70021D2
:1013F000016041608160F3E7284402580000003931
:10140000304402580024744A0090D0030024744CE5
:1014100020BCBE4B494930B5484C0B1D0A681434FA
:1014200009681D68246802F00303C5F30012C1F3C4
:101430000531C4F3CC04002914FB02F200EE102A9B
:10144000F8EE400A75D03F4A9FED3D1AB7EE000A0C
:101450006BB1DFED3D1A012B01D0022B64D002EEFF
:10146000101A1168F8EE422A81EEA22A21E0334CCC
:10147000283C23689B0612D5344B246801EE901A51
:101480001168C4F3C104F8EE612AE34001EE903A1A
:10149000C1F30801F8EE611A81EEA22A0BE001EE19
:1014A000901ADFED2B2A00BFF8EE611A116882EE68
:1014B000A12AC1F3080101EE901A1168F8EE611A31
:1014C00040EE811A71EE800A62EE200AC1F34621D5
:1014D00001EE101AB8EE411A31EE001AC0EE811A70
:1014E000BCEEE11A80ED001A1168C1F3064101EE6D
:1014F000101AB8EE411A31EE001AC0EE811ABCEE95
:10150000E11A80ED011A1168C1F3066101EE101AAB
:10151000B8EE411A31EE000A80EE801ABCEEC10A24
:1015200080ED020A30BD04E001EE901ADFED092AD9
:10153000BAE70021016041608160F3E72844025866
:1015400000000039384402580024744A0090D00347
:101550000024744C20BCBE4B494930B5484C0B1D8F
:101560000A681C3409681D68246802F00303C5F387
:101570000022C1F30551C4F3CC04002914FB02F28C
:1015800000EE102AF8EE400A75D03F4A9FED3D1A52
:10159000B7EE000A6BB1DFED3D1A012B01D0022B33
:1015A00064D002EE101A1168F8EE422A81EEA22AE7
:1015B00021E0334C283C23689B0612D5344B246829
:1015C00001EE901A1168C4F3C104F8EE612AE340F9
:1015D00001EE903AC1F30801F8EE611A81EEA22AF9
:1015E0000BE001EE901ADFED2B2A00BFF8EE611A36
:1015F000116882EEA12AC1F3080101EE901A116868
:10160000F8EE611A40EE811A71EE800A62EE200A4D
:10161000C1F3462101EE101AB8EE411A31EE001A5C
:10162000C0EE811ABCEEE11A80ED001A1168C1F318
:10163000064101EE101AB8EE411A31EE001AC0EE62
:10164000811ABCEEE11A80ED011A1168C1F306613E
:1016500001EE101AB8EE411A31EE000A80EE801A3F
:10166000BCEEC10A80ED020A30BD04E001EE901A22
:10167000DFED092ABAE70021016041608160F3E7EC
:101680002844025800000039404402580024744A9B
:101690000090D0030024744C20BCBE4B2DE9F047D1
:1016A0004FF480760146B0426F48DFF8B8818AB0C7
:1016B0006E4B4FF080576E4DA8F104044FEA201294
:1016C0004FF0005C29D1D8F8001001F0070105297E
:1016D0001FD2DFE801F0030A0F20140006A8FFF76D
:1016E000F7FD07980AB0BDE8F0876846FFF792FE5D
:1016F0000098F7E703A8FFF72FFF0398F2E72168A8
:1017000011F04051EED0B94275D11046EAE71846C3
:10171000E8E70020E6E72846E4E7B1F5007F19D0C6
:10172000544EB1F5806F26D0B1F5006F37D04FF42D
:10173000805949454FF4804A4BD1D8F8001001F444
:10174000E041B1F5005FD5D03DDC0029C6D0494568
:10175000DFD1CAE7D8F8001001F4E0718029C9D0C0
:1017600004DC0029BAD04029D3D1BEE7C029D2D0A9
:10177000B142CED1C3E7316801F46001B1F5800F09
:10178000B8D005DC0029A9D0B1F5001FC1D1ACE764
:10179000B1F5C00FBFD0B1F5000FBAD1AFE73168D6
:1017A00001F0E061B1F1007FA4D005DC002995D003
:1017B000B1F1807FADD198E7B1F1407FABD0B1F10D
:1017C000806FA6D19BE7B1F5405FA4D05145A0D171
:1017D00095E7B1F5002F4FF480350DD0A9421DD10A
:1017E000206810F48030B1D0A84292D16846FFF74B
:1017F00011FE029876E70EE0316811F44031A8D06E
:10180000A94203D0B1F5003F83D178E703A8FFF7E1
:10181000A3FE059866E761459AD178E7514597D1CF
:10182000316801F0E041B1F1405FE3D009DC81B102
:10183000B94211D061458BD103A8FFF78DFE049802
:1018400050E7B1F1804F3FF460AFB1F1A04F8BD1C1
:101850005DE7FFF72BFD45E76846FFF7DBFD0198E5
:1018600040E70000504402580090D00340787D01CA
:101870000080BB00584402582DE9FC5F044650F834
:10188000241B002500902E460801FE4FDFF8F88348
:101890001DD5606E50B1B0F5801F0CD0B0F5001FA3
:1018A0000ED0B0F5401F1DD001250FE0386840F480
:1018B0000030386016E00221201D02F0B7F903E085
:1018C0000098022102F042FA05000BD02E46208833
:1018D000C00523D5606D05281ED2DFE800F00C118D
:1018E000161B1B00626ED8F8001021F44011114342
:1018F000C8F80010EBE7386840F40030386009E0C1
:101900000021201D02F092F903E00098002102F06E
:101910001DFA05466DB100E001252E4620888005A0
:1019200028D5A06D80281ED00CDC90B140280ED1A7
:1019300014E0626DD8F8001021F007011143C8F8D7
:101940000010EBE7C02813D0B0F5807F10D0012540
:101950000FE0386840F40030386009E00021201DB5
:1019600002F064F903E00098002102F0EFF9054667
:1019700095B12E462088DFF81093400509F108093B
:101980002CD5D4F8A400B0F5800F20D00DDCA0B188
:10199000B0F5001F0FD115E0A26DD8F8001021F4AA
:1019A000E0711143C8F80010E4E7B0F5C00F13D0A0
:1019B000B0F5000F10D001250FE0386840F400307A
:1019C000386009E00021201D02F030F903E00098A2
:1019D000002102F0BBF9054675B12E4620880005AE
:1019E0002DD5D4F8A800B0F1007F21D00EDCA8B12D
:1019F000B0F1807F10D116E0D4F8A420D9F80010FF
:101A000021F460011143C9F80010E7E7B0F1407F0D
:101A100013D0B0F1806F10D001250FE0386840F48A
:101A20000030386009E00021201D02F0FFF803E0DB
:101A30000098002102F08AF905468DB12E462068F3
:101A4000DFF844B28001ABF1040B1FD5A06CD8B114
:101A500010280FD0202812D0302815D0012514E0EE
:101A6000D4F8A820D9F8001021F0E0611143C9F89A
:101A70000010E4E7386840F40030386004E00221E8
:101A8000201D02F0D3F805466DB12E462088C00413
:101A90002BD5E06DB0F5005F20D00DDCA0B1B0F526
:101AA000805F0FD115E0A26CDBF8001021F030014F
:101AB0001143CBF80010E9E7B0F5405F13D0B0F563
:101AC000804F10D001250FE0386840F400303860B6
:101AD00009E00021201D02F0A9F803E00098002190
:101AE00002F034F9054685B12E462088800429D5B8
:101AF000206EB0F5403F23D010DC08B3B0F5803F36
:101B000014D0B0F5003F0FD115E0E26DD8F8001009
:101B100021F4E0411143C8F80010E6E7B0F5802F4A
:101B20000ED0B0F5A02F0BD001250AE00121201D19
:101B300002F07CF803E00098012102F007F9054665
:101B40008DB12E46208840042AD5D4F8AC00B0F1DF
:101B5000405F23D010DC08B3B0F1805F14D0B0F147
:101B6000005F0FD115E0226ED8F8001021F4E021BB
:101B70001143C8F80010E5E7B0F1804F0ED0B0F186
:101B8000A04F0BD001250AE00121201D02F04EF8E4
:101B900003E00098012102F0D9F805466DB12E4608
:101BA000208800041FD5E06ED8B1B0F1805F0ED060
:101BB000B0F1005F10D0012514E0D4F8AC20D9F8C2
:101BC000001021F0E0411143C9F80010E8E738683F
:101BD00040F40030386004E00121201D02F026F8B6
:101BE00005466DB12E462068C0011ED5606CD0B18F
:101BF00001280ED0022811D0032814D0012513E0AB
:101C0000E26ED8F8001021F040511143C8F80010DE
:101C1000E9E7386840F40030386004E00221201D14
:101C200002F004F8054665B12E462068400257D5FB
:101C30001648016841F480710160FEF727FD824675
:101C40000EE0626CDBF8001021F003011143CBF8C9
:101C50000010EAE7FEF71AFDA0EB0A0064283DD861
:101C60000A480068C005F5D57DBBDFF81CA0B4F8B4
:101C7000B0100AF1200ADAF8000001F4407100F413
:101C8000407005E02C440258504402580048025865
:101C9000884211D0DAF80010DAF8002021F44071FF
:101CA00042F48032CAF80020DAF8002022F48032B0
:101CB000CAF80020CAF80010D4F8B000B0F5807F50
:101CC00021D1FEF7E3FC019019E008E0FEF7DEFC0D
:101CD0000199411A41F28830814210D903252E46DC
:101CE0002078DFF80CA4C0073DD0A06F182838D0AA
:101CF00026DC80B3082829D0102825D12CE0DAF87A
:101D000000008007E2D5D4F8B010C1F30120032809
:101D1000F8480DD0016821F47C510160B4F8B0207E
:101D2000DAF80010C2F30B021143CAF80010D7E72B
:101D3000F14A036802EA111223F47C511143ECE7E3
:101D400020280ED028280CD001250BE00121201DD1
:101D500001F06CFF04E004E00098012101F0F6FFBF
:101D600005465DB12E46207880071ED5606F062897
:101D700019D2DFE800F0160C11161616A26FDAF869
:101D8000001021F038011143CAF80010EBE70121DF
:101D9000201D01F04BFF03E00098012101F0D6FF68
:101DA000054675B100E001252E46207840071FD575
:101DB000D4F89000062819D2DFE800F0160C1116AE
:101DC0001616626FDAF8001021F007011143CAF805
:101DD0000010EAE70121201D01F028FF03E0009830
:101DE000012101F0B3FF05469DB100E001252E461B
:101DF000207880062BD5D4F88C00B0F1405F24D039
:101E000011DC10B3B0F1805F15D0B0F1005F10D1DC
:101E100016E0D4F89020D9F8001021F00701114302
:101E2000C9F80010E4E7B0F1804F0ED0B0F1A04F38
:101E30000BD001250AE00021201D01F0F7FE03E090
:101E40000098022101F082FF05468DB12E462078D0
:101E500040062BD5D4F89800B0F5406F24D011DCA3
:101E600010B3B0F5806F15D0B0F5006F10D116E04B
:101E7000D4F88C20DAF8001021F0E0411143CAF8C0
:101E80000010E4E7B0F5805F0ED0B0F5A05F0BD096
:101E900001250AE00021201D01F0C8FE03E00098A2
:101EA000022101F053FF05468DB12E462078000631
:101EB0002BD5D4F89C00B0F5C04F24D011DC10B362
:101EC000B0F5005F15D0B0F5804F10D116E0D4F812
:101ED0009820D9F8001021F4E0511143C9F80010FE
:101EE000E4E7B0F5004F0ED0B0F5204F0BD0012540
:101EF0000AE00021201D01F099FE03E00098022174
:101F000001F024FF05464DB12E46207800071ED56E
:101F1000D4F88000B0F5805F0AD00FE0D4F89C20A0
:101F2000D9F8001021F460411143C9F80010ECE722
:101F30000098022101F00AFF00B10126D4F88020A8
:101F4000DAF8001021F440511143CAF8001020784B
:101F5000C00613D5D4F89400B0F5807F05D1009861
:101F6000022101F0F3FE00B10126D4F89420D9F843
:101F7000001021F440711143C9F8001020680003DB
:101F800016D5D4F8A00038B1B0F5803F09D0B0F52F
:101F9000003F0BD001250AE00021201D01F046FE84
:101FA00003E00098022101F0D1FE054685B12E46DE
:101FB0002068400322D5D4F88400B0F5801F11D0EA
:101FC000B0F5001F13D0B0F5401F15D0012514E067
:101FD000D4F8A020D9F8001021F440311143C9F8F9
:101FE0000010E5E7386840F40030386004E00098FD
:101FF000012101F0ABFE054655B12E462068C00315
:102000001CD5E06C70B1B0F5803F10D0012514E014
:10201000D4F88420DAF8001021F440111143CAF8F2
:102020000010EBE7386840F40030386004E002212B
:10203000201D01F0FBFD0546CDB12E462068800035
:1020400005D50098022101F081FE00B1012620682B
:1020500080031BD5E06FB8B1B0F5807F10D0B0F52C
:10206000007F11D0B0F5407F0ED001250DE0E26C6D
:10207000DBF8001021F480311143CBF80010DDE7CC
:10208000386840F400303860C5B32E462068C0027E
:1020900007D5226FD8F8001021F000411143C8F88D
:1020A00000102068800207D5A26ED8F8001021F039
:1020B00080711143C8F800102068400009D50D4810
:1020C000016821F4004101600168D4F8B82011438F
:1020D00001602068002807DA226DDBF8001021F08B
:1020E00040511143CBF8001096B10120BDE8FC9F90
:1020F0005444025810440258CFFFFF00FFE7E26F3C
:10210000DAF8001021F440711143CAF80010BDE75D
:102110000020EBE72DE9F05F04000F467ED0DFF8EA
:102120003882D8F8000000F00F00B8420CD2D8F87E
:10213000001021F00F013943C8F80010D8F8000052
:1021400000F00F00B84269D12078844D40070AD5CD
:102150002069296801F07001884204D9296821F0BA
:1021600070010143296020787C4E361D00070AD596
:102170006069316801F07001884204D9316821F04A
:102180007001014331602078C0060AD5A06931682A
:1021900001F4E061884204D9316821F4E06101432F
:1021A00031602078DFF8B4B180060BF1080B0CD554
:1021B000E1695846DBF8002002F07002914204D930
:1021C000026822F070020A430260207880070AD574
:1021D000E068296801F00F01884204D9296821F0DC
:1021E0000F01014329602078C0073ED05B49A268F7
:1021F0002868183920F4706010432860606802284D
:1022000018D0032819D00968012819D049070029D6
:102210004ADADFF848A1AAF1080A00E044E0DAF857
:10222000002022F007020243CAF80020FEF72EFA2F
:10223000814612E009688903E9E709688901E6E750
:10224000C905E4E7FEF722FAA0EB090141F2883064
:10225000814202D90320BDE8F09F6168DAF80000EE
:1022600000F03800B0EBC10FECD1207880070AD520
:10227000E068296801F00F01884204D2296821F042
:102280000F0101432960D8F80010404601F00F010A
:10229000B9420BD9016821F00F0139430160006890
:1022A00000F00F00B84201D00120D4E720784007A9
:1022B0000AD52069296801F07001884204D2296892
:1022C00021F0700101432960207800070AD5606978
:1022D000316801F07001884204D2316821F0700148
:1022E000014331602078C0060AD5A069316801F445
:1022F000E061884204D2316821F4E0610143316039
:10230000207880060CD5E1695846DBF8002002F001
:102310007002914204D2026822F070020A43026005
:1023200000F048F80E492A682B68C2F3032203F034
:102330000F038A5CC95C02F01F0201F01F01D0404C
:10234000084A20FA01F1116007490860074800684F
:10235000BDE8F05FFEF7D6B90020005218440258DD
:102360005C680008100000240C0000240400002415
:1023700030B500F01FF80B4A0B490C4B1568146878
:10238000C5F3032204F00F048A5C095D02F01F020A
:1023900001F01F01D040064A20FA01F119601060D7
:1023A000084630BD184402585C680008100000243C
:1023B0000C000024454970B545480968434B103B63
:1023C00011F0380208D00111082A03D0102A0BD0CE
:1023D000182A0BD0084670BD19688906FBD5196804
:1023E000C1F3C101C84070BD3A4870BD3749374D8F
:1023F00018310C1D24350A68096826682D6802F01A
:10240000030406F00102C1F30511C5F3CC0515FB69
:1024100002F200EE102AB8EE400AE9B32F4ADFEDCF
:102420002E0AB7EE001A6CB1DFED2D1A012C01D087
:10243000022C43D002EE101A1068F8EE422A81EE08
:10244000A22A1EE01C68A40611D51B6801EE901A92
:102450001168C3F3C103F8EE612AD84001EE900A77
:10246000C1F30800F8EE611A81EEA22A0BE001EE3A
:10247000901ADFED1C2A00BFF8EE611A106882EE98
:10248000A12AC0F3080001EE900AF8EE611A40EEAE
:10249000201A31EE810A00E015E022EE000A1068F1
:1024A000C0F34620401C00EE900AF8EE600A80EE71
:1024B000201ABCEEC10A10EE100A70BD01EE901A8F
:1024C000DFED092AD8E7002070BD00001044025853
:1024D0000090D00340787D0100000039304402585C
:1024E0000024744A0024744C20BCBE4B2DE9F05FDC
:1024F00004007CD0FF4F2078FE4D1837DFF8F493AE
:10250000103DC00748D0D9F80000396800F0380005
:10251000102815D0182803D101F0030002280FD08D
:102520006068B0F5803F12D010B1B0F5A02F18D080
:10253000286820F480302860286820F4802009E092
:102540002868800328D560680028D2D024E0286855
:1025500040F480302860606888B1FEF797F806463E
:1025600009E0286840F480202860F0E7FEF78EF844
:10257000801B64287ED828688003F7D50CE0FEF71E
:1025800085F8064605E000BFFEF780F8801B64284A
:10259000F0D828688003F7D4207841F20308D54E9C
:1025A0000C3E80074BD5D9F80000396810F0380090
:1025B0000ED0182801D188070AD0E06868B32968CE
:1025C00021F0190101432960FEF760F8824619E005
:1025D0002868400702D5E06800288AD0FEF750F846
:1025E000404513D82069316821F47C3100E0BEE019
:1025F00041EA0030306022E0FEF748F8A0EB0A0024
:102600000228B7D828684007F6D5E7E7207C31686C
:1026100021F0FE4141EA0060ECE7286820F001006B
:102620002860FEF733F8824606E000BFFEF72EF87A
:10263000A0EB0A0002289DD828684007F6D420782D
:10264000C00659D5D9F80000DFF8A8B2396800F003
:102650003800ABF1040B082812D0182803D101F080
:10266000030001280CD0E0690028286834D040F02D
:10267000800000E0DCE02860FEF708F8824623E0F6
:102680002868C00523D5E069802870D11FE000BF0D
:1026900094F82000316821F0F84141EA8060306010
:1026A0002AE000BF94F82010DBF8002022F07C52D2
:1026B00042EA0161CBF800101EE000BFFDF7E6FF23
:1026C000A0EB0A0002289CD82868C005F6D5FDF7C3
:1026D000D7FF4045E6D8DBE720F080002860FDF713
:1026E000D5FF064605E000BFFDF7D0FF801B02289E
:1026F00087D82868C005F7D42078000729D57D48F9
:102700006169643000298046016811D041F00101FF
:102710000160FDF7BBFF064605E000BFFDF7B6FF11
:10272000801B022887D8D8F800008007F6D510E073
:1027300021F001010160FDF7A9FF064605E000BF99
:10274000FDF7A4FF801B022872D8D8F8000080078C
:10275000F6D42078800623D5A0690028286810D0F8
:1027600040F480502860FDF791FF064605E02EE119
:10277000FDF78CFF801B02285AD828688004F7D503
:102780000EE020F480502860FDF780FF064604E04C
:10279000FDF77CFF801B02284AD828688004F7D404
:1027A000207840074FD5DFF85081D8F8001041F469
:1027B0008071C8F80010FDF769FF064605E000BF0C
:1027C000FDF764FF801B642832D8D8F80000C005EC
:1027D000F6D5484EA068603601280AD008B1052811
:1027E00013D0306820F001003060306820F0040021
:1027F00002E0306840F001003060A06841F2883AA1
:1028000090B1FDF743FF80460AE0306840F00400D5
:102810003060EEE7FDF73AFFA0EB0801514507D81D
:1028200030688007F6D50EE0FDF730FF804607E000
:1028300084E000BFFDF72AFFA0EB080151457DD8D9
:1028400030688007F6D4606AF0B3DFF8A880D9F862
:10285000001008F12008C1F3C20103296FD002283B
:10286000286820F08070286003D0FDF70FFF044631
:1028700082E0FDF70BFF064605E000BFFDF706FF0F
:10288000801B022875D828688001F7D4E26A40F2DC
:10289000F331386854F8283F884340EA021018435F
:1028A0003860217B4FF4FE0C22894FF0FE47208ACE
:1028B0004902267D521E401EA1F5007189B20CEA24
:1028C0000040C2F3080200E083E01143761E01439A
:1028D000084807EA06621143064A1C30C8F800108F
:1028E0002432016821F00101016011684FF6F87689
:1028F000B14303E01044025800480258236A41EAF9
:10290000C30111600168A26921F00C01114301604B
:102910000168E26921F0020111430160016841F49C
:1029200080310160016841F400310160016841F4C7
:1029300080210160016841F0010101E019E01FE020
:102940000160286840F080702860FDF79FFE044613
:1029500005E000BFFDF79AFE001B022809D8286891
:102960008001F7D535E000BFFDF790FE001B02287F
:1029700002D90320BDE8F09F28688001F4D428E044
:1029800039680128D8F8000021D0A26A01F00303B9
:1029900093421CD1E26AC1F305118A4217D1216B1F
:1029A000C0F30802491E8A4211D1616BC0F346226E
:1029B000491E91420BD1A16BC0F30642491E9142C0
:1029C00005D1E16BC0F30660491E814201D00120B0
:1029D000D0E70020CEE7704770477047704700008F
:1029E0002DE9FE430446C06B0E46032184F83410E3
:1029F000002703285ED0B6F5004F5BD0B6F5804FB8
:102A00004FF000004FF400654FF0806804D01EB313
:102A1000A06B40F0006043E00090002101908146EF
:102A2000206802F03DF8800113D46946204602F088
:102A30006FF805000DD1019840032FD5B4F8481068
:102A40002068090401F0D0FC050002D120680221B1
:102A50001EE0A06B284323E00090002101908146F6
:102A6000206802F01DF88001F3D46946204602F088
:102A70004FF80500EDD10198C0030FD5B4F8481008
:102A80002068090401F0B0FC0500E2D120680021B3
:102A900001F0F4FC0500DCD14D46DAE74546D8E705
:102AA000A063A06B4FF40078184D38B1206801275F
:102AB000856318E0A06B40F08050F1E7D4E904C0D2
:102AC000D4E901123346042806D2E66D464503D008
:102AD000B6F5807F18D00420CDF800C0CDE9010AFA
:102AE000206801F0E1FF2068414601F0AEFC28B10A
:102AF000216801278D63A16B0143A163012084F844
:102B000034003846BDE8FE830220E5E7FF0FE01FF2
:102B10007047704710B550F8702F0123120E0A70DD
:102B20000268120A4A8002784468120642EA1422B5
:102B30004A6002790A728268120E4A72D0E902244F
:102B4000120242EA1462CA60C268C2F303520A74F3
:102B5000C268C2F30B224A82007BC0F346000875AC
:102B60004B75002010BD0000F0B5026E920F0A7088
:102B7000026EC2F383624A70026EC2F301628A700F
:102B8000026E120CCA70B0F86020120A0A7190F836
:102B900060204A71426E120DCA80426EC2F3034237
:102BA0000A72B0F86420C2F3C0324A72B0F86420EE
:102BB000C2F380328A72B0F86420C2F34032CA7223
:102BC000B0F864200026C2F300320A734E7301226B
:102BD000C36B4FF4007463B1012B3AD003685049C2
:102BE0009963816B41F08051816380F8342001202A
:102BF000F0BDB0F86430856E9B051B0D43EA9573FC
:102C00000B61836EC3F3C2630B75836EC3F3026300
:102C10004B75836EC3F342538B75836EC3F382434C
:102C2000CB75836EC3F3C2330B760D696D1CC5641F
:102C30000B7E03F007039B1C9D40C5640B7A8465E3
:102C400003F00F0302FA03F35F0A7D43C0E9143572
:102C50000EE090F86450836EAD06AD0A45EA13436A
:102C60000B610B695B1C9B02C364C0E91443846560
:102C7000B0F86830C3F380334B76B0F86830C3F3F4
:102C8000C6138B7690F8683003F07F03CB76C36E63
:102C9000DB0F0B77C36EC3F341734B77C36EC3F384
:102CA00082638B77C36EC3F38353CB77C36EC3F357
:102CB000405381F8203081F82160C36EC3F3004394
:102CC00081F82230B0F86C30C3F3C03381F8233080
:102CD000B0F86C30C3F3803381F82430B0F86C3036
:102CE000C3F3403381F82530B0F86C30C3F30033C0
:102CF00081F82630B0F86C30C3F3812381F8273097
:102D0000B0F86C30C3F3012381F8283090F86C00E0
:102D1000C0F3460081F8290081F82A200020F0BD88
:102D2000FF0FE01FC26B0A60026C4A60426C8A604F
:102D3000826CCA60C26C0A61026D4A61426D8A612E
:102D4000806DC8610020704770B5B0F8481000254C
:102D500004460068090401F0A3FC18B1A16B01430B
:102D6000A16304E02068002101F09AFE0546C5F346
:102D7000432070BD2DE9F04190B00C460026054679
:102D8000694602F043F82A4F4FF0010840B12A6823
:102D900001269763AA6B0243AA6385F8348036E064
:102DA00000994FF47F40C1F3811121700099C1F364
:102DB00040116170009A114600EA122242EA116144
:102DC0006180019909BA6160029921720299090A28
:102DD00061720299C1F30351A172DDE9022100EA97
:102DE0001240C9B20843A0810398C0F38520A073A4
:102DF0000398C0F30120E0730398C0F3031020741C
:102E0000039800F00F0060740498000EA074286806
:102E10004FF4007101F019FB28B12A68012697636D
:102E2000A86385F8348010B03046BDE8F08100001A
:102E3000FF0FE01F2DE9F84304460068256B416B46
:102E400009041BD5290719D5D4E90A50202813D322
:102E50000026206801F03EFE020A2870010C6A700C
:102E6000030EA970761CEB70082E05F10405F0D353
:102E7000E06A2038C4E90A50BDE8F883416B0127B5
:102E8000DFF8EC810026C90551D539024CF23A121F
:102E9000816329072068C16B21EA0201C1632068B0
:102EA000C16B21F08051C1632068C16821F04001ED
:102EB000C16018D515F0220F09D0206801F03CFC44
:102EC00028B1A16B0143A1632046FFF722FE2168D0
:102ED000AA07C1F8388084F83470266323D12046CD
:102EE00000F099FAC8E72806C6D5206815F0220F29
:102EF00086622068C6622068066509D0206801F0F5
:102F00001BFC28B1A16B0143A1632046FFF701FE22
:102F100015F0300F84F83470266302D0204600F09C
:102F20007AFAA807A8D0204600F074FAA4E7416B0B
:102F3000490421D529071FD5D4E9085020289BD35F
:102F4000002628780090697840EA01200090A9784E
:102F500040EA01400090E9782D1D40EA01600090B0
:102F60002068694601F0CEFD761C082EE9D3606A20
:102F70002038C4E908507FE7416B11F03A0F416BEC
:102F800058D0890703D5A16B41F00201A163416BC1
:102F9000090703D5A16B41F00801A163416B8906C4
:102FA00003D5A16B41F02001A163416BC90603D594
:102FB000A16B41F01001A163C0F838802068C16B9B
:102FC00021F49D71C1632068C16821F04001C16096
:102FD0002068C16A41F40051C1622068C16841F0B3
:102FE0008001C160206801F0A7FBA26B2B074FF4A2
:102FF000006140EA0200A0632068C26822F08002FB
:10300000C2602068816303D584F8347026630DE0C4
:1030100028068BD5A06B002888D02068C16B21F0D2
:103020008051C1632068066584F834702046FFF73C
:1030300070FD21E7C9009ED54FF080518163206863
:10304000006D40074FEA856008D40028204602DA68
:10305000FFF7C4FC10E7FFF7BFFC0DE70028204690
:1030600002DAFFF7BAFC07E7FFF7B5FC04E7000058
:103070003A0F0018F0B5040085B024D094F834005D
:10308000002538B9A069257708B90220A06120463B
:1030900000F092F8032084F83400204600F03CF859
:1030A00088B969462046FFF765FE60B99DF81010A3
:1030B000E26B9DF81100012A08D0E5652046E16821
:1030C000FFF78EFC58B1012005B0F0BD014302D0DE
:1030D0004FF4007001E04FF48070E065EEE7FDF71B
:1030E000D5FA0127064604E0FDF7D0FA801B401C04
:1030F0000AD02046FFF728FE0428F5D1A5632563F2
:1031000084F834700020DFE74FF00040A06384F8BB
:1031100034700320D8E70000FEB582690021044620
:103120004FF0FA06022A0A46134604D125682F6892
:1031300047F010072F60CDE900360294206801F0B7
:10314000B3FC206801F0C0FC4FF48030FEF7A6FA13
:103150004FF4FA71B0FBF1F020B11549B1FBF0F07A
:10316000401C00E00220FDF75BF9204601F0ACFDB9
:103170004FF0010530B100BF84F83450A16B01431A
:10318000A16313E0204601F035FD0028F4D120684A
:103190004FF4007101F059F9002808D02268054960
:1031A0009163A16B0143A16384F834500120FEBDFB
:1031B00010210100FF0FE01FF0B587B00446142175
:1031C0006846FDF79EF81E492068884235D11D48A3
:1031D000016841F480310160006800F4803005909E
:1031E00018480C30016841F004010160016801F0E9
:1031F00004010591016841F00801016000680224A2
:103200000025694600F00800059003260C274FF4BE
:10321000F8508DE8F1000C48FDF714F904206946D8
:103220008DE8F1000948FDF70DF900223120114623
:10323000FDF7F2FA3120FDF7E1FA07B0F0BD00002A
:1032400000700052D444025800080258000C025882
:103250002DE9F04F87B0994617460D460446FDF715
:1032600015FA06903DB194F83400012807D0A06B00
:1032700040F000500DE0A06B40F0006009E0626D8E
:10328000002007EB0901A063914204D9A06B40F034
:103290000070A063A8E0032184F834102168C8629C
:1032A000E16B012900D07F024FF0020ACDE903A0B3
:1032B00090264FF0FF324FEA492305908DE84C00ED
:1032C00080462068694601F0AEFA2068B9F1010F26
:1032D0004FF00106C16841F04001C16006D9C4F851
:1032E00030A03946206801F047F904E026633946EA
:1032F000206801F05BF9DFF814A150B12368C3F82E
:1033000038A0A16B0143A16384F83460C4F8308015
:103310006AE0DDF804B01FE0406B000414D5BBF197
:10332000200F11D30027206801F0D4FB020A287077
:10333000010C6A70030EA9707F1CEB70082F05F159
:103340000405F0D3ABF1200BFDF7A0F90699411A63
:103350001098814221D200B32068416B11F4957F0F
:10336000DAD0C16821F04001C1602068416BC90515
:1033700022D5B9F1010F1FD9E16B03291CD001F04F
:10338000DBF9C8B12368C3F838A0A26B0243A2637B
:1033900084F83460C4F8308026E02268C2F838A08F
:1033A000A06B40F00040A06384F83460C4F8308023
:1033B000032007B0BDE8F08F2068416B090706D5F0
:1033C000C0F838A0A16B404641F0080108E0416B0D
:1033D00089070BD5C0F838A0A16B404641F0020127
:1033E000A16384F8346020630120E2E7416B890621
:1033F00006D5C0F838A0A16B404641F02001EFE7A8
:103400000349816384F834600020D2E7FF0FE01F96
:103410003A0F0018704770472DE9F04F89B09A466F
:1034200016460D460446FDF731F906903DB194F875
:103430003400012807D0A06B40F000500DE0A06BD5
:1034400040F0006009E0626D002006EB0A01A06315
:10345000914204D9A06B40F00070A063B2E0032158
:1034600084F834102168C862E16B012900D076022B
:103470004FF0FF314FEA4A22059090230490CDE9A6
:103480000230CDE9001280462068694601F0CBF990
:103490002068C168BAF1010F41F04002C26006D94C
:1034A000202020632068314601F089F905E01020D2
:1034B00020632068314601F09CF9DFF830B1060046
:1034C0004FF001090AD02368C3F838B0A06B30432D
:1034D000A06384F83490C4F8308073E001980890B9
:1034E00027E0406B40041CD50898202819D30027FA
:1034F00028780790697840EA01200790A97840EA87
:1035000001400790E9782D1D40EA0160079020688E
:1035100007A901F0F7FA7F1C082FE9D30898203893
:103520000890FDF7B3F80699411A1298814221D20A
:1035300000B32068416B11F48D7FD2D0C16821F0B7
:103540004001C1602068416BC90521D5BAF1010F66
:103550001ED9E16B03291BD001F0EEF8C0B125683C
:10356000C5F838B0A16B0143A16384F83490C4F866
:10357000308027E02368C3F838B0A26B3243A263DF
:1035800084F83490C4F83080032009B0BDE8F08F8F
:103590002068416B090707D54946C0F838B0A26BCF
:1035A000404642F0080209E0416B89070CD54946C4
:1035B000C0F838B0A26B404642F00202A26384F821
:1035C000341020630120E0E7416BC90607D5494666
:1035D000C0F838B0A26B404642F01002EEE7044A51
:1035E000826384F834900020CFE70000FF0FE01FD3
:1035F0003A0F0018401EB0F1807F10B501D30120B2
:1036000010BD4FF0E02460610F21601703F07FF8D8
:103610000020A0610721216110BDFEE7F0B5002365
:103620000A251C463026372711E000BFB5EB107F76
:1036300002D906EB107C01E007EB107C01F813C007
:1036400001EB430C00015B1C8CF80140DBB29342A0
:10365000ECD3F0BD70B50A4D01220821044628467E
:10366000FDF708F8601EFCF7DBFE00222846082163
:10367000FDF700F8BDE8704040F2F310FCF7D0BE53
:10368000001002587FB5002500950195029503951D
:10369000FDF786F801248DF800401B208DF8080006
:1036A0008DF80B504FF010468DF80A4068468DF8A3
:1036B0000150019603948DF80950FDF743F8162048
:1036C0008DF808008DF80F4005218DF80B10684625
:1036D0008DF80E408DF800408DF80D508DF80A40A1
:1036E0008DF8014001968DF80C508DF80950FDF7CA
:1036F00029F812218DF808108DF80F4003228DF85B
:103700000B20B0088DF80E4002238DF800408DF894
:103710000D408DF80A40019068468DF801308DF813
:1037200009508DF80C50FDF70DF80420FDF746F810
:103730007FBD70B5D0F8B842054604F58051087ECB
:1037400038B9486928B1607A18B90121284602F0D1
:103750000DF88121284602F009F8607A022809D183
:1037600041F20C0022182846BDE870401F230121B9
:1037700001F07EBF70BD00002DE9F041D0F8B842E5
:103780000646012104F58055286928636869686345
:10379000304601F017FF1F280AD12849E8688842FF
:1037A00006D1697E012903D8A87E08B1102808D95E
:1037B000697E20230522304600F094FD02206072CD
:1037C0000AE041F21B002218304600F061FB00289D
:1037D000207A08DA052804D03046BDE8F041FFF72A
:1037E000A8BF012123E0022826D0012824D00328E5
:1037F00022D06589D5B104F10C02D6F8B842304622
:1038000004F580514B69AB4200D32B464E6B002729
:103810004FF0040C751B4D6381F838709BB284F82F
:1038200008C08121BDE8F04101F0BBBF0021304656
:10383000BDE8F04100F08CB8BDE8F081555342433B
:1038400010B5D0F8B842627A022A08D009060BD522
:10385000012A09D0BDE81040012100F079B881218A
:1038600001F084FF0020607210BD10B5D0F8B822BE
:103870000446107A022805D0032801D0042811D16B
:1038800000210AE041F21900831C815C1A442046A1
:1038900000F0FEFA002805DA01212046BDE81040BC
:1038A00000F056B810BD10B5D0F8B8220446107A12
:1038B00088B1012814D141F21900831C815C1A449B
:1038C000204600F0E5FA00280ADA2046BDE810405C
:1038D000012100F03DB82046BDE81040FFF74CBF85
:1038E00010BDD0F8B80200210172704770B5D0F851
:1038F000B8420546002104F580502172617280F8BB
:103900005D1080F85C10D5F8BC0201680020884783
:103910000121284601F04DFE8121284601F049FE93
:1039200041F20C0022182846BDE870401F230121F7
:1039300001F09EBED0F8B812002301220B721F23A3
:103940004A7241F20C020A44012101F091BE0000CA
:1039500070B5D0F8B84205460C4B002004F58052F3
:10396000D3620D2382F838108121207241F22C009D
:103970002218284601F015FF41F20C0022182846B3
:10398000BDE870401F23012101F072BE5553425320
:1039900010B586B014216846FCF7B3FC1D480168D9
:1039A00041F010010160016801F01001059101680A
:1039B00041F080010160016801F08001059101681A
:1039C00041F004010160016801F004010591016802
:1039D00041F001010160016801F0010105910168F8
:1039E00041F008010160006800220B4C082100F042
:1039F000080005902046FCF73DFE002108200090BD
:103A000001222046CDE9012103916946FCF71AFD08
:103A100006B010BDE0440258001002580D480021C5
:103A200070B54FF480420A4DC0E900510523C0E94A
:103A300002121030012480E81A001038FFF71AFB38
:103A4000002803D0BDE87040FCF7E3BC70BD000067
:103A5000007000529C01002410490022104810B54B
:103A600001F0D1FC08B1FCF7D4FC0E490C4801F080
:103A7000AFFF08B1FCF7CDFC0B49094801F004FF8A
:103A800008B1FCF7C6FC064801F0FAFF08B1FCF7E4
:103A9000C0FCBDE81040FDF701BC0000140000248C
:103AA0001C0200248800002464000024FEE7704704
:103AB0000148FDF75FB80000E00600242DE9F04161
:103AC000044600690D462027236801284FF400466C
:103AD00004F5717203EB4511D3F840C0D1F8080B1F
:103AE00009D0DFF89CE0F4453AD1020433D500BF99
:103AF000C1F8086B40E0234B5FEA007E04D59C458B
:103B00003AD90004F4D437E05FEA806E02D5C1F8F8
:103B1000087B31E010F0280F2ED19C4501D900041C
:103B2000E6D4D1F8103BC5EBC50004EB8000C3F32D
:103B30001203D0F80412A1EB0303C0F81432D0F83A
:103B400008321944C0F8081295B9D4F8100278B9AF
:103B5000206801210AE080060AD5C1F8087B07E049
:103B600035B9D4F8100218B90021184602F034FB18
:103B70002046E9B2FCF7CBFE0020BDE8F081000052
:103B80000A31544F0A30544F2DE9F84F0E4605685C
:103B90008146C1EBC60100EB8104D4E914203C341A
:103BA000904202D90120BDE8F88FA168101A814225
:103BB00000D20846C01C05EB461887081BE000BF72
:103BC000A268A0EB010A524500D2924699F8101063
:103BD0000AF1030000911FFA8AF3E168870828467A
:103BE000F2B202F081FDE16801EB0A00E060A16938
:103BF00001EB0A00A061D8F8180980B2B84205D3D9
:103C0000D4E90501814201D20028D9D1D4E90501C6
:103C1000884208D8D5F83418012006F00F029040E9
:103C20008143C5F834180020BDE770472DE9F047FF
:103C3000454D044689464FF0000A2868C043800776
:103C40000AD0414E283E306820F080603060FCF79A
:103C50001DFD0746B04608E00120BDE8F08700BF23
:103C6000FCF714FDC01B022867D8D8F8000000013B
:103C7000F6D4206829684FF4FE0721F47C313E0217
:103C800041EA00302860207AA389B4F804C04002D9
:103C90002D4D2D495B1E227CACF1010C1035091D08
:103CA000A0F5007080B2521ECCF3080C07EA034363
:103CB00040EA0C00184306EA0262104328600868D4
:103CC000626920F0C000104308600A68A06922F011
:103CD000200202430A60281D0A6822F010020A60CE
:103CE00002684FF6F873E4699A4342EAC40202603C
:103CF0000868B9F1000F40F010020A6011D008689E
:103D0000B9F1010F11D040F400100860D8F800009C
:103D1000444640F08060C8F80000FCF7B7FC054658
:103D20000DE0086840F40020EFE740F48010ECE775
:103D3000FCF7ACFC401B022801D903208DE720686A
:103D40000001F5D5504688E7284402582DE9F04790
:103D5000454D044689464FF0000A2868C043800755
:103D60000AD0414E283E306820F080503060FCF789
:103D70008DFC0746B04608E00120BDE8F08700BF93
:103D8000FCF784FCC01B022867D8D8F8000080002C
:103D9000F6D4208829684FF4FE0721F07C713E029A
:103DA00041EA00502860207AA389B4F804C0400298
:103DB0002D4D2D495B1E227CACF1010C1835091DDF
:103DC000A0F5007080B2521ECCF3080C07EA034342
:103DD00040EA0C00184306EA0262104328600868B3
:103DE000626920F44060104308600A68A06922F408
:103DF000007202430A60281D0A6822F480720A6079
:103E000002684FF6F873E4699A4342EAC40202601A
:103E10000868B9F1000F40F480720A6011D0086898
:103E2000B9F1010F11D040F080700860D8F800009F
:103E3000444640F08050C8F80000FCF727FC0546D7
:103E40000DE0086840F48000EFE740F40000ECE784
:103E5000FCF71CFC401B022801D903208DE72068D9
:103E60008000F5D5504688E72844025800B5134431
:103E7000D0F8B82202F58052126E934206D921235F
:103E8000052200F02FFA4FF0FF3000BD002000BDEA
:103E90002DE9F04113780024232B70D00DDC1A2B70
:103EA0006ED005DCEBB1032B39D0122B11D168E0B9
:103EB0001B2B01D01E2B0CD18FE02A2B72D004DCDF
:103EC000252B70D0282B04D1ADE02F2B6CD05A2B92
:103ED0006BD02023052200F005FA4FF0FF30BDE83B
:103EE000F081D0F8B87205460E4607F5805041695A
:103EF00021B12023417E05222846A1E0D5F8BC024D
:103F000081683046884740B13A233146022228462C
:103F100000F0E8F9052038729EE07C819CE0D0F842
:103F2000B80200214B1C4518D9B212292C73F9D3C1
:103F30007021017300F580510C23C37491F85C303B
:103F400091F85D50AB4213D000EBC305A5F6C475E4
:103F500005F500555B1CDBB22E78042B86736E7959
:103F600006762D79457681F85C3001D181F85C4088
:103F700012214181117912296ED841816CE04CE007
:103F80002FE05378DC07D0F8B8320FD0334A07203F
:103F90005881401E0004000C03EB0004115C2173E7
:103FA000F7D159E042E03BE043E028E0D0F8BC0222
:103FB00001EBC1041179C06900EB84021079401D46
:103FC000814200D80846588104E0401E80B21C1887
:103FD000115C21730028F8D13EE0D0F8B80244818A
:103FE0003AE0D0F8B81208201D4A4881401E00046B
:103FF000000C01EB0004135C2373F7D12CE0D0F824
:10400000B8120820174A4881401E0004000C01EB3A
:104010000004135C2373F7D11EE000F02CF91BE0C1
:1040200000F0FBF818E000F0AFF815E000F07BF9C5
:1040300012E05278D0F8B852920704D52423052212
:1040400000F050F908E005F58052D2E91923FFF796
:104050000DFF002800DB6C81002040E7906800081D
:10406000976800089F6800082DE9F04707468846D2
:104070004FF48050D7F8B86206F58054B4F85E105B
:10408000A56E4D43854200D30546626EB5FBF1F047
:1040900006F10C01894683B2D7F8BC02D0F810C0F3
:1040A0004046E047002809DA1123414604223846F9
:1040B00000F018F94FF0FF30BDE8F087ABB24A4688
:1040C0008121384601F06DFBB4F85E00636BB5FBEF
:1040D000F0F7B5FBF0F0D4E919125B1B63633944C8
:1040E000101AC4E9191001D1032030720020E3E74F
:1040F0002DE9F0478846D0F8B812074601F58054FC
:104100004FF48055B4F85E00A66E4643AE4200D32D
:104110002E46626EB6FBF0F00C31894683B2D7F8BA
:10412000BC02D0F814C04046E047002809DA032357
:1041300041460422384600F0D5F84FF0FF30BDE884
:10414000F087B4F85E10D4E9193CB6FBF1F0B6FB89
:10415000F1F8626BA2EB060262630344BCEB080059
:10416000C4E919300BD04843A84200D205464A465C
:10417000ABB23846012101F07BFA0020DFE70021D5
:104180003846FFF7E5FBF8E72DE9F047D0F8B852DD
:10419000074616468946287AA8BB05F580544FF095
:1041A000FF38207E00062AD5D7F8BC028168484631
:1041B000884730B13A2349460222384600F092F847
:1041C00011E0D6F80210707909BA21F0FF024946D1
:1041D00002436266B6F8070043BA3846A366FFF7A3
:1041E00045FE002802DA4046BDE8F087022028722A
:1041F000B4F85E10A06E62694843904204D0202358
:10420000617E0522D9E7FFE74FF480504946688177
:104210003846BDE8F047FFF727BF70B505460E46A4
:1042200041F25E00D5E9AE41221830464B6804F5F4
:104230008351984740B13A2331460222284600F084
:1042400051F84FF0FF3070BD04F580510022086E28
:10425000401E030E2373050C6573060AA673E073F4
:10426000227462740822B1F85E00010AA174E0743D
:104270000020628170BD2DE9FC4105460F460026F5
:104280003046D5F8B842411C221888B20C28167363
:10429000F9D3D5F8BC0201A96A4643683846984765
:1042A00048B13A2339460222284600F01BF84FF065
:1042B000FF30BDE8FC810820E073019802212175E0
:1042C000401E6675010E2174020C6274030AA37409
:1042D000E0740C22BDF800006281010AA175E0754E
:1042E0000020E6E710B5D0F8B812002301F58050A1
:1042F00090F85D4001EBC40404F5805484F83C2040
:1043000090F85D2001EBC20101F5805181F8403049
:1043100090F85D10491CC9B280F85D10042901D1E4
:1043200080F85D3010BD2DE9F047D0F8B852064650
:1043300017468946287A20B13046BDE8F047FFF796
:10434000D7BE05F580544FF0FF38207E000631D4EB
:10435000D6F8BC0281684846884728B13A230AE06B
:104360003046FFF7BFFF1BE0D6F8BC02C1684846E5
:10437000884718B1272349460222F1E7D7F80200FF
:10438000797900BA20F0FF020A436266B7F80700A5
:10439000494643BA3046A366FFF768FD002802DAB3
:1043A0004046BDE8F087B4F85E20A16E60695143D5
:1043B000884203D02023617E0522D1E74FF480504C
:1043C000814200D301468BB20120287205F10C0214
:1043D0000146304601F04CF90020E2E70148FEF7C3
:1043E00029BD00009C01002430B585B0044637206B
:1043F0004FF480720DF1080CCDE9001000236946DE
:10440000150120468CE82C0000F068FB372141F2B2
:104410008832204600F01AFA05B030BD30B585B0BC
:10442000044629204FF480720DF1080CCDE90010EC
:1044300000236946150120468CE82C0000F04EFB55
:10444000204600F0BFFA05B030BD30B5044610205C
:1044500085B00DF1080C02010502CDE90010002322
:1044600069468CE82C00204600F038FB102141F210
:104470008832204600F0EAF905B030BD30B585B08D
:10448000044606204FF480720DF1080CCDE90010AF
:1044900000236946150120468CE82C0000F01EFB25
:1044A000062141F28832204600F0D0F905B030BD37
:1044B00030B585B00546002469464FF4805000941D
:1044C00001940294CDE90340284600F007FB0B4A13
:1044D0004FF4FA5041F288311268B2FBF0F04843D1
:1044E000401E03D24FF0004005B030BD696B090695
:1044F000F6D503492046A963F6E700000C00002426
:10450000C500200030B50821044685B04FF4D570B1
:1045100000254A014B0204938DE827006946204696
:1045200000F0DCFA134A4FF4FA5041F28831126875
:10453000B2FBF0F04843401E03D24FF0004005B0FC
:1045400030BD616B11F0450FF5D08904F3D4606B79
:10455000400701D5042003E0606BC00702D00120B2
:10456000A063ECE7606B400601D54020A0632846BD
:10457000E5E700000C00002430B585B004461220A9
:104580004FF480720DF1080CCDE90010002369464C
:10459000150120468CE82C0000F0A0FA122141F20F
:1045A0008832204600F052F905B030BD30B585B0F4
:1045B000044611204FF480720DF1080CCDE9001073
:1045C00000236946150120468CE82C0000F086FA8D
:1045D000112141F28832204600F038F905B030BD93
:1045E00030B585B004464FF480710DF1040C0720FE
:1045F000009200230D018CE82B006946204600F054
:104600006DFA072141F28832204600F01FF905B00B
:1046100030BD10B586B00446002102204FF4407230
:10462000C3020493CDE90010CDE90221694620467A
:1046300000F054FA204600F09BF906B010BD30B5EA
:1046400085B0044609200DF1080C0023CDE90010C7
:104650004FF4407269464FF4805520468CE82C0098
:1046600000F03CFA204600F083F905B030BD10B5EB
:1046700086B00446002133204FF48072CDE9022138
:10468000CDE90010130169462046049300F026FA94
:10469000332141F28832204600F0D8F806B010BD30
:1046A00030B585B004460D204FF480720DF1080C32
:1046B000CDE9001000236946150120468CE82C0046
:1046C00000F00CFA0D2141F28832204600F0BEF8CD
:1046D00005B030BD30B585B00C460021054603203D
:1046E0004FF48072CDE90221CDE900101301694633
:1046F0002846049300F0F2F903212246284600F0F0
:1047000085F905B030BD10B586B0044600210D20F6
:104710004FF48072CDE90221CDE900101301694602
:104720002046049300F0DAF90D2141F28832204648
:1047300000F08CF806B010BD10B586B004464FF4FA
:10474000807200200C2113018DE80700CDE90303DE
:10475000E06840F08000E060E06820F04000E06049
:104760006946204600F0BAF9074A0C21204600F0BD
:104770006DF8E168B0F1007F21F08001E16000D1C7
:10478000002006B010BD000000E1F50510B586B0B0
:10479000044600210B204FF48072CDE90221CDE9BF
:1047A0000010130169462046049300F097F90B218D
:1047B00041F28832204600F049F806B010BD30B50D
:1047C00085B0044619204FF480720DF1080CCDE934
:1047D000001000236946150120468CE82C0000F0EB
:1047E0007DF9192141F28832204600F02FF805B0FA
:1047F00030BD30B585B0044618204FF480720DF1FD
:10480000080CCDE9001000236946150120468CE80C
:104810002C0000F063F9182141F28832204600F0A4
:1048200015F805B030BD70B50A6842624A68826208
:10483000C46AD1E90225D1E9043624F0FF012A43F4
:1048400033431A431143C162002070BD30B5464D59
:104850004FF4FA53434C2D68B5FBF3F353435B1EFF
:1048600002D24FF0004030BD426B2242F7D092049A
:10487000F5D4426B520703D504218163084630BD4D
:10488000426BD20702D00121816306E0354A8032B3
:1048900082630269D2B28A4201D0012030BD002178
:1048A00000F0FEF83149084201D1002030BD002857
:1048B00002DA4FF0007030BD410001D5402030BD1C
:1048C000810001D5802030BDC10002D54FF4807039
:1048D00030BD010102D54FF4007030BD410102D559
:1048E0004FF4806030BDC10102D54FF4006030BD8F
:1048F000010202D54FF4805030BD410202D54FF481
:10490000005030BD810202D54FF4804030BDC1025D
:1049100002D54FF4004030BD410302D54FF40030C2
:1049200030BD810302D54FF4802030BDC10302D5D4
:104930004FF4002030BD010402D54FF4801030BD8B
:10494000410402D54FF4001030BD810402D54FF46C
:10495000800030BD000702D54FF4000030BD4FF499
:10496000803030BD450020000C00002408E0FFFD31
:10497000124B4FF4FA5141F288321B68B3FBF1F14C
:104980005143491E02D24FF000407047426B12F073
:10499000450FF6D09204F4D4416B490703D50421A6
:1049A000816308467047416BC90703D001218163C9
:1049B0000846704702498163002070470C000024BC
:1049C000C50020000F4B4FF4FA5141F288321B68AA
:1049D000B3FBF1F15143491E02D24FF00040704742
:1049E000426B12F0450FF6D09204F4D4416B4907A4
:1049F00003D5042181630846704703498163002081
:104A0000704700000C000024C500200030B5204D88
:104A10004FF4FA5341F288342D68B5FBF3F3634346
:104A20005B1E02D24FF0004030BD446B14F0450FC6
:104A3000F6D0A404F4D4436B5B0703D5042181634F
:104A4000084630BD436BDB0702D00121816303E0E0
:104A50000369DBB28B4201D0012030BD0D49816377
:104A6000002100F01DF810F4604F04D0410406D579
:104A70004FF4005030BD000C1080002030BD000409
:104A800002D54FF4805030BD4FF4803030BD00006F
:104A90000C000024C5002000006800F003007047EF
:104AA000084440697047000030B511434268DDE9B1
:104AB00003542B43034D194321432A400A434260C8
:104AC000002030BD002CC0FF016841F003010160EF
:104AD00000207047D0F880007047000070B5084D86
:104AE0000A688260C368D1E90126D1E903412B40FD
:104AF00032430C4322431343C360002070BD0000C7
:104B0000C0E0FEFF0968C0F8801000207047000078
:104B10002DE9F04F87B00D460446FBF7B7FD0026A0
:104B2000069020680821B3463746FFF78EFC002820
:104B300033D1B4F8481020680904FFF755FC002869
:104B40002BD1431E4FF008094FF0020A4FF0300CF2
:104B50004FF00108CDF80CA08DE80812CDE90468EB
:104B600020686946FFF75FFE2068FFF780FD002898
:104B700013D140F22A582068416B11EA080F06D180
:104B8000416B090315D4BBF1000F09D011E0416B53
:104B9000090717D5C0F83890082007B0BDE8F08F96
:104BA000FFF798FF06462068FFF794FF07464FF08F
:104BB000010BFBF76BFD0699401A401CDBD14FF04F
:104BC0000040EAE7416B890703D5C0F838A002200E
:104BD000E3E7416B890603D5202181630846DCE7C2
:104BE000034A39BA33BA82630020C5E90013D4E717
:104BF0003A0F001810B58CB004460120ADF82C0017
:104C00002068FFF749FF002853D0E06B032841D00C
:104C10002068FFF7FEFC002849D120680021FFF73B
:104C20003FFF206704212068FFF73AFF60670821F3
:104C30002068FFF735FFA0670C212068FFF730FFE1
:104C4000E16BE067032925D020680BA9FFF742FD3F
:104C500000282CD1E06B03281CD0BDF82C10A164D7
:104C600020680904FFF7EBFC002820D12068002110
:104C7000FFF716FF206604212068FFF711FF60662A
:104C800008212068FFF70CFFA0660C212068FFF7C1
:104C900007FFE06604212068FFF702FF000D694668
:104CA00060642046FDF760FF30B14FF080500CB0DB
:104CB00010BD4FF08060FAE7B4F84800002302040A
:104CC0002068FFF78DFCF2E72DE9F84F0026044637
:104CD000354637460096FBF7D9FC80462068FFF73B
:104CE000E7FB002867D12068FFF70CFC4FF00109B3
:104CF0004FF6FF7A48B126642068FFF7D9FB0028F9
:104D000059D1206C012802D01CE0C4F84090002149
:104D10002068FFF769FBE0BB14E020680021FFF783
:104D200063FB002847D120685946FFF777FB80BB1B
:104D300020680021FFF7B4FEC70F05460098401C0D
:104D4000009003E0DFF8C0B056460098B04201D2B0
:104D5000002FE2D0B0424FF0807749D2680051D5A1
:104D6000A169C4F83C9002294CD1E8014AD5080257
:104D7000E0652068016841F0080101602068FFF7E4
:104D800005FD002817D1FD012068406B400108D4C3
:104D900000E00EE0FBF77AFCA0EB0800401CF3D12A
:104DA00028E021684FF0806088632068406BC00273
:104DB00003D44FF08050BDE8F88F0120FDF7A8FE26
:104DC0002068016841F00401016005E0FBF75EFC2A
:104DD000A0EB0800401C0DD02068406B8001F5D589
:104DE00021684FF0007088632068416BC90203D5C9
:104DF0003846E0E72846DEE713224FF0FF31026035
:104E0000206881630020D6E7000010C12DE9F04141
:104E100086B00D460446FBF739FC002107462068A2
:104E2000FFF73EFE800104D54FF4006006B0BDE8F8
:104E3000F08120684021FFF708FBC0B9B4F84810A2
:104E400020680904FFF7D0FA88B940214FF0FF30FD
:104E500060224FF0010C022300268DE84F102068DD
:104E60006946FFF7E0FC2068FFF74DFC98B1A16BA5
:104E7000A163DBE7406B000407D500262068FFF73D
:104E800029FE761C082E01C5F8D3FBF7FFFBC01BDB
:104E9000401C02D127E04FF000482068416B11F41C
:104EA000957FE7D0416B090701D50820BEE7416B2C
:104EB000890701D50220B9E7406B80060AD520207A
:104EC000B4E700BFFFF706FE01C5FBF7DFFBC01B21
:104ED000401C08D02068416BC904F3D40146034844
:104EE00088630020A2E74046A0E700003A0F0018C0
:104EF00030B589B0084814460D466946FDF712FFE3
:104F000018B14FF0FF3009B030BD0698401E286040
:104F1000079820800020F6E79C01002400207047BD
:104F200000207047054810B5FDF70EFF042802D099
:104F30004FF0FF3010BD002010BD00009C01002488
:104F40000020704738B5642403FB04F00090074844
:104F5000FEF77EF910B14FF0FF3038BD0348FDF782
:104F6000F3FE0428FAD1002038BD00009C01002483
:104F700038B5642403FB04F000900748FEF74CFAB0
:104F800010B14FF0FF3038BD0348FDF7DDFE0428B7
:104F9000FAD1002038BD00009C0100247047FBF7C7
:104FA0007BBB00002DE9F043CBB04C212FA8FBF7D1
:104FB000A8F9202142A8FBF7A4F9BC216846FBF719
:104FC000A0F90220FCF740F9354936480A6822F07A
:104FD00001020A6009680168002421F4404141F49B
:104FE00000410160016801F440414A91016889046F
:104FF000FCD52D4802250168012705264FF0080839
:1050000021F00301891C01604FF48039389560203C
:10501000CDE93956CDE93B05CDE93F840A214194DC
:10502000CDE93D15CDE92F792FA8FDF75FFA4FF4B3
:10503000FA7618B13046FEF70DFBFBE742A83F2198
:10504000032280E81601012146944794489449942C
:10505000FDF760F818B13046FEF7FCFAFBE70C22CA
:105060004FF0200C4FF4A0210091C0236846CDE9F9
:10507000015203954FF48011CDF84C900495219185
:10508000CDE90573CDE907C4FCF7F6FB18B130464E
:10509000FEF7E0FAFBE7FCF701F94BB0BDE8F0835F
:1050A0002C0400581848025828440258214A30B5A8
:1050B000214914680020204B44F47004146010331C
:1050C0000A681E4D42F001020A6018600A681A4B15
:1050D0002A400A6018331C1D251D174A1860283203
:1050E0002060131D28601C1D251D10602A1D1860DE
:1050F000131D20601C1D2860251D10601860206095
:1051000028600A680C4B0E4C22F4802260330A603F
:10511000186020686FF30F00B0F1005F03D20949F7
:105120000120C1F808014FF0006002498039086091
:1051300030BD000088ED00E0004402587FEDF6EA43
:105140000010005C0080005110B5D0F8B422526805
:105150009047002010BD13460A46002110B500F00C
:1051600087FA002010BD13460A46002110B500F052
:1051700018FB002010BD10B58021044600F0F6FA9F
:105180002046BDE81040002100F0F0BA05210023C0
:1051900010B51A46C0F89412194600F069FA0020BA
:1051A00010BD10B5C2610223C0F8943213460262EA
:1051B0000A46002100F0F5FA002010BD042100236A
:1051C00010B51A46C0F89412194600F0EAFA002009
:1051D00010BD000004A00A46024910B500F0E2F834
:1051E000004810BDE00400244D534320436F6E6619
:1051F00069670000122008800048704734000024CE
:1052000004A00A46024910B500F0CCF8004810BDD1
:10521000E00400244D534320496E74657266616357
:10522000650000000420088000487047300000241A
:1052300004A00A46024910B500F0B4F8004810BDB9
:10524000E004002453544D6963726F656C656374A8
:10525000726F6E696373000004A00A46024910B5BC
:1052600000F0A0F8004810BDE004002453544D3372
:1052700032204D6173732053746F72616765000053
:1052800010B51A2008800B480A490830021F096827
:1052900000681468081809D007490822FEF7BEF90B
:1052A0000549042220461031FEF7B8F90248801E55
:1052B00010BD000000E8F11F4A000024F8B50446C4
:1052C0000D460020ADF800004888010A082948D2A0
:1052D000DFE801F04704091747473C45D4F8B0120E
:1052E000207C0A6819E0207C02260028D4F8B40249
:1052F00005D0C16A68468847014646703EE0816A2B
:10530000F8E7C0B206282CD2DFE800F0030A101438
:10531000181CD4F8B002426805E0694690471CE0CA
:10532000D4F8B0028268E2B1207CF6E7D4F8B0028B
:10533000C268F8E7D4F8B0020269F4E7D4F8B00222
:105340004269F0E7D4F8B0028269ECE7207C40B90A
:10535000D4F8B402416B6846884701460EE0207CD1
:1053600020B129462046FFF706FFF8BDD4F8B40265
:10537000016B68468847014607204870BDF8000069
:1053800048B1EA8852B1824200D902462046ADF8BF
:105390000020FFF706FFE8880028E6D12046FFF747
:1053A0000DFFF8BD70B500284FF000061ED0054671
:1053B000344602E0641C6D1CE4B22B78002BF9D15A
:1053C000022505EB440414801278731C03258A55CA
:1053D0000024B21CCD5406E0551C8B54EAB2531C79
:1053E000401C8C54DAB20378002BF5D170BD01005B
:1053F0004FF0000004D0012901D0022901D0022081
:1054000070470120704710B580B1D0F8B43213B1A5
:105410000023C0F8B43209B1C0F8B0120121027003
:1054200080F89C1200F0D2F8002010BD022010BDC0
:1054300010B5D0F8C002FBF79EFABDE81040FFF7A8
:10544000D6BF10B5D0F8C002FBF76FFABDE8104028
:10545000FFF7CDBF70B51646044649B1D4F8B40283
:1054600042691AB194F89C02032850D0022070BD02
:10547000D4F89432002504F11400022B03D0042B3D
:105480003AD0C3B33CE0D0E90313994207D9C91A13
:10549000C1608AB231462046FFF765FE12E080689F
:1054A000B0FBF3F103FB110199B9984211D3D4F881
:1054B000981288420DD2002220461146FFF753FE73
:1054C000C4F8985200231A461946204600F0D0F836
:1054D00016E0D4F8B402C16829B194F89C020328FC
:1054E00001D1204688478021204600F03FF9204620
:1054F000FFF74CFE04E0FFE78021204600F036F97C
:1055000094F8A002012804D184F8A05201E02046BA
:105510009047002070BD70B51546044649B1D4F8D7
:10552000B40282691AB194F89C02032830D0022098
:1055300070BDD4F8941204F5AA70032902D005298D
:105540001ED027E0D0E903218A420BD9531AC36049
:105550000846834200D3034629469AB22046FFF705
:10556000FAFD17E0D4F8B402016929B194F89C025D
:10557000032801D1204688472046FFF71FFE09E097
:105580000020C4F894020146204600F0EFF801E044
:1055900020469047002070BD0020704710B50121C3
:1055A00080F89C12D0F8B42201795268904700200C
:1055B00010BD10B5D0F8C002FBF70BFABDE81040E3
:1055C000FFF715BFD0F8C002FBF71CBA70B5017821
:1055D00041BB154901260022144C02230925C1F8BC
:1055E0000404C0F8C0120846C1E90336C1E9063216
:1055F0000A624A628A62CA620A63C1E90045FBF72D
:10560000FBFC08B1FAF705FF07488021FBF74BF9CF
:10561000054840220021FBF74AF903488022012176
:10562000FBF745F9002070BDE006002400000840AB
:10563000D0F8C02201F07F000B06C0EBC00002EBE7
:10564000800002D590F83E00704790F8FE01704748
:10565000002070470020704710B51C46D0F8C002EB
:1056600013462246FBF7D7F9BDE81040FFF7BFBE4F
:1056700010B5D0F8C002FBF7FEF9BDE81040FFF707
:10568000B6BE70B50022044640231146FFF7E4FF82
:105690004026C4F86461012533460022204680215B
:1056A000C4F85851FFF7D8FFD4F8B812002066624A
:1056B000A56184F89C52C4F894026060C4F8A40206
:1056C00029B1D4F8B4020021426820469047002056
:1056D00070BD90F89C12042903D190F89D1280F8B7
:1056E0009C120020704710B590F89C12032904D139
:1056F000D0F8B412C96901B18847002010BD017407
:105700000020704710B5D0F8C002FBF749FDBDE896
:105710001040FFF76CBE70B5044600F52A700546D0
:1057200000F042F9B4F8AE32012194F8A80210F06A
:105730001F02C4E9A5130AD0012A0DD0022A10D0F5
:1057400000F08001204600F011F8002070BD2946CD
:10575000204600F09AF9F8E72946204600F0C7FAFB
:10576000F3E72946204600F01AFAEEE710B5D0F824
:10577000C002FBF7A2F9BDE81040FFF738BE10B534
:10578000D0F8C002FBF727FDBDE81040FFF72FBEA1
:1057900090F89C22042180F89D2280F89C12002021
:1057A000704710B5D0F8C002FBF7C1F9BDE8104052
:1057B000FFF71DBE10B5FEF758F8002010BD10B55C
:1057C000FEF771F8002010BD70B501210446FFF707
:1057D00038FE002520468121C4F86C51FFF731FEC8
:1057E0002046E562FEF77DF8D4F8B80218B100F063
:1057F000AFFFC4F8B852002070BD00000A2101803C
:105800000048704720010024202101800048704793
:10581000E00000242021018000487047C0000024DF
:1058200020210180004870470001002470B5044623
:10583000007C0125D0B14023204602220121FFF740
:105840000BFF4023C4F86C51022220468121FFF750
:1058500003FF41F26C00E56200F0CAFFC4F8B80231
:1058600080B12046FEF742F8002070BD4FF400766C
:105870002046022233460121FFF7EEFE3346C4F8EC
:105880006C51E1E7022070BD09B1C0F8BC120020E4
:1058900070472DE9F843D0F8B8724FF0000805467C
:1058A0000C46ADF800804646087810F0600120D024
:1058B00020293DD16178FE2902D0FF2938D10EE0A0
:1058C000618881BBE188012932D1000630D5D5F845
:1058D000BC02806980470122394638601FE0618838
:1058E00009BBE188F9B9000622D42846FEF722F860
:1058F00023E0607830B1012825D00A2809D00B2890
:1059000016D111E095F89C02032811D102226946B4
:1059100005E095F89C0203280AD10122391D28468A
:10592000FFF73FFC09E003E095F89C02032807D04D
:1059300021462846FFF71FFC02263046BDE8F883C3
:10594000A0787860F9E721792846FFF732FE2179BF
:105950002846FFF776FDA08801274FF40073010663
:1059600000F00F0101EB810105EB81010BD5C1F8BE
:105970001880287C00B14023284602228121FFF7AD
:105980006BFEEF620BE0C1F85881287C00B1402328
:10599000284602220121FFF75FFEC5F86C712846F8
:1059A0002179FDF74DFFC8E70A7802704A78427006
:1059B000CB788A7802EB032242804B790A7902EB9A
:1059C000032282808A79C97902EB0121C180704764
:1059D00002464FF0000011B1C2F8B4127047022025
:1059E000704710B5D0F8B42202241AB1126890475B
:1059F00000B90024204610BD70B5204D04468878BB
:105A00000E46C1B20129297031D894F89C020228AF
:105A10000BD003280FD031462046FFF7ACFB297886
:105A20002046BDE87040FFF78FBBD9B1616003200D
:105A300084F89C0209E071B16068884212D0C1B25A
:105A40002046FFF781FB297861602046FFF7C9FFF8
:105A500002280CD006E00220616084F89C022046F7
:105A6000FFF772FB2046BDE87040FFF7A7BB314649
:105A70002046BDE87040FFF77EBB00008400002494
:105A800010B5FFF77CFE002010BD2DE9F0410A782B
:105A90004FF0000612F0600208D0202A01D0402A00
:105AA00070D1D0F8B422926890476DE04B78002214
:105AB00001250A2B66D2DFE803F0405D65576508D3
:105AC00005652C29FFF7FAFB5EE004468888D8B903
:105AD000C888C8B94888802816D294F89C2200F05B
:105AE0007F07032A10D03946204684F89E72FFF7BC
:105AF00009FE2046FFF762FB1FB1022084F89C02DA
:105B000042E084F89C523FE020463BE0FFF774FF00
:105B10003AE0CB88012B35D190F89C32012B04D090
:105B2000022B02D0032B2DD104E000F1080182608A
:105B3000012216E00122011D13E090F89C22012AA7
:105B400003D0022A01D0032A1CD1CA88022A19D103
:105B5000D0F8A412C56009B10321C160022200F18E
:105B60000C01FFF71EFB0FE0498801290CD1C0F89A
:105B7000A45211E090F89C32012B08D0022B06D0E1
:105B8000032B04D0FFF7F7FA3046BDE8F0814988CF
:105B90000129F9D1C0F8A422FFF710FBF4E70A4667
:105BA0002DE9F041044610780979002710F06003D0
:105BB0000AD0202B01D0402B50D1D4F8B40211468A
:105BC0008368204698478FE0C0F34110012806D033
:105BD0005078D0B301282AD003283FD107E0D4F869
:105BE000B402114683682046BDE8F041184794F896
:105BF0009C02022802D0032872D10AE071B38029E6
:105C00006ED02046FFF7B2FD80212046FFF7AEFDA3
:105C10006AE0508838B931B1802904D0D08810B9F1
:105C20002046FFF7A3FD2046FFF7C8FA5CE094F892
:105C30009C020228E2D0032852D1508898BB480623
:105C4000F1D02046FFF7F4FBEDE7FFE794F89C0264
:105C50000026022803D0032842D112E040E009B117
:105C600080293DD1080601F07F0000EB800004EBA5
:105C7000800101D5143101E001F5AA7102220E6004
:105C80002AE0080601F00F0000EB800004EB800022
:105C90000AD5806920B301F07F0000EB800004EB9F
:105CA000800514350BE01FE0D0F85801C0B101F0B9
:105CB0007F0000EB800004EB800505F5AA7541B17B
:105CC000802906D02046FFF7B3FC10B101202860E0
:105CD00000E02E60022229462046FFF762FA03E028
:105CE00011462046FFF747FA3846BDE8F08170B507
:105CF000054608780C4610F0600003D0202801D03B
:105D0000402816D195F89C02012803D0022801D022
:105D100003280ED1207901280BD8D5F8B402826867
:105D200028469047E188014306D12846FFF746FA06
:105D300002E02846FFF71FFA002070BD70B54D78CD
:105D400001230A78012D1C4C02F00F0503FA05F31C
:105D5000D0F81C5817D000EB421245EA0343C0F8B4
:105D60001C38D2F8000B00040BD40B89C978D2F888
:105D7000000BC3F30A03184344EA81410843C2F805
:105D8000000B002070BD9EB23543C0F81C5800EBDC
:105D90004213D3F800090004F3D40D89C978D3F86D
:105DA0000009C5F30A058904284341EA82510843E2
:105DB0002043C3F80009E4E700800010D0F8001980
:105DC0006FF30A01C0F80019D0F8041841F480718B
:105DD000C0F804180020704770B5044606990A9E62
:105DE000049D01290D9816D0E06840F04000E06065
:105DF000204600F02DF8A16B26B321F48031A16379
:105E0000012D07D1A16841F00601A160A16841F010
:105E10002001A16070BDA26B01280C4922F48030E2
:105E2000A063E06800EA0100E060E06820F4401050
:105E3000E06003D1E06840F48010E060204600F0AC
:105E400007F8DDE741F48031D9E70000BFFFBDFF6F
:105E50000C49012202E0521C8A420BD80369002B34
:105E6000F9DA0369012243F00103036104E0521CE3
:105E70008A4201D9032070470369DB07F7D100206C
:105E800070470000400D030030B54C7801220B78BC
:105E9000012CD0F83C5803F00F0402FA04F417D098
:105EA00025EA0444C0F83C480978D0F81C4801F0C1
:105EB0000F018A4000EB431124EA0243104AC0F864
:105EC0001C38D1F8000B1040C1F8000B002030BD89
:105ED000A4B2A543C0F83C580978D0F81C4801F09A
:105EE0000F018A4092B29443064A00EB4311C0F876
:105EF0001C48D1F800091040C1F80009E6E700008D
:105F00000078F3EF007833EC10B5D0F8041821F0E6
:105F10000201C0F804180320FAF782FA002010BD2D
:105F200010B5D0F8041841F00201C0F8041803209D
:105F3000FAF776FA002010BD2DE9F04F0E46044620
:105F40000021DDF824B00D46109F0846DDF82C2016
:105F500004EB800CCCF80411401C0F28F8D3204629
:105F6000AFB1806B40F4001CC4F838C088460846C6
:105F7000C4F8000ED4F80008012A2146C4F800082D
:105F80001BD00846D1F8001841F003011BE0D0F8FF
:105F9000040840F0020CC4F804C8A06B20F4001CF4
:105FA000C4F838C0206840F0400CC4F800C0206835
:105FB00040F0800CC4F800C0D8E70846D1F80018BB
:105FC0000BB141F00101C0F80018102100F092FA65
:105FD00000B10125204600F07DFA00B101254046C0
:105FE0004FF000694FF67F334FF0904AC4F81088A5
:105FF000C4F81488C4F81C88002114E004EB411292
:10600000D2F800C9BCF1000F06DA11B1C2F800A93C
:1060100004E0C4F8009901E0C2F80009C2F81009D0
:10602000C2F80839491C8E42E8D8002115E000BFAB
:1060300004EB4112D2F800CBBCF1000F06DA11B12B
:10604000C2F800AB04E0C4F8009B01E0C2F8000B0A
:10605000C2F8100BC2F8083B491C8E42E8D8D4F8AD
:106060001038BBF1000F6FF0804223F48073C4F846
:106070001038A061626103D1A06940F01000A061F6
:10608000A069094A0C9940EA0200A06119B1A0690F
:1060900040F00800A061012F03D1A0690349084323
:1060A000A0612846BDE8F08F00383C800400004025
:1060B000816821F0010181600020704770B50B7884
:1060C0004E78444C0D78012E00EB431320D0D3F8CA
:1060D000100B6FF31200C3F8100BD3F8100B204015
:1060E000C3F8100B486908B188684861D3F8100BF1
:1060F000012A40F40020C3F8100BD3F8100B8A6873
:10610000C2F3120240EA0200C3F8100B56D059E065
:106110004E69002ED3F8106933D06FF31206C3F81E
:106120001069D3F810692640C3F810694E698C686D
:10613000A64200D94C61D3F8104944F40024C3F8B6
:106140001049D3F810494E69C6F3120654EA060402
:10615000C3F81049012A22D000EB4512D2F80039C9
:1061600043F00443C2F800394A6932B30B78D0F8DF
:106170003418012203F00F039A401143C0F8341879
:1061800026E02640C3F81069D3F8104944F40024EF
:10619000C3F81049D3F810496FF31204D8E709691E
:1061A00019B100EB4512C2F8141900EB4510D0F8F4
:1061B000001941F00441C0F8001909E0C86808B1AD
:1061C000C3F8140BD3F8000B40F00440C3F8000BE5
:1061D000002070BDFFFF07E010B5144C036CA34214
:1061E00003D9D0F8003B002B1EDB0023C0F8103B86
:1061F0000129D0F8101B41F40021C0F8101BD0F881
:10620000101B41F01801C0F8101BD0F8101B41F012
:10621000C041C0F8101B07D1C0F8142BD0F8001BE8
:1062200041F08021C0F8001B002010BD0A30544FFF
:106230000B784A78012A00EB43100BD0D0F8002BE2
:1062400022F40012C0F8002BC978032914D00229C7
:1062500012D017E0D0F8002922F40012C0F800296B
:10626000C978032901D002290CD1D0F8001941F0D6
:106270008051C0F8001905E0D0F8001B41F08051B2
:10628000C0F8001B002070470A784B78D1B2012B70
:1062900000EB421012D0D0F8002B002A06DB29B107
:1062A000D0F8001B21F08041C0F8001BD0F8001B83
:1062B00041F40011C0F8001B00207047D0F80029FD
:1062C000002A06DB29B1D0F8001921F08041C0F87E
:1062D0000019D0F8001941F40011C0F80019EBE7DB
:1062E000F8B50B786FF060464F78764DDCB2012F31
:1062F00000EB431326D0D3F8104B6FF31204C3F80E
:10630000104BD3F8104B2C40C3F8104B4C698D68E0
:10631000002C74D0D3F8107B2C44641EB4FBF5F42D
:10632000A4B206EAC4452F43C3F8107BD3F8105B30
:106330008E686643C6F312042543C3F8105B012A36
:1063400072D0A6E04F6927B3D3F810796FF3120724
:10635000C3F81079D3F810792F40C3F810794F693A
:106360008D68D3F810C92F447F1EB7FBF5F506EAF8
:10637000C54545EA0C05C3F81059D3F810594E69C4
:10638000C6F312063543C3F81059CD78012D10D04D
:106390001BE0D3F810692E40C3F81069D3F81059E8
:1063A00045F40025C3F81059D3F810596FF31205BE
:1063B00009E0D3F8105925F0C045C3F81059D3F8B7
:1063C000105945F00055C3F81059012A18D000EBB8
:1063D0004413D3F8004944F00444C3F80049CC788E
:1063E000012C2FD04A6962B30B78D0F834180122FF
:1063F00003F00F039A401143C0F834185FE036E011
:106400000A691AB100EB4413C3F81429C9780129A9
:106410000FD1D0F80818C90500EB4411D1F80029B4
:1064200003D442F0005202E02FE042F08052C1F863
:10643000002900EB4410D0F8001941F00441C0F8E5
:1064400000193CE0D0F80848E405D3F8004902D42C
:1064500044F0005401E044F08054C3F80049009235
:106460008B8A0A78C9689BB200F03EF927E0D3F81E
:10647000104BC5F312052C43C3F8104BD3F8104B47
:1064800044F40024C3F8104B59E7CA680AB1C3F8B2
:10649000142BC97801290CD1D0F80808C005D3F80D
:1064A000000B02D440F0005001E040F08050C3F8EF
:1064B000000BD3F8000B40F00440C3F8000B0020A1
:1064C000F8BD0000FFFF07E0816841F00101816035
:1064D00000207047064A102101610021491C9142A9
:1064E00001D9032070470369DB06F7D40020704709
:1064F000400D03002023074A43EA81130361002172
:10650000491C914201D90320704703699B06F7D4C7
:1065100000207047400D0300D0F8080810F0060076
:1065200004D0022803D0062801D00F207047022093
:106530007047406900F001007047D0F81818D0F893
:106540001C08084080B27047D0F81818D0F81C0812
:106550000840000C704710B5D0F8102801F00F0368
:1065600000EB4114D0F83418D4F80809D94001F0F0
:10657000010142EAC111084010BD00EB4111D1F800
:10658000081BD0F81408084070474169806908402A
:106590007047D21C00F580509308002210B502E02D
:1065A0000468521C10C19A42FAD3084610BD10B5B7
:1065B000C268012922F0C042C26002D029B1012084
:1065C00010BDC16841F0005102E0C16841F0804156
:1065D000C1603220F9F724FF002010BDD0F8002858
:1065E0004FF4FE6303EA011322F4FE62C0F80028B0
:1065F000D0F800181943C0F80018002070470000B8
:10660000022A3ED1264A274B0A449A4201D20F2140
:1066100038E0254A254B0A449A4201D20E2131E046
:10662000234A244B0A449A4201D20D212AE0224AED
:10663000224B0A449A4201D20C2123E0204B214AEA
:106640000B44934201D20B211CE01F4B1F4A0B4409
:10665000934201D20A2115E01D4B1E4A0B4493427E
:106660000FD31D4B1D4A0B44934201D2082109E070
:106670001B4B1C4A1944914201D2072102E006211A
:1066800000E00921C2684FF4705322F47052C260D6
:1066900003EA8123C1681943C160002070470000EC
:1066A000405327FF00350C00401E1BFF40420F00E7
:1066B00000DC0BFF804F1200808CF9FE20D6130007
:1066C00060B6E5FE60E3160000D3CEFE40771B0007
:1066D000C05BB3FEC091210000CA91FE2075380056
:1066E000E05459FEE09C410010B5029C64B900EBF7
:1066F0000230DB1C00229B0800F5805002E010C92C
:106700000460521C9A42FAD3002010BDFEE709072C
:1067100000284FEA116104DB00F1E02080F800144A
:10672000704700F00F0000F1E02080F8141D704762
:1067300002E008C8121F08C1002AFAD1704770474A
:10674000002001E001C1121F002AFBD170470000A8
:1067500010B5002821D0114B0022001F196803E05A
:10676000814203D80A4649680029F9D152B1136819
:10677000841A9C4204D1006818441060104602E05C
:10678000506000E0186039B102680B1A934203D1DF
:106790000B681A4402604968416010BD2C01002456
:1067A000FCF770FFF9F7F6FDF9F77EFFFEF7FAFB4D
:1067B000FDF7EEF8FDF732F90B490C48FCF7AAF9A2
:1067C00009490A481831FCF7CFF90749074844310D
:1067D000FCF7A8FA3220F9F723FEFDF73DF9052072
:1067E000FCF738FFFBE70000340100249C01002483
:1067F000F0B50B30154D20F007010024144A0FE0CE
:1068000003688B420BD38B4205D95E1A4318476845
:10681000C3E9006700E04368136002C004E0021DA2
:1068200010680028ECD12046002802D1286808B161
:106830000020F0BD064A07481060074A121A22F0ED
:106840000702C0E9002401202860D7E730010024B6
:106850002C010024EC0A0024E82A00240000000097
:106860000102030401020304060708090080020272
:106870001F00000053544D202020202050726F64D0
:10688000756374202020202020202020302E3031DD
:1068900000000003008083000000000000000000F2
:1068A0000600000000000000C86800080000002486
:1068B000340100003C030008706900083401002422
:1068C000B449000040670008320182102C90D003C8
:1068D0000413F551140825521B0831041A59041ADF
:1068E00081041AD5141A010817040309041201328D
:1068F00002164083042A571D0201020345031A1A97
:106900000313214F1C08F14E5419081A41041A456B
:10691000041A71041A1D04136C684208132D5814CC
:1069200008C9571B089308811AB5101ABF04C11A69
:1069300015201A09041A21041AFD1C14090220202A
:1069400008010104C0320904180A020806500507AC
:10695000058102A02C0705010709142022402920E7
:1069600019070B1C0907204B0A06EC19E3910000DC
:040000050800029954
:00000001FF
